:100000000C94800B0C94AD0B0C94AD0B0C94AD0BBD
:100010000C94AD0B0C94AD0B0C94AD0B0C94AD0B80
:100020000C94AD0B0C94AD0B0C94AD0B0C94AD0B70
:100030000C94AD0B0C94AD0B0C94AD0B0C94AD0B60
:100040000C94AD0B0C9464970C94AD0B0C94AD0B0D
:100050000C94AD0B0C94AD0B0C94DBA10C9425AB64
:100060000C94AD0B0C94696C0C94AD0B0C94AD0B13
:100070000C94AD0B0C94AD0B0C94AD0B0C94AD0B20
:100080000C94AD0B0C94AD0B0C94AD0B0C94AD0B10
:100090000C94AD0B0C94AD0B0C94AD0B0C94AD0B00
:1000A0000C94AD0B0C94AD0B0C94AD0B0C94AD0BF0
:1000B0000C94AD0B0C94AD0B0C94AD0B0C94AD0BE0
:1000C0000C94AD0B0C94AD0B0C94AD0B0C94AD0BD0
:1000D0000C94AD0B0C94AD0B0C94AD0B0C94AD0BC0
:1000E0000C94AD0B084AD73B3BCE016E84BCBFFDE0
:1000F000C12F3D6C74319ABD56833DDA3D00C77FF8
:1001000011BED9E4BB4C3E916BAAAABE0000008090
:100110003F05A84CCDB2D44EB93836A9020C50B91F
:10012000918688083CA6AAAA2ABE000000803F0744
:10013000634236B79BD8A71A39685618AEBAAB5582
:100140008C1D3CB7CC5763BD6DEDFD753EF6177247
:1001500031BF000000803F08000000BE9224491219
:100160003EABAAAA2ABECDCCCC4C3E00000080BE3D
:10017000ABAAAAAA3E00000000BF000000803F001A
:1001800000000000084178D3BB4387D1133D190E0E
:100190003CC3BD4282AD2B3E68EC8276BED98FE176
:1001A000A93E4C80EFFFBE01C4FF7F3F000000006E
:1001B000006563686F3A0043616E6E6F7420656E10
:1001C000746572207375626469723A004572726F69
:1001D000723A006572726F722077726974696E6725
:1001E00020746F2066696C65004E6F742053442044
:1001F0007072696E74696E67002F005344207072CC
:10020000696E74696E67206279746520002E0044FF
:10021000656C6574696F6E206661696C65642C201D
:1002200046696C653A200046696C652064656C65BA
:100230007465643A002E006F70656E206661696CAB
:1002400065642C2046696C653A20005772697469B0
:100250006E6720746F2066696C653A20002E006F0F
:1002600070656E206661696C65642C2046696C65FA
:100270003A20002E006F70656E206661696C6564BF
:100280002C2046696C653A200046696C65207365D0
:100290006C6563746564002053697A653A00466949
:1002A0006C65206F70656E65643A002E006F706536
:1002B0006E206661696C65642C2046696C653A2025
:1002C0000053442063617264206F6B006F70656E31
:1002D000526F6F74206661696C656400766F6C752F
:1002E0006D652E696E6974206661696C6564005382
:1002F0004420696E6974206661696C0043617264B0
:100300002072656D6F766564004361726420696E6A
:10031000736572746564004572726F723A00536F50
:100320006D657468696E672069732077726F6E6798
:1003300020696E20746865204D656E755374727502
:1003400063747572652E00204E6F204361726400E5
:10035000205072696E742066726F6D2053442020A5
:1003600020207E002053746F70205072696E7420BC
:1003700020207E0020526573756D65205072696E75
:10038000742020207E0020506175736520507269B2
:100390006E742020207E0020436F6E74726F6C207C
:1003A0007E002054756E65207E002054656D70655A
:1003B000726174757265207E00204D6F6E69746F76
:1003C00072204D6F64652003002000045265667240
:1003D00065736800204D61696E2003002046616EE0
:1003E0002073706565643A00204D6F766520417812
:1003F00069732020202020207E00204469736162E0
:100400006C65204D6F746F72730020486F6D6520AE
:10041000416C6C204178697300204D61696E200346
:1004200000204573746570732F6D6D3A00205A7308
:10043000746570732F6D6D3A002059737465707315
:100440002F6D6D3A00205873746570732F6D6D3A7F
:100450000030300030300020412D726574726163CD
:10046000743A00303000303000653A007A3A007952
:100470003A00783A0020416D61782000205654728D
:100480006176206D696E3A0020566D696E3A00659E
:100490003A007A3A00793A00783A0020566D61784D
:1004A0002000205678792D6A65726B3A2000303032
:1004B00000303000204163633A0020436F6E747255
:1004C0006F6C200300205049442D433A20002050F7
:1004D00049442D443A2000205049442D493A2000F7
:1004E000205049442D503A20002046616E20737000
:1004F0006565643A004F6666004F6E20004F666681
:10050000004F6E2000204175746F74656D703A0065
:10051000200220466163743A002002204D61783A3F
:10052000002002204D696E3A0020024E6F7A7A6CEC
:10053000653A0020436F6E74726F6C200300204494
:10054000697361626C65204D6F746F727300205A1D
:100550003A0020466C6F773A002046616E20737037
:100560006565643A0020024265643A0020024E6FDD
:100570007A7A6C653A002053706565643A00204DC4
:1005800061696E20030020526574726163740020FB
:100590004578747275646500205A3A0020593A0013
:1005A00020583A0020436F6E74726F6C2003002055
:1005B000024E6F7A7A6C653A0020436F6F6C646FFD
:1005C000776E002050726568656174204142530067
:1005D000205072656865617420504C4100204D6167
:1005E000696E2003002500446974746F20526561B0
:1005F00064792E00006D00682000022D2D2D2F2D16
:100600002D2D012000446974746F20526561647956
:100610002E0053544F505045442E20005072696EA6
:100620007465722073746F707065642064657520E2
:10063000746F206572726F72732E20466978207411
:100640006865206572726F7220616E6420757365D3
:10065000204D39393920746F20726573746172745A
:10066000212E202854656D70657261747572652045
:1006700069732072657365742E20536574206974E4
:10068000206265666F726520726573746172746949
:100690006E6729004B494C4C45442E20005072692E
:1006A0006E7465722068616C7465642E206B696C71
:1006B0006C28292063616C6C6564202121006F6BBC
:1006C00000526573656E643A006563686F3A002294
:1006D00000556E6B6E6F776E20636F6D6D616E642B
:1006E0003A22007A5F6D61783A007A5F6D696E3AFE
:1006F00000795F6D61783A00795F6D696E3A0078D4
:100700005F6D61783A00785F6D696E3A005A3A0021
:10071000593A0020436F756E7420583A00453A00EC
:100720005A3A00593A00583A004649524D574152F8
:10073000455F4E414D453A4D61726C696E205631B0
:100740003B20537072696E7465722F6772626C2001
:100750006D617368757020666F722067656E3620F4
:100760004649524D574152455F55524C3A68747450
:10077000703A2F2F7777772E74696E6B6572696E7A
:1007800065732E636F6D2050524F544F434F4C5F33
:1007900056455253494F4E3A312E30204D41434831
:1007A000494E455F545950453A446974746F204529
:1007B000585452554445525F434F554E543A310AAE
:1007C0000042656420646F6E652E0020423A00206E
:1007D000453A00543A004265642048656174696E88
:1007E000672E0048656174696E6720646F6E652EC0
:1007F0000020573A0020453A00543A004865617499
:10080000696E672E2E2E0020403A00202F002042D5
:100810003A00202F006F6B20543A00456E6420662A
:10082000696C65206C69737400426567696E206647
:10083000696C65206C697374004E6F206D6F76650E
:100840002E005761697420666F7220757365722E71
:100850002E2E00446F6E65207072696E74696E672B
:100860002066696C650053544F505045442E20005B
:100870005072696E7465722073746F707065642055
:1008800064657520746F206572726F72732E2046D6
:10089000697820746865206572726F7220616E6479
:1008A00020757365204D39393920746F2072657356
:1008B00074617274212E202854656D7065726174A4
:1008C0007572652069732072657365742E20536597
:1008D00074206974206265666F7265207265737436
:1008E000617274696E6729006F6B004E6F204C69EE
:1008F0006E65204E756D626572207769746820633D
:100900006865636B73756D2C204C617374204C6942
:100910006E653A004E6F20436865636B73756D209A
:1009200077697468206C696E65206E756D6265729A
:100930002C204C617374204C696E653A00636865C5
:10094000636B73756D206D69736D617463682C20C2
:100950004C617374204C696E653A004C696E652079
:100960004E756D626572206973206E6F74204C61E4
:100970007374204C696E65204E756D6265722B3103
:100980002C204C617374204C696E653A00446F6E84
:100990006520736176696E672066696C652E006FED
:1009A0006B002020506C616E6E65724275666665E4
:1009B0007242797465733A20002046726565204D55
:1009C000656D6F72793A200054696E6B6572696E5D
:1009D00065735F562B00207C20417574686F723AF6
:1009E0002000323031342D30342D303800204C612D
:1009F000737420557064617465643A2000312E333D
:100A00002D4220446974746F2B2054532D626574F9
:100A100061004D61726C696E200020536F667477BF
:100A20006172652052657365740020576174636854
:100A3000646F67205265736574002042726F776E31
:100A4000206F757420526573657400204578746555
:100A5000726E616C20526573657400506F776572B9
:100A60005570007374617274002200656E71756553
:100A7000696E672022006563686F3A0020746F6FAB
:100A8000206C6F6E6720657874727573696F6E2065
:100A900070726576656E7465640020636F6C6420A7
:100AA000657874727573696F6E2070726576656EA5
:100AB000746564007C3C3E5E2B3D3F2F5B5D3B2CB0
:100AC0002A225C0052656C65617365642E0024F413
:100AD00004D9201BC40C5C0E9804C4095F0265078E
:100AE0007101F405F900FB04B30048048700C10359
:100AF00069005803550003034500BE023A00840212
:100B0000310053022A002902250004022000E401DA
:100B10001C00C8011900AF011700980114008401DE
:100B20001300710110006101100051010E0043011A
:100B30000D0036010B002B010B0020010B001501ED
:100B400009000C01090003010800FB000800F30084
:100B50000800EB000700E4000600DE000600D800F5
:100B60000600D2000600CC000500C7000500C20048
:100B70000500BD000400B9000400B5000400B10088
:100B80000400AD000400A9000400A5000300A200B9
:100B900003009F0004009B000300980003009500E1
:100BA000020093000300900003008D0002008B0000
:100BB0000300880002008600020084000300810018
:100BC00002007F0002007D0002007B00020079002D
:100BD000020077000100760002007400020072003B
:100BE0000100710002006F0002006D0001006C0046
:100BF00002006A000100690002006700010066004F
:100C00000100650001006400020062000100610053
:100C10000100600001005F0002005D0001005C0057
:100C200001005B0001005A0001005900010058005A
:100C3000010057000100560001005500010054005A
:100C40000100530000005300010052000100510058
:100C50000100500001004F0001004E0000004E0056
:100C600001004D0001004C0001004B0000004B0052
:100C700001004A000100490001004800000048004E
:100C80000100470001004600000046000100450049
:100C90000000450001004400010043000000430043
:100CA000010042000000420001004100000041003C
:100CB0000100400001003F0000003F0001003E0035
:100CC00000003E0001003D0000003D0001003C002E
:100CD00000003C0000003C0001003B0000003B0025
:100CE00001003A0000003A0001003900000039001C
:100CF0000100380000003800000038000100370013
:100D00000000370001003600000036000000360009
:100D100001003500000035000000350001003400FE
:100D200000003400000034000100330000003300F4
:100D300000003300010032000000320000003200E9
:100D400001003100000031000000310001003000DE
:100D5000000030000000300001002F0000002F00D4
:100D600000002F0000002F0001002E0000002E00C8
:100D700000002E0001002D0000002D0000002D00BD
:100D800000002D0001002C0000002C0000002C00B1
:100D900000002C0001002B0000002B0000002B00A5
:100DA00000002B0001002A0000002A0000002A0099
:100DB00000002A000100290000002900000029008D
:100DC0000000290000002900010028000000280080
:100DD0000000280000002800000028000100270073
:100DE0000000270000002700000027000000270067
:100DF000010026000000260000002600000026005A
:100E0000000026000100250000002500000025004C
:100E1000000025000000250000002500010024003E
:100E20000000240000002400000024000000240032
:100E30000100230000002300000023000000230025
:100E40000000230000002300000023000100220016
:100E5000000022000000220000002200000022000A
:100E600000002200010021000000210000002100FC
:100E700000002100000021000000210000002100EE
:100E800001002000000020000000200000002000E1
:100E900000002000000020000000200000002000D2
:100EA00001001F0000001F0000001F0000001F00C5
:100EB00000001F0000001F0000001F0001001E00B6
:100EC00000001E0000001E0000001E00000024F4B0
:100ED000D43050C38E20C2A24017828B7011127A78
:100EE000910D816CD90AA861E108C7586607615164
:100EF00043061E4B5D05C145A7041A411104093D77
:100F00009803713931034036DB0265339102D430E6
:100F10005402802E1D02632CEE01752AC501B028F3
:100F2000A001102781018F2564012B244B01E022B1
:100F30003401AC211F018D200D01801FFC00841E97
:100F4000ED00971DDF00B81CD200E61BC600201B79
:100F5000BC00641AB200B219A8000A19A0006A18ED
:100F60009900D117910040178B00B51684003116F7
:100F70007E00B31579003A157300C7146F0058143A
:100F80006A00EE1366008813630025135E00C71223
:100F90005B006C12570015125400C1115100701102
:100FA0004F0021114B00D61049008D10470046100C
:100FB000440002104200C00F4000800F3E00420F6C
:100FC0003C00060F3B00CB0E3800930E37005C0E42
:100FD0003500270E3400F30D3200C10D3100900DA5
:100FE0003000600D2E00320D2D00050D2C00D90CA7
:100FF0002B00AE0C2900850C29005C0C2700350C59
:1010000027000E0C2600E80B2400C40B2400A00BC4
:1010100023007D0B23005A0B2100390B2100180BF4
:101020002000F80A1F00D90A1E00BB0A1E009D0AF4
:101030001D00800A1D00630A1C00470A1B002C0AC1
:101040001B00110A1A00F7091A00DD091900C4096A
:101050001900AB091900920917007B0918006309F0
:1010600017004C09160036091600200916000A0957
:101070001500F5081500E0081400CC081400B808A5
:101080001400A4081400900813007D0812006B08D7
:1010900013005808120046081200340811002308F3
:1010A00011001208110001081100F0071000E007FC
:1010B0001000D0071000C0071000B0070F00A107F4
:1010C000100091070E0083070F0074070F006507DB
:1010D0000E0057070E0049070E003B070D002E07B4
:1010E0000E0020070D0013070D0006070D00F9067E
:1010F0000C00ED060D00E0060C00D4060C00C8063E
:101100000C00BC060C00B0060C00A4060B009906EF
:101110000C008D060B0082060B0077060B006C0698
:101120000B0061060A0057060B004C060A00420637
:101130000A0038060A002E060A0024060A001A06CB
:101140000A001006090007060A00FD050900F4055B
:101150000900EB050900E2050900D9050900D005E1
:101160000900C7050900BE050900B5050800AD0561
:101170000800A50509009C050800940508008C05D9
:101180000800840508007C050800740508006C054B
:101190000700650508005D050700560508004E05B7
:1011A000070047050700400508003805070031051E
:1011B00007002A050700230507001C050600160581
:1011C00007000F0507000805060002050700FB04DD
:1011D0000600F5040700EE040600E8040600E20439
:1011E0000700DB040600D5040600CF040600C9048E
:1011F0000600C3040600BD040600B7040600B104DF
:101200000500AC040600A6040600A00405009B042B
:10121000060095040500900406008A040500850474
:101220000500800406007A040500750405007004BA
:1012300005006B04050066040500610405005C04FC
:10124000050057040500520405004D04050048043C
:101250000500430405003E0404003A04050035047B
:101260000500300404002C040500270404002304B6
:1012700005001E0404001A040400160405001104ED
:1012800004000D0404000904050004040400000423
:101290000400FC030400F8030400F4030400F0035A
:1012A0000400EC030400E8030400E4030400E0038A
:1012B0000400DC030400D8030400D4030400D003BA
:1012C0000400CC030400C8030300C50303006563E6
:1012D000686F3A00205A3A0020593A0020583A00E4
:1012E000656E6473746F7073206869743A2000458A
:1012F00072726F723A0054656D70657261747572C6
:10130000652068656174656420626564207377692F
:101310007463686564206F66662E204D415854459D
:101320004D502074726967676572656420212100E1
:101330003A204578747275646572207377697463B6
:10134000686564206F66662E204D494E54454D50A9
:10135000207472696767657265642021003A2045D0
:1013600078747275646572207377697463686564F4
:10137000206F66662E204D415854454D50207472A2
:1013800069676765726564202100202D20496E76AB
:10139000616C6964206578747275646572206E751D
:1013A0006D626572202100202D20496E76616C6986
:1013B00064206578747275646572206E756D6265FF
:1013C000722100504944204175746F74756E652018
:1013D00066696E6973686564202120506C6163657D
:1013E00020746865204B702C204B6920616E64204E
:1013F0004B6420636F6E7374616E747320696E202A
:1014000074686520636F6E66696775726174696F71
:101410006E2E6800504944204175746F74756E6576
:10142000206661696C6564212074696D656F7574EF
:101430000020403A006F6B20543A0050494420414C
:1014400075746F74756E65206661696C65642120C2
:1014500054656D706572617475726520746F206873
:1014600069676800204B643A2000204B693A2000ED
:10147000204B703A200020436C617369632050490F
:101480004420002054753A2000204B753A2000205B
:101490006D61783A2000206D696E3A200020643A30
:1014A000200020626961733A200070012C019001D4
:1014B0002701B0012201C0011D01F0011801100235
:1014C000130130020E016002090190020401C00202
:1014D000FF000003FA004003F5008003F000D00392
:1014E000EB002004E6007004E100E004DC004005AD
:1014F000D700C005D2004006CD00D006C800800746
:10150000C3003008BE00F008B900C009B400B00A3A
:10151000AF00B00BAA00D00CA500000EA000500F29
:101520009B00C01096005012910000148C00C01552
:101530008700B0178200B0197D00D01B7800001E14
:10154000730040206E0090226900F0246400402760
:101550005F0090295A00E02B5500102E50002030DB
:101560004B0010324600E033410090353C0010370C
:10157000370070383200A0392D00B03A2800A03B67
:101580002300603C1E00103D1900903D1400103EE9
:101590000F00703E0A00C03E0500003F0000000042
:1015A0002100240027002A002D0030003300010113
:1015B0000000040107010A010000220025002800A4
:1015C0002B002E003100340002010000050108014B
:1015D0000B01000020002300260029002C002F0012
:1015E000320000010000030106010901050505059F
:1015F000070508080808020202020A0A080804048B
:1016000004040101010101010101030303030303B8
:101610000303040707070C0C0C0C0C0C0C0C020247
:10162000020206060606060606060B0B0B0B0B0B44
:101630000B0B0102102020080810204010204080D1
:101640000201020108040201010204081020408086
:101650008040201008040201800402018040201014
:10166000080402010804020101020408102040805D
:1016700001020408102040800000090A02080B0C37
:101680000D07060304010000000000000000000038
:10169000000000000000000000000000000000004A
:1016A00000000000100F0E0000000000000000000D
:1016B0000000000000000000000000000000494E93
:1016C00046494E4954594E414ECDCCCC3D0AD723C4
:1016D0003C17B7D13877CC2B329595E6241FB14F04
:1016E0000A000020410000C84200401C4620BCBE49
:1016F0004CCA1B0E5AAEC59D74009A1FFD6C931FF9
:1017000011241FBECFEFD1E2DEBFCDBF00E00CBF82
:1017100015E0A0E0B2E0E8EEFAE601E00BBF02C09F
:1017200007900D92A434B107D9F71BBE10E1A4E4D1
:10173000B5E001C01D92A83EB107E1F716E1CEEF7A
:10174000D6E104C02297FE010E9419B5CA3FD10715
:10175000C9F70E94E9AD0C9467B50C940000A0E0B5
:10176000B0E0E5EBFBE00C9436B5EC015B016115F4
:10177000710519F0FB0191838083F9908F2D90E022
:101780000E941DB5892BC9F7FDE2FF1621F4F990DF
:10179000EE24E39405C02BE2F21609F4F990EE244E
:1017A0008E0101501040C8016EEB76E143E050E03D
:1017B0000E943E0E892B01F58E010E5F1F4FC8015E
:1017C00061EC76E145E050E00E943E0E892B19F471
:1017D0008E01095F1F4FA114B10419F0F5011183A7
:1017E0000083E0FC04C070E090E080E814C070E08A
:1017F00090E080E86FEF08C1C80166EC76E143E055
:1018000050E00E943E0E892B69F4A114B10429F422
:1018100070E090E080EC6FE7F7C02296F501D1838D
:10182000C083F6CF8824992440E050E060E070E067
:10183000EF2DE053EA30A0F5F2E0EF2A8E2D90E094
:101840009C0128703070E2FE06C0232B79F50894C5
:10185000811C911C2BC0232B19F00894810891083E
:10186000DB01CA0112E0880F991FAA1FBB1F1A953E
:10187000D1F7480F591F6A1F7B1F440F551F661F62
:10188000771F4E0F511D611D711D483929E95207FF
:1018900029E9620729E1720748F084E0E82A06C0D6
:1018A000EE3F31F4E3FC39C098E0E92AF990C0CF6B
:1018B000E53311F0E53189F529912D3219F4E0E194
:1018C000EE2A05C02B3219F081E090E003C0299187
:1018D00082E090E0E22FE053EA3018F0C81BD90B09
:1018E0001CC020E030E0FCE020383F075CF4C90178
:1018F000880F991F880F991F280F391F220F331F38
:101900002E0F311DE991E053EA3068F3E4FE03C085
:10191000309521953F4F820E931ECE2CDD24E1FEA3
:1019200007C0A114B10421F02197F501D183C08330
:10193000CB01BA010E948DB07B018C01F3E0CF2274
:10194000DD2423E0C216D10421F417FB109517F90A
:10195000109557016801C801B70120E030E040E070
:1019600050E00E94EDAF882309F44AC097FE0DC0F5
:101970002DEDE22E26E1F22E90948194910893941D
:10198000C0E2D0E000E010E012C095EFE92E96E151
:10199000F92EF6CFF7012591359145915491C60165
:1019A000B5010E94CDB25B016C018C1A9D0A8C16A8
:1019B0009D0684F7D595C7950F5F1F4F063011051B
:1019C00029F08CEF9FEFE80EF91EF1CFC501D6018B
:1019D0007C018D018C2D880F8D2D881F8F3F51F03C
:1019E000C601B50120E030E040E050E00E94EDAFDC
:1019F000882331F482E290E09093E7108093E61020
:101A00007E2D9F2D802F612F272F392F482F562F66
:101A1000B901CA01CDB7DEB7ECE00C9452B52F92F4
:101A20003F925F926F927F928F929F92AF92BF92FE
:101A3000CF92DF92EF92FF920F931F93CF93DF939A
:101A40008C011B01EA016115710519F0FB019183FD
:101A50008083209749F0CE010297839728F020E0F9
:101A600030E040E050E0F6C0F801A1908F018A2DEF
:101A700090E00E941DB5892BB9F7FDE2AF1631F455
:101A8000F801A1908F015524539407C0FBE2AF16D3
:101A900019F4F801A1908F015524209719F0C03155
:101AA000D105C1F4F0E3AF1679F4F80180818837ED
:101AB00011F0883549F4F801A1800E5F1F4FF2E064
:101AC0005F2AC0E1D0E006C0209721F480E3A81689
:101AD000E9F427C0C830D10531F1C930D10524F46B
:101AE000C230D10531F50CC0CA30D10589F0C03102
:101AF000D105F9F4C12CD12CE12CB8E0FB2E28C083
:101B0000C12CD12CE12CA0E4FA2E22C0CAE0D0E0F6
:101B1000FCECCF2EFCECDF2EFCECEF2EFCE0FF2EDD
:101B200017C0C8E0D0E0C12CD12CE12CE0E1FE2EA2
:101B30000FC09E01442737FD4095542F60E070E0B0
:101B400080E090E80E94DAB4C901DA016C017D01FD
:101B500020E030E040E050E060E03E01882477FC87
:101B60008094982C70EDB72EBA0CE9E0EB1570F468
:101B70008A2D81548A3118F499ECB92E06C08A2D29
:101B800081568A3150F589EAB82EBA0C8B2D90E037
:101B90008C179D0714F56F3FE1F0C216D306E406DB
:101BA000F506B0F0CA01B901A40193010E9494B4F2
:101BB0009B01AC012B0D311D411D511D2130F0E069
:101BC0003F07F0E04F07F0E85F0710F461E001C065
:101BD0006FEFF801A1908F01C5CF2114310481F07E
:101BE000662331F001501040F1011183008308C0D9
:101BF00051FE1AC002501040F1011183008314C03D
:101C000067FF12C050FC05C02FEF3FEF4FEF5FE7BB
:101C100004C020E030E040E050E882E290E09093A1
:101C2000E7108093E61016C050FE08C0509540950E
:101C3000309521953F4F4F4F5F4F0CC057FF0AC063
:101C400082E290E09093E7108093E6102FEF3FEF51
:101C50004FEF5FE7B901CA01DF91CF911F910F915B
:101C6000FF90EF90DF90CF90BF90AF909F908F90BC
:101C70007F906F905F903F902F900895FB01DC0163
:101C80004150504088F08D9181341CF08B350CF41C
:101C9000805E659161341CF06B350CF4605E861BD0
:101CA000611171F3990B0895881BFCCFFB01DC01D6
:101CB00004C08D910190801921F441505040C8F723
:101CC000881B990B0895FB01DC0102C001900D9265
:101CD00041505040D8F70895FB01DC010D900020E1
:101CE000E9F7119701900D920020E1F70895FC01AA
:101CF0008191861721F08823D9F799270895319784
:101D0000CF010895FB01DC0101900D920020E1F765
:101D10000895FB01DC014150504030F08D9101905D
:101D2000801919F40020B9F7881B990B0895FB015D
:101D3000DC014150504048F001900D920020C9F75D
:101D400001C01D9241505040E0F70895FB015191B0
:101D50005523A9F0BF01DC014D9145174111E1F771
:101D600059F4CD010190002049F04D9140154111E9
:101D7000C9F3FB014111EFCF81E090E00197089595
:101D8000AEE0B0E0E6ECFEE00C943EB50E891F89B3
:101D900086E08C831A8309838FEF9FE79E838D8370
:101DA0009E01265E3F4FCE010196688D798DA90177
:101DB0000E94E40E2F813885020F131FF801108254
:101DC0002E96E4E00C945AB5ABE0B0E0EAEEFEE00B
:101DD0000C9430B53C012B015A01FC01178216828C
:101DE000838181FD03C06FEF7FEFC6C19AE0892E2A
:101DF0001E010894211C311CF3012381F20123FDF3
:101E0000859123FF81912F01882309F4B2C1853286
:101E100039F423FD859123FF81912F01853229F427
:101E200090E0B3010E94D710E7CF982FFF24EE2453
:101E30009924FFE1FF15D0F09B3269F09C3228F421
:101E4000903259F0933291F40EC09D3249F09033A4
:101E500069F441E024C052E0F52A84E0F82A28C061
:101E600098E0F92A25C0E0E1FE2A22C0F7FC29C04B
:101E7000892F80538A3070F4F6FE05C0989C902C10
:101E80001124980E15C0E89CE02C1124E80EF0E215
:101E9000FF2A0EC09E3229F4F6FC6BC140E4F42AFE
:101EA00007C09C3619F450E8F52A02C0983649F468
:101EB000F20123FD959123FF91912F01992309F0C0
:101EC000B8CF892F8554833018F08052833038F48E
:101ED00044E050E0A40EB51E5FE359830FC0933673
:101EE00031F0933779F0933509F056C020C0F501F1
:101EF0008081898342E050E0A40EB51E610101E0BB
:101F000010E012C0F501C080D180F6FC03C06FEF75
:101F10007FEF02C0692D70E042E050E0A40EB51ED4
:101F2000C6010E94CC108C015FE7F52214C0F501B8
:101F3000C080D180F6FC03C06FEF7FEF02C0692D37
:101F400070E042E050E0A40EB51EC6010E94C11030
:101F50008C0150E8F52AF3FE07C01AC080E290E039
:101F6000B3010E94D710EA948E2D90E0081719074C
:101F7000A8F30EC0F601F7FC8591F7FE81916F0181
:101F800090E0B3010E94D710E110EA940150104094
:101F90000115110579F7EAC0943611F0993669F503
:101FA000F7FE08C0F501208131814281538184E030
:101FB00090E00AC0F501808191819C01442737FDA2
:101FC0004095542F82E090E0A80EB91E9FE6F922BA
:101FD00057FF09C050954095309521953F4F4F4F81
:101FE0005F4FE0E8FE2ACA01B901A1012AE030E012
:101FF0000E940311D82ED21840C0953729F41F2D06
:102000001F7E2AE030E01DC01F2D197F9F3661F032
:10201000903720F4983509F0ACC00FC0903739F0F4
:10202000983709F0A6C004C028E030E00AC010616B
:1020300014FD146020E130E004C014FD166020E1BE
:1020400032E017FF08C0F5016081718182819381C0
:1020500044E050E008C0F50180819181BC0180E03E
:1020600090E042E050E0A40EB51EA1010E940311D1
:10207000D82ED2188FE7F82EF122F6FE0BC05EEFB5
:10208000F522D91438F4F4FE07C0F2FC05C08FEE37
:10209000F82202C01D2D01C0192DF4FE0DC0FE0155
:1020A000ED0DF11D8081803319F499EEF92208C0FD
:1020B0001F5FF2FE05C003C08F2D867809F01F5FF9
:1020C0000F2DF3FC14C0F0FE0FC01E1510F09D2C58
:1020D0000BC09D2C9E0C911A1E2D06C080E290E034
:1020E000B3010E94D7101F5F1E15C0F304C01E1558
:1020F00010F4E11A01C0EE2404FF0FC080E390E069
:10210000B3010E94D71002FF1DC001FD03C088E784
:1021100090E00EC088E590E00BC0802F867891F0AB
:1021200001FF02C08BE201C080E2F7FC8DE290E08B
:10213000B3010E94D71006C080E390E0B3010E9473
:10214000D7109A94D914C0F3DA94F101ED0DF11D72
:10215000808190E0B3010E94D710DD20A9F706C06E
:1021600080E290E0B3010E94D710EA94EE20C1F71C
:1021700043CEF30166817781CB012B96E2E10C948B
:102180004CB5FC010590615070400110D8F7809566
:1021900090958E0F9F1F0895FC0161507040019033
:1021A0000110D8F7809590958E0F9F1F08950F937B
:1021B0001F93CF93DF938C01EB018B8181FF1BC0B9
:1021C00082FF0DC02E813F818C819D8128173907A8
:1021D00064F4E881F9810193F983E88306C0E88516
:1021E000F985802F1995892B31F48E819F81019675
:1021F0009F838E8302C00FEF1FEFC801DF91CF9145
:102200001F910F910895FA01AA27283051F120312A
:1022100081F1E8946F936E7F6E5F7F4F8F4F9F4F7A
:10222000AF4FB1E03ED0B4E03CD0670F781F891FBC
:102230009A1FA11D680F791F8A1F911DA11D6A0F8A
:10224000711D811D911DA11D20D009F468943F913D
:102250002AE0269F11243019305D3193DEF6CF013C
:102260000895462F4770405D4193B3E00FD0C9F702
:10227000F6CF462F4F70405D4A3318F0495D31FD6F
:102280004052419302D0A9F7EACFB4E0A6959795C2
:10229000879577956795BA95C9F700976105710598
:1022A00008959B01AC010A2E0694579547953795E2
:1022B0002795BA95C9F7620F731F841F951FA01D3C
:1022C0000895FC01118212820895FC018281882305
:1022D00011F081E081830895FC01818181111182D7
:1022E0000895CF93DF93FC0186A982508230A0F03D
:1022F000EF01E396DF01A05BBF4F8BE10D900992E8
:102300008150E1F7DF01A05BBF4FE359FF4F8BE145
:1023100001900D928150E1F7DF91CF9108950F93D5
:102320001F938C010E9443970E942097F80111820D
:1023300080E092E00E94DD3480914F098823B1F162
:1023400010924F0960914206E62FF0E0EE0FFF1F5A
:10235000EF56FF4E808191810E944F9F209165042E
:102360003091660440916704509168040E94FBB16B
:102370001816E4F460914206062F10E080E090E029
:102380000E9470A0000F111FF801EF56FF4E9183BD
:102390008083000F111F07561F4E80E090E0A0E0E1
:1023A000B0E0F80180839183A283B3831F910F91E2
:1023B0000895FC0187E295E09183808385818823DD
:1023C00021F0CF0102960E949D890895CF92DF925D
:1023D000EF92FF920F931F93DF93CF93CDB7DEB7AA
:1023E0006D970FB6F894DEBF0FBECDBF8C016B01A9
:1023F000FC0186A9882321F452E1E52EF12C03C0CB
:1024000041E3E42EF12CE00EF11E87E295E09A8381
:1024100089831E821B82B7016E5F7F4FCE010396B8
:10242000A60121E00E945090882391F5E1EBF1E0B4
:10243000949108C08091C00085FFFCCF9093C600A6
:10244000319694919923B1F7E7EBF1E0949108C0AC
:102450008091C00085FFFCCF9093C6003196949187
:102460009923B1F709C08091C00085FFFCCF089483
:10247000C11CD11C9093C600F6019081992399F755
:102480008091C00085FFFCCF8AE08093C6001EC00B
:10249000D801A359BF4FF801E05BFF4F8BE10190DA
:1024A0000D928150E1F7D801A05BBF4FF701329642
:1024B0008BE101900D928150E1F7D801D396FE0196
:1024C00033968BE101900D928150E1F7CE01019698
:1024D0000E94D9116D960FB6F894DEBF0FBECDBF26
:1024E000CF91DF911F910F91FF90EF90DF90CF90F0
:1024F0000895EF92FF920F931F937C018C01035577
:102500001F4FC8010E944F89C8010E949D89F70191
:1025100010821F910F91FF90EF9008950F931F93DA
:10252000FC01148A178A27E235E0338B228B13AA29
:1025300016AA32AB21ABE05BFF4F108233961082BC
:102540003597318320837F9610823396108235979A
:10255000318320837E9689E180833396108278963A
:1025600010823996108233961082359731832083FA
:102570007D96108211821282138238961082118207
:1025800012821382E05DF0401182128210828F016C
:1025900004531F4FD8011D921D921D921C92139738
:1025A000EC52FF4F81E08083E45DF040118A108A95
:1025B0000E946DAB68577C4E8F4F9F4FF801608330
:1025C0007183828393831F910F910895CF92DF923D
:1025D000EF92FF920F931F93CF93DF937C016B01D8
:1025E000DB010D900020E9F78D0101501040061B22
:1025F000170BEDEAF0E0EE0EFF1ED7011C92E3E5AB
:10260000FFEFEE0EFF1ECB016EE470E00E94770E2E
:10261000EC01009731F4F8013197EC0DFD1D8601B6
:102620000EC060E270E00E94770E8C010F5F1F4FBA
:10263000CE016AE270E00E94770EFC0131978DE0D6
:1026400081838AE082831382C70185559F4FB80139
:102650000E9452918DEA90E0E80EF91ED7018C910C
:10266000882319F1ECECF1E0949108C08091C0004E
:1026700085FFFCCF9093C600319694919923B1F7D2
:10268000E3EDF1E0949108C08091C00085FFFCCF9C
:102690009093C600319694919923B1F78091C00030
:1026A00085FFFCCF8AE08093C600DF91CF911F9118
:1026B0000F91FF90EF90DF90CF900895CF93DF932D
:1026C000EC018A81882309F43BC0EBEFF1E094919F
:1026D00008C08091C00085FFFCCF9093C600319662
:1026E00094919923B1F7C053DF4F488159816A8192
:1026F0007B81C05DD0408EED98E02AE030E00E9402
:10270000986DE9EFF1E0949108C08091C00085FFD9
:10271000FCCF9093C600319694919923B1F7C8539A
:10272000DF4F488159816A817B818EED98E02AE0F4
:1027300030E00E94986D8091C00085FFFCCF12C0F0
:10274000E9EEF1E0949108C08091C00085FFFCCFD4
:102750009093C600319694919923B1F78091C0006F
:1027600085FFFCCF8AE08093C600DF91CF9108956A
:102770002F923F924F925F926F927F928F929F9291
:10278000AF92BF92CF92DF92EF92FF920F931F937F
:10279000DF93CF93CDB7DEB7AA970FB6F894DEBF1D
:1027A0000FBECDBF5C014B01FC018281882309F47F
:1027B0001CC1C50183559F4F0E949D89F50111825F
:1027C000188A1B8A87E295E09F878E87C50142960B
:1027D00090AB87A7F40180818F3209F090C0C401CB
:1027E0006FE270E00E94770E7C010894E11CF11CFE
:1027F0003E010894611C711C7EE0272E312C2C0EAA
:102800003D1E60E1462E512C4C0E5D1E73C0C7016B
:102810006FE270E00E94770E6C01009709F477C0B8
:10282000E816F90608F073C08C010E191F09C301E0
:10283000B701A8010E94970E060D171DF80110821E
:10284000F30107C08091C00085FFFCCF31969093C3
:10285000C60090819923B1F78091C00085FFFCCF1D
:10286000FAE0F093C600F50167A570A9611571053E
:1028700019F460E070E002C06E5F7F4FC201A301F7
:1028800021E00E945090882371F5E7E3F2E09491F3
:1028900008C08091C00085FFFCCF9093C6003196A0
:1028A00094919923B1F7FE01319607C08091C00041
:1028B00085FFFCCF31969093C60090819923B1F7A4
:1028C000E5E3F2E0949108C08091C00085FFFCCF61
:1028D0009093C600319694919923B1F78091C000EE
:1028E00085FFFCCF7BC0F50130AA27A676010894AE
:1028F000E11CF11CE114F10409F089CF05C0C50108
:10290000C196F50190AB87A7D82C092D02C0DE2C0B
:102910000F2DF50187A590A9009719F480E090E0AC
:1029200001C002966D2D702F0E942291882339F1EB
:10293000E7E2F2E0949108C08091C00085FFFCCFEF
:102940009093C600319694919923B1F78D2D902FD5
:102950009C01F90107C08091C00085FFFCCF319632
:102960009093C60090819923B1F780ED90E0A80E76
:10297000B91EF501108211821282138232C0EFE07B
:10298000F2E0949108C08091C00085FFFCCF909345
:10299000C600319694919923B1F78D2D902F9C010B
:1029A000F90107C08091C00085FFFCCF319690935C
:1029B000C60090819923B1F7EDE0F2E0949108C050
:1029C0008091C00085FFFCCF9093C6003196949112
:1029D0009923B1F78091C00085FFFCCF8AE08093F6
:1029E000C600CE010E960E94D911AA960FB6F89491
:1029F000DEBF0FBECDBFCF91DF911F910F91FF9032
:102A0000EF90DF90CF90BF90AF909F908F907F908E
:102A10006F905F904F903F902F9008952F923F922C
:102A20004F925F926F927F928F929F92AF92BF92DE
:102A3000CF92DF92EF92FF920F931F93DF93CF938A
:102A4000CDB7DEB7AB970FB6F894DEBF0FBECDBFE4
:102A50005C014B014BA7FC018281882309F4D3C19F
:102A6000FDEA4F2E512C4A0C5B1CC2010E949D892D
:102A7000F5011182188A1B8A87E295E09F878E876D
:102A8000C501429690AB87A7F40180818F3209F08F
:102A90008FC0C4016FE270E00E94770E7C01089441
:102AA000E11CF11C3E010894611C711CE0E12E2E1A
:102AB000312C2C0E3D1E77C0C7016FE270E00E94E2
:102AC000770E6C01009709F47BC0E816F90608F050
:102AD00077C08C010E191F09C301B701A8010E941C
:102AE000970E060D171DF8011082F30107C08091A3
:102AF000C00085FFFCCF31969093C600908199234A
:102B0000B1F78091C00085FFFCCFFAE0F093C600DA
:102B1000F50167A570A96115710519F460E070E011
:102B200002C06E5F7F4FC101A30121E00E9450905F
:102B3000882371F5EDEAF2E0949108C08091C0001D
:102B400085FFFCCF9093C600319694919923B1F7FD
:102B5000FE01319607C08091C00085FFFCCF319601
:102B60009093C60090819923B1F7EBEAF2E094913B
:102B700008C08091C00085FFFCCF9093C6003196BD
:102B800094919923B1F78091C00085FFFCCF0BC1D0
:102B90008EE090E08C0F9D1FF50190AB87A776012A
:102BA0000894E11CF11CE114F10409F085CF05C083
:102BB000C501C196F50190AB87A7082DF92C01C07E
:102BC0000E2DF50167A570A9FBA5FF2309F4ABC085
:102BD0006115710519F460E070E002C06E5F7F4F0F
:102BE000C201402F5F2D21E00E945090882309F4FC
:102BF0006AC08EEB90E0A80EB91EF50140815181AC
:102C0000628173818AE090E0A80EB91EF5014083CD
:102C100051836283738388E39FEFA80EB91EEEE9A8
:102C2000F2E0949108C08091C00085FFFCCF9093A2
:102C3000C600319694919923B1F7802F9F2D9C0166
:102C4000F90107C08091C00085FFFCCF31969093B9
:102C5000C60090819923B1F7E7E9F2E0949108C0AA
:102C60008091C00085FFFCCF9093C600319694916F
:102C70009923B1F78EED98E02AE030E00E94986D3C
:102C80008091C00085FFFCCF8AE08093C600E0ED14
:102C9000F0E0AE0EBF1EF501108211821282138287
:102CA000E9E8F2E0949108C08091C00085FFFCCF74
:102CB0009093C600319694919923B1F78091C0000A
:102CC00085FFFCCF95C0E5E7F2E0949108C08091C4
:102CD000C00085FFFCCF9093C60031969491992354
:102CE000B1F7802F9F2D9C01F90107C08091C00092
:102CF00085FFFCCF31969093C60090819923B1F760
:102D0000E3E7F2E0949108C08091C00085FFFCCF1A
:102D10009093C600319694919923B1F78091C000A9
:102D200085FFFCCF40C06115710519F460E070E0CB
:102D300002C06E5F7F4FC201402F5F2D26E50E94CB
:102D40005090882309F033C0EFE5F2E0949108C079
:102D50008091C00085FFFCCF9093C600319694917E
:102D60009923B1F7802F9F2D9C01F90107C0809115
:102D7000C00085FFFCCF31969093C60090819923C7
:102D8000B1F7EDE5F2E0949108C08091C00085FFB5
:102D9000FCCF9093C600319694919923B1F780911E
:102DA000C00085FFFCCF8AE08093C60028C081E088
:102DB000F5018083EBE4F2E0949108C08091C000BB
:102DC00085FFFCCF9093C600319694919923B1F77B
:102DD000F40107C08091C00085FFFCCF319690932D
:102DE000C60090819923B1F78091C00085FFFCCF88
:102DF0008AE08093C600802F9F2D0E942D4ECE0129
:102E00000E960E94D911AB960FB6F894DEBF0FBE96
:102E1000CDBFCF91DF911F910F91FF90EF90DF9089
:102E2000CF90BF90AF909F908F907F906F905F906A
:102E30004F903F902F900895EF92FF920F931F9322
:102E4000CF93DF937C01FC0112828789882321F0D4
:102E5000C70144960E949D89870108571F4FC801EA
:102E600060E045E30E944387882309F5E1EBF1E048
:102E7000949108C08091C00085FFFCCF9093C6005C
:102E8000319694919923B1F7EFEEF2E0949108C056
:102E90008091C00085FFFCCF9093C600319694913D
:102EA0009923B1F78091C00085FFFCCF7DC0E70179
:102EB000C357DF4FCE01B80141E00E94E79188235C
:102EC00041F5CE01B80140E00E94E791882309F561
:102ED000ECECF1E0949108C08091C00085FFFCCF3C
:102EE0009093C600319694919923B1F7ECEDF2E0FE
:102EF000949108C08091C00085FFFCCF9093C600DC
:102F0000319694919923B1F78091C00085FFFCCF51
:102F10004BC0C7014496BE010E94448C882309F52A
:102F2000ECECF1E0949108C08091C00085FFFCCFEB
:102F30009093C600319694919923B1F7ECECF2E0AE
:102F4000949108C08091C00085FFFCCF9093C6008B
:102F5000319694919923B1F78091C00085FFFCCF01
:102F600023C081E0F7018283E1EBF1E0949108C096
:102F70008091C00085FFFCCF9093C600319694915C
:102F80009923B1F7E1ECF2E0949108C08091C00080
:102F900085FFFCCF9093C600319694919923B1F7A9
:102FA0008091C00085FFFCCF8AE08093C600D701E6
:102FB000D396F70174968BE101900D928150E1F761
:102FC000C7014296F70190AB87A7DF91CF911F9180
:102FD0000F91FF90EF9008952F923F924F925F9242
:102FE0007F928F929F92AF92BF92CF92DF92EF9299
:102FF000FF920F931F93DF93CF93CDB7DEB7CC55DE
:10300000D0400FB6F894DEBF0FBECDBF6C01662373
:1030100011F524ED30E0C20ED31ED6018C91ECE206
:10302000FFEFCE0EDF1E882309F4E7C02CEC30E062
:10303000C20ED31ED601ED90FD900D911C91E4E3DC
:10304000FFEFCE0EDF1E0E946DABE616F7060807F7
:10305000190708F4D2C024ED30E0C20ED31ED60109
:103060001C92ECE2FFEFCE0EDF1ED60112968C9181
:10307000882341F4C6010E941C17F601828188232F
:1030800009F4BBC000D000D0EDB7FEB731968E0179
:103090000F5F1F4FADB7BEB712961C930E931197DB
:1030A0008CE092E093838283D60150968D919C911F
:1030B0005197958384830E94C00EEE24FF24EDB7C0
:1030C000FEB736960FB6F894FEBF0FBEEDBF58019F
:1030D0000AC0D8018C91992787FD90950E9425B54B
:1030E000F80181938F01C701F50101900020E9F7F4
:1030F0003197EA19FB090894E11CF11C8E179F0710
:1031000044F314E1812E912C8C0C9D1CC40140E0F1
:1031100050E060E070E00E9485887724BDE3AB2E2C
:10312000B12CAC0EBD1E1E010894211C311CAFE158
:103130004A2E512C4C0E5D1E46C0D7018C9190E05A
:103140000E9425B5F70181937F01C801F501019027
:103150000020E9F73197EA19FB090F5F1F4F8E171F
:103160009F075CF327968FAD27978E3761F1C501D6
:10317000B10145E050E00E94890E009721F500D092
:1031800000D0EDB7FEB73196ADB7BEB712965C92E0
:103190004E92119725E132E03383228335822482D7
:1031A0000E94C00E8DB79EB706960FB6F8949EBFCC
:1031B0000FBE8DBFC2010E94DD348CE192E00E94FF
:1031C000DD3477247394C401B5010E94BA8B1816BC
:1031D00024F4750100E010E0B8CF772041F48FEFC0
:1031E0009FEFD60151969C938E93509706C0F6019F
:1031F000808991890196918B808BC45ADF4F0FB6DD
:10320000F894DEBF0FBECDBFCF91DF911F910F911C
:10321000FF90EF90DF90CF90BF90AF909F908F90F6
:103220007F905F904F903F902F9008952F923F9204
:103230004F925F926F927F928F929F92AF92BF92C6
:10324000CF92DF92EF92FF920F931F93DF93CF9372
:10325000CDB7DEB7C958D0400FB6F894DEBF0FBE69
:10326000CDBF7C013B016A0182E090E0C80ED91E0F
:10327000F7013396CE57DF4FF983E883C258D04029
:10328000CC57DF4F1882C458D0408E010E591F4FC3
:10329000C8010B96CB57DF4F99838883C558D04020
:1032A00035ED832E912C8E0C9F1C27EDA22EB12C78
:1032B000AE0CBF1C9EE0492E512C4C0E5D1E85E4C9
:1032C000282E312C2C0E3D1EF1013296C957DF4FAE
:1032D000F983E883C758D040E1EBF1E08491C75708
:1032E000DF4F8883C958D0403FC1F8018385482FFC
:1032F00050E0BA01687170706031710509F03CC12D
:10330000F401208131812130310509F435C12230A9
:10331000310509F431C1F801DE0111969081903236
:1033200039F08E2F801B883011F48EE28D939D939F
:103330003196CB57DF4F88819981C558D040E81727
:10334000F90761F71C921E86F3018081882329F416
:10335000C20160E272E00E946C0EC201B3010E94E1
:103360006C0EC201BE016F5F7F4F0E946C0EC201E6
:1033700060E272E00E946C0E1AA61DA687E295E03C
:1033800099A788A7CE018A96B601AE014F5F5F4F1D
:1033900021E00E945090882309F03FC0F401808111
:1033A0009181892BD1F5C757DF4F9881C958D040FB
:1033B000E1EBF1E008C08091C00085FFFCCF909365
:1033C000C600319694919923B1F7E2E2F2E007C08A
:1033D0008091C00085FFFCCF31969093C60090810C
:1033E0009923B1F78091C00085FFFCCFFAE0F093FC
:1033F000C600FE01319607C08091C00085FFFCCF5A
:1034000031969093C60090819923B1F78091C000C6
:1034100085FFFCCF8AE08093C600C957DF4FA881A3
:10342000B981C758D040FE01BA968BE101900D9248
:103430008150E1F787E295E0F10191838083C70134
:10344000B201A1010E941619C1010E94D911CE0139
:1034500088960E94D91188C0953E09F485C09E3295
:1034600009F482C09F3509F47FC043FD7DC080E030
:103470006031710509F481E0F7018787882349F4F9
:10348000F8018085873409F06FC081858E3709F493
:103490006BC0CE57DF4FA881B981C258D040F80128
:1034A0008081803241F08E2F801B883011F48EE2B3
:1034B0008D9380818D933196CB57DF4F8881998191
:1034C000C558D040E817F90759F71C92F4018081DC
:1034D0009181009729F5F30107C08091C00085FF15
:1034E000FCCF31969093C60090819923B1F7CE57C7
:1034F000DF4FE881F981C258D04007C08091C000F9
:1035000085FFFCCF31969093C60090819923B1F747
:103510008091C00085FFFCCFFAE0F093C60024C084
:103520008130910539F4F501808191810196918373
:1035300080831AC00297C1F4CC57DF4FF881C4587A
:10354000D0402F2F30E0F501808191812817390775
:10355000C1F0CC57DF4FF881C458D040FF5FCC5743
:10356000DF4FF883C458D040C601B8010E94BA8B1F
:1035700018160CF4BACE05C0F8019081992309F011
:103580006BCFC757DF4F0FB6F894DEBF0FBECDBF6E
:10359000CF91DF911F910F91FF90EF90DF90CF902F
:1035A000BF90AF909F908F907F906F905F904F9063
:1035B0003F902F900895EF92FF920F931F93DF9308
:1035C000CF93CDB7DEB76D970FB6F894DEBF0FBEC1
:1035D000CDBF7C01C196D701D0969C938E939F97C7
:1035E000E5EDF0E0EE0EFF1E81E090E0D7018D9357
:1035F0009D937D011D921C92E9E2FFEFEE0EFF1EEE
:10360000C701C39640E050E060E070E00E9485880A
:10361000D7019F96ED91FC91D097DE0113963296DB
:103620008BE101900D928150E1F787E295E09A835A
:103630008983C70165E372E08E010F5F1F4FA80108
:103640000E941619C8010E94D911F701E952FF4FD3
:10365000808191816D960FB6F894DEBF0FBECDBF0D
:10366000CF91DF911F910F91FF90EF9008950F93ED
:103670001F93DF93CF93CDB7DEB76D970FB6F89456
:10368000DEBF0FBECDBF8C01C196D801D0969C93F2
:103690008E939F970B521F4F82E090E0F801918329
:1036A0008083055D1040F801E952FF4F608311826D
:1036B000C801C39640E050E060E070E00E94858859
:1036C000D8019F96ED91FC91D097DE01139632962A
:1036D0008BE101900D928150E1F787E295E09A83AA
:1036E0008983C80165E372E08E010F5F1F4FA80157
:1036F0000E941619C8010E94D9116D960FB6F89450
:10370000DEBF0FBECDBFCF91DF911F910F91089506
:10371000EF92FF920F931F93DF93CF93CDB7DEB756
:103720006D970FB6F894DEBF0FBECDBF7C0185ED5F
:1037300090E0E80EF91EF701118210828BE29FEFF4
:10374000E80EF91E87010C5E1F4FC80140E050E0F3
:1037500060E070E00E948588DE011396F8018BE13D
:1037600001900D928150E1F787E295E09A83898379
:10377000C70165E372E08E010F5F1F4FA8010E9431
:103780001619C8010E94D9116D960FB6F894DEBFC4
:103790000FBECDBFCF91DF911F910F91FF90EF90A2
:1037A0000895DF93CF93CDB7DEB7E0970FB6F894C7
:1037B000DEBF0FBECDBFDE011196E3E1F5E080E193
:1037C00001900D928150E1F7DE015196E3E0F5E0C2
:1037D00080E101900D928150E1F7DE019196E3EFD7
:1037E000F4E080E101900D928150E1F789819A81A6
:1037F000AB81BC818093F3089093F408A093F50803
:10380000B093F60889899A89AB89BC898093E308CB
:103810009093E408A093E508B093E60889A19AA1E3
:10382000ABA1BCA18093030990930409A09305095F
:10383000B09306098D819E81AF81B8858093F7088A
:103840009093F808A093F908B093FA088D899E899F
:10385000AF89B88D8093E7089093E808A093E908B2
:10386000B093EA088DA19EA1AFA1B8A580930709E6
:1038700090930809A0930909B0930A0989859A854C
:10388000AB85BC858093FB089093FC08A093FD0852
:10389000B093FE08898D9A8DAB8DBC8D8093EB081B
:1038A0009093EC08A093ED08B093EE0889A59AA533
:1038B000ABA5BCA580930B0990930C09A0930D09AF
:1038C000B0930E098D859E85AF85B8898093FF08DA
:1038D00090930009A0930109B09302098D8D9E8DEC
:1038E000AF8DB8A18093EF089093F008A093F108F2
:1038F000B093F2088DA59EA5AFA5B8A980930F0936
:1039000090931009A0931109B093120980E090E8F8
:10391000ADEEB4E48093170990931809A0931909A8
:10392000B0931A0980E090E4ACE9B5E480931B09F8
:1039300090931C09A0931D09B0931E0920E030E06C
:1039400040E050E020931309309314094093150987
:103950005093160980E29EE4A0E0B0E08093DF0877
:103960009093E008A093E108B093E20820932B091C
:1039700030932C0940932D0950932E0980E090E05C
:10398000A0E7B1E480931F0990932009A093210937
:10399000B093220983E393E3A3E3BFE38093230976
:1039A00090932409A0932509B093260980E090E024
:1039B000A0EAB0E48093270990932809A0932909ED
:1039C000B0932A09E9ECF6E0949108C08091C00018
:1039D00085FFFCCF9093C600319694919923B1F75F
:1039E000E6E3F2E007C08091C00085FFFCCF31968E
:1039F0009093C60090819923B1F78091C00085FF14
:103A0000FCCF8AE08093C600E0960FB6F894DEBF44
:103A10000FBECDBFCF91DF910895809144060895E8
:103A200067707070E82FF0E0E858F94E84918B30A1
:103A300028F4883098F4863088F105C08E30C8F0BC
:103A4000813160F521C08091B1008C7F8093B100FD
:103A50008091B100862B8093B100089580919100F0
:103A60008C7F8093910080919100862B80939100B0
:103A700008958091A1008C7F8093A1008091A10086
:103A8000862B8093A1000895809121018C7F8093E3
:103A9000210180912101862B809321010895FC0151
:103AA0002491A0E4B4E004C02D930196FC0124917C
:103AB000222321F0F4E0A435BF07B1F71C9208954A
:103AC0000F931F93FC0160817181828193810E9419
:103AD0005CB08B019C01CB0164E670E00E94C7B42E
:103AE000CB016AE070E00E94C7B4805D80936D06F0
:103AF000C8016AE070E00E94C7B4CB016AE070E0E0
:103B00000E94C7B4805D80936E06C8016AE070E0D1
:103B10000E94C7B4805D80936F06109270068DE698
:103B200096E01F910F910895FC012081822F90E073
:103B30006AE070E00E94C7B4CB016AE070E00E94C6
:103B4000C7B4805D80936D06822F90E06AE070E0DC
:103B50000E94C7B4805D80936E0610926F068DE65A
:103B600096E00895FC01608171818281938120E05B
:103B700030E048EC52E40E94CDB20E945CB09B0160
:103B800077FF02C08DE201C08BE280936D0637FFA4
:103B900003C0309521953F4FC90164E670E00E9453
:103BA000C7B4CB016AE070E00E94C7B4805D809327
:103BB0006E068EE280936F06C9016AE070E00E9493
:103BC000C7B4CB016AE070E00E94C7B4805D809307
:103BD0007006C9016AE070E00E94C7B4805D8093FE
:103BE0007106109273068DE696E00895FC018081BF
:103BF000918164E670E00E94C7B4CB016AE070E096
:103C00000E94C7B4805D80936D06808191816AE0D7
:103C100070E00E94C7B4CB016AE070E00E94C7B4B4
:103C2000805D80936E06808191816AE070E00E94E1
:103C3000C7B4805D80936F06109270068DE696E0A3
:103C40000895FC018081918168EE73E00E94C7B401
:103C5000CB016AE070E00E94C7B4805D80936D067E
:103C60008081918164E670E00E94C7B4CB016AE074
:103C700070E00E94C7B4805D80936E068081918160
:103C80006AE070E00E94C7B4CB016AE070E00E9475
:103C9000C7B4805D80936F06808191816AE070E097
:103CA0000E94C7B4805D80937006109271068DE605
:103CB00096E00895FC01608171818281938120E00A
:103CC00030E040E251E40E94CDB20E945CB09B0122
:103CD00077FF02C08DE201C08BE280936D0637FF53
:103CE00003C0309521953F4FC90160E177E20E9402
:103CF000C7B4CB016AE070E00E94C7B4805D8093D6
:103D00006E06C90168EE73E00E94C7B4CB016AE099
:103D100070E00E94C7B4805D80936F06C90164E6BD
:103D200070E00E94C7B4CB016AE070E00E94C7B4A3
:103D3000805D80937006C9016AE070E00E94C7B49C
:103D4000CB016AE070E00E94C7B4805D8093710689
:103D50008EE280937206C9016AE070E00E94C7B4E7
:103D6000805D80937306109274068DE696E0089548
:103D7000FC01608171818281938120E030E048EC18
:103D800052E40E94CDB20E945CB09B0177FF02C05A
:103D90008DE201C08BE280936D0637FF03C0309542
:103DA00021953F4FC90160E177E20E94C7B4CB0182
:103DB0006AE070E00E94C7B4805D80936E06C9011E
:103DC00068EE73E00E94C7B4CB016AE070E00E9425
:103DD000C7B4805D80936F06C90164E670E00E94FD
:103DE000C7B4CB016AE070E00E94C7B4805D8093E5
:103DF00070068EE280937106C9016AE070E00E944D
:103E0000C7B4CB016AE070E00E94C7B4805D8093C4
:103E10007206C9016AE070E00E94C7B4805D8093B9
:103E20007306109274068DE696E00895CF92EF9295
:103E30000F938130910531F56F5F7F4F09F06FC0AF
:103E400084E495E00E948E128CE496E060E141E10A
:103E500027E109E15BE1E52E3DE1C32E0E94F0AAD6
:103E600010926106109260061092620610925F0630
:103E700081E08093630610926A0610926B0610929E
:103E80006C064DC0892B09F04AC06F5F7F4F09F067
:103E900046C087E295E09093F0058093EF0580910E
:103EA000F405882321F081EF95E00E949D8987E247
:103EB00095E09093B0058093AF058091B405882379
:103EC00021F081EB95E00E949D8987E295E0909337
:103ED00093058093920580919705882321F084E9CA
:103EE00095E00E949D8987E295E090937605809306
:103EF000750580917A05882321F087E795E00E9477
:103F00009D8987E295E090935705809356058091AF
:103F10005B05882321F088E595E00E949D890F913B
:103F2000EF90CF90089580E090E06FEF7FEF0E94D8
:103F3000161F089581E090E06FEF7FEF0E94161F3B
:103F400008950F93DF93CF9300D00F92CDB7DEB7D4
:103F500006B1029506950695037000950170349B95
:103F60000260209175063091760640917706509157
:103F7000780629833A834B835C830E946DAB298149
:103F80003A814B815C81261737074807590710F49F
:103F9000329B046000934506209145062170809174
:103FA000450681FD2260422F552747FD509580919F
:103FB0004A0690914B064817590709F441C0213031
:103FC000D9F022301CF4222331F03AC0223049F0DB
:103FD0002330B1F50BC08130910589F0029781F54E
:103FE0001CC0009761F0039759F517C08230910506
:103FF00031F0019729F511C08330910561F480916A
:10400000460690914706A0914806B0914906019650
:10401000A11DB11D0DC0892B99F480914606909188
:104020004706A0914806B09149060197A109B10938
:104030008093460690934706A0934806B09349069E
:1040400050934B0640934A060F900F900F900F909D
:10405000CF91DF910F9108950E946DAB609394060C
:10406000709395068093960690939706E091BD060F
:10407000F091BE06E154F94F80818823A9F4EEEB5C
:10408000F6E0949108C08091C00085FFFCCF90932A
:10409000C600319694919923B1F78091C00085FFB5
:1040A000FCCF8AE08093C6000895CF93DF93EC01A4
:1040B000FC01649109C08CE496E040E050E00E946D
:1040C000FFAE2196FE0164916623A9F7DF91CF919F
:1040D00008952F923F924F925F926F927F928F92AC
:1040E0009F92AF92BF92CF92DF92EF92FF920F9387
:1040F0001F93DF93CF93CDB7DEB7E2970FB6F89457
:10410000DEBF0FBECDBF4C01FC01928581859817A3
:1041100019F48481882339F081E0F40184838CE4EC
:1041200096E00E9432AAF4012185822F992787FD0B
:104130009095AC01440F551F440F551F4152574FE6
:1041400058AB4FA71C01220C331C220C331CE7ED8B
:10415000F8E02E0E3F1E422E662477249AAB89ABE0
:104160000C94152BF8E04F1609F4F6C2F415ACF0D8
:1041700022E0421609F44BC1241544F0442049F1D1
:1041800031E0431611F00C94072B58C0F4018481E0
:10419000F6E0F4150CF006C2A1C32EE0421609F4B5
:1041A00038C624153CF0F4018481FCE0F4150CF0D1
:1041B00055C44AC520E1421611F40C940529421653
:1041C0000CF425C731E1431611F00C94072B0C9425
:1041D000032AF4018481882351F08CE496E060E0A6
:1041E000462D0E9403AA8AEB94E00E945520F40118
:1041F0008081992787FD9095252D30E082179307C0
:1042000011F00C94072B8091450682FD02C00C949E
:10421000072B0E946DAB6C507E4F8F4F9F4F60936A
:10422000750670937606809377069093780684E0FF
:1042300090E0F401928381830C94072BF401848134
:10424000882379F18CE496E060E0462D0E9403AA71
:1042500084EB94E00E9455208CE496E06DE0462DBE
:104260000E9403AA60911709709118098091190999
:1042700090911A0920E030E048EC52E40E94F4AF3B
:104280000E945CB07A836983CE0101960E94F61D7C
:10429000BC018CE496E00E9427AE81EB94E00E9482
:1042A0005520F4018081992787FD9095252D30E0D8
:1042B0008217930711F00C94072B8091450682FF1B
:1042C00057C0838591E0892783878823C9F060914F
:1042D0001709709118098091190990911A090E9483
:1042E0005CB024E630E040E050E00E94FCB4209353
:1042F00046063093470640934806509349062AC025
:104300006091460670914706809148069091490653
:1043100024E630E040E050E00E9494B40E948FB068
:1043200060931709709318098093190990931A09DB
:10433000F401808125E08202C0011124AA2797FDA3
:10434000A095BA2F8093460690934706A0934806FF
:10435000B09349060E946DAB6C507E4F8F4F9F4FBC
:10436000609375067093760680937706909378062F
:10437000F4018385882311F40C94072B8091460661
:1043800090914706A0914806B09149060597A1056E
:10439000B10564F485E090E0A0E0B0E080934606CB
:1043A00090934706A0934806B0934906809146062D
:1043B00090914706A0914806B09149068F5D9340C1
:1043C000A040B04064F08EED93E0A0E0B0E08093B8
:1043D000460690934706A0934806B09349068CE49E
:1043E00096E06DE0452D0E9403AA809146069091CB
:1043F00047069C838B83CE0103960E94F61DBC0169
:104400008CE496E00E9427AE8EEA94E01AC4F40190
:104410008481882329F18CE496E060E0462D0E9497
:1044200003AA82EA94E00E9455208CE496E06DE0B5
:10443000462D0E9403AA60911F0970912009809166
:104440002109909122090E945CB07E836D83CE0188
:1044500005960E94F61DBC018CE496E00E9427AEF2
:10446000F4018081992787FD9095252D30E08217F2
:10447000930711F00C94072B8091450682FF4BC0E7
:10448000838591E089278387882399F060911F09AC
:104490007091200980912109909122090E945CB0BD
:1044A00060934606709347068093480690934906AA
:1044B00024C060914606709147068091480690910D
:1044C00049060E948FB060931F0970932009809362
:1044D000210990932209F401808125E08202C00124
:1044E0001124AA2797FDA095BA2F80934606909392
:1044F0004706A0934806B09349060E946DAB6C50E6
:104500007E4F8F4F9F4F6093750670937606809312
:10451000770690937806F4018385882311F40C9430
:10452000072B8091460690914706A0914806B091CE
:104530004906181619061A061B0664F081E090E079
:10454000A0E0B0E08093460690934706A09348060B
:10455000B09349068091460690914706A09148067F
:10456000B09149068F5D9340A040B04064F08EED5D
:1045700093E0A0E0B0E08093460690934706A093B6
:104580004806B09349068CE496E06DE0452D0E9404
:1045900003AA809146069091470698878F83CE01A3
:1045A0000796D7C08823D9F18CE496E060E0462DC9
:1045B0000E9403AA8BE994E00E94552023E0421652
:1045C00019F488E994E011C034E0431619F485E940
:1045D00094E00BC045E0441619F482E994E005C06C
:1045E00056E0451621F48FE894E00E9455208CE4B3
:1045F00096E06DE0452D0E9403AAF1016081718172
:10460000828193810E945CB07A876987CE01099686
:104610000E94F61DBC018CE496E00E9427AEF401D6
:104620008081992787FD9095252D30E0821793078B
:1046300011F00C94072B8091450682FF45C08385BD
:1046400091E089278387882381F0F101608171815E
:10465000828193810E945CB0609346067093470606
:10466000809348069093490621C060914606709158
:10467000470680914806909149060E948FB0F1014B
:104680006083718382839383F401808125E08202B9
:10469000C0011124AA2797FDA095BA2F8093460642
:1046A00090934706A0934806B09349060E946DABCD
:1046B0006C507E4F8F4F9F4F6093750670937606B8
:1046C0008093770690937806F4018385882309F414
:1046D0009EC78091460690914706A0914806B091EA
:1046E0004906181619061A061B0664F081E090E0C8
:1046F000A0E0B0E08093460690934706A09348065A
:10470000B09349068091460690914706A0914806CD
:10471000B09149068F5D9340A040B04064F08EEDAB
:1047200093E0A0E0B0E08093460690934706A09304
:104730004806B09349068CE496E06DE0452D0E9452
:1047400003AA80914606909147069C878B87CE01ED
:104750000B960E94F61D56C7F4018481882329F127
:104760008CE496E060E0462D0E9403AA88E894E07D
:104770000E9455208CE496E06DE0462D0E9403AA2D
:10478000609113097091140980911509909116098F
:104790000E945CB07E876D87CE010D960E94F61D4B
:1047A000BC018CE496E00E9427AEF4018081992739
:1047B00087FD9095252D30E08217930709F027C7D4
:1047C0008091450682FF4BC0838591E089278387CE
:1047D000882399F06091130970911409809115094B
:1047E000909116090E945CB060934606709347064C
:1047F000809348069093490624C0609146067091C4
:10480000470680914806909149060E948FB06093B8
:104810001309709314098093150990931609F401F4
:10482000808125E08202C0011124AA2797FDA0956E
:10483000BA2F8093460690934706A0934806B093FC
:1048400049060E946DAB6C507E4F8F4F9F4F609317
:104850007506709376068093770690937806F40138
:104860008385882309F4D3C6809146069091470634
:10487000A0914806B0914906B7FF08C010924606BD
:1048800010924706109248061092490680914606FB
:1048900090914706A0914806B09149068F5D9340DC
:1048A000A040B04064F08EED93E0A0E0B0E08093D3
:1048B000460690934706A0934806B09349068CE4B9
:1048C00096E06DE0452D0E9403AA809146069091E6
:1048D0004706988B8F87CE010F963BCF882329F10F
:1048E0008CE496E060E0462D0E9403AA8CE794E0F9
:1048F0000E9455208CE496E06DE0462D0E9403AAAC
:1049000060912B0970912C0980912D0990912E09AD
:104910000E945CB07A8B698BCE0141960E94F61D95
:10492000BC018CE496E00E9427AEF40180819927B7
:1049300087FD9095252D30E08217930709F067C613
:104940008091450682FF4BC0838591E0892783874C
:10495000882399F060912B0970912C0980912D0981
:1049600090912E090E945CB06093460670934706B2
:10497000809348069093490624C060914606709142
:10498000470680914806909149060E948FB0609337
:104990002B0970932C0980932D0990932E09F40113
:1049A000808125E08202C0011124AA2797FDA095ED
:1049B000BA2F8093460690934706A0934806B0937B
:1049C00049060E946DAB6C507E4F8F4F9F4F609396
:1049D0007506709376068093770690937806F401B7
:1049E0008385882309F413C6809146069091470673
:1049F000A0914806B0914906B7FF08C0109246063C
:104A00001092470610924806109249068091460679
:104A100090914706A0914806B09149068F5D93405A
:104A2000A040B04064F08EED93E0A0E0B0E0809351
:104A3000460690934706A0934806B09349068CE437
:104A400096E06DE0452D0E9403AA80914606909164
:104A500047069C8B8B8BCE0143967BCE882309F433
:104A600044C08CE496E060E0462D0E9403AA85E7EE
:104A700094E00E94552029E0421619F482E794E060
:104A800011C03AE0431619F48FE694E00BC04BE0F6
:104A9000441619F48CE694E005C05CE0451621F458
:104AA00089E694E00E9455208CE496E06DE0452D67
:104AB0000E9403AAEFA5F8A9608171818281938188
:104AC00024E630E040E050E00E94DAB43E8B2D8BCB
:104AD000CE0145960E94F61DBC018CE496E00E9432
:104AE00027AE86E694E00E945520F4018081992744
:104AF00087FD9095252D30E08217930709F087C533
:104B00008091450682FF4FC0838591E08927838786
:104B10008823A9F0EFA5F8A9608171818281938132
:104B200024E630E040E050E00E94FCB420934606CA
:104B300030934706409348065093490626C060913B
:104B4000460670914706809148069091490624E6F2
:104B500030E040E050E00E9494B4EFA5F8A96083F3
:104B6000718382839383F401808125E08202C001F6
:104B70001124AA2797FDA095BA2F809346069093FB
:104B80004706A0934806B09349060E946DAB6C504F
:104B90007E4F8F4F9F4F609375067093760680937C
:104BA000770690937806F4018385882309F42FC54E
:104BB0008091460690914706A0914806B09149061B
:104BC000181619061A061B0664F081E090E0A0E0B2
:104BD000B0E08093460690934706A0934806B093B2
:104BE00049068091460690914706A0914806B091EB
:104BF00049068F5D9340A040B04064F08EED93E095
:104C0000A0E0B0E08093460690934706A093480644
:104C1000B09349068CE496E06DE0452D0E9403AA0E
:104C20008091460690914706988F8F8BCE014796CC
:104C30000E94F61DBC018CE496E00E9427AE83E63C
:104C400094E00E945520E3C4882379F18CE496E037
:104C500060E0462D0E9403AA87E594E00E9455205B
:104C60008CE496E06DE0462D0E9403AA60911B093A
:104C700070911C0980911D0990911E0920E030E07F
:104C800048EC52E40E94F4AF6B8F7C8F8D8F9E8F27
:104C9000CE014B960E94601DBC018CE496E00E9400
:104CA00027AE84E594E00E945520F4018081992785
:104CB00087FD9095252D30E08217930709F0A7C452
:104CC0008091450682FF57C0838591E089278387BD
:104CD0008823C9F060911B0970911C0980911D09FE
:104CE00090911E090E945CB024E630E040E050E064
:104CF0000E94FCB420934606309347064093480632
:104D0000509349062AC060914606709147068091EB
:104D100048069091490624E630E040E050E00E94C9
:104D200094B40E948FB060931B0970931C09809308
:104D30001D0990931E09F401808125E08202C001C3
:104D40001124AA2797FDA095BA2F80934606909329
:104D50004706A0934806B09349060E946DAB6C507D
:104D60007E4F8F4F9F4F60937506709376068093AA
:104D7000770690937806F4018385882309F447C465
:104D80008091460690914706A0914806B091490649
:104D90000A97A105B10564F48AE090E0A0E0B0E0D4
:104DA0008093460690934706A0934806B093490621
:104DB0008091460690914706A0914806B091490619
:104DC0008F5D9340A040B04064F08EED93E0A0E092
:104DD000B0E08093460690934706A0934806B093B0
:104DE00049068CE496E06DE0452D0E9403AA80916F
:104DF0004606909147069A8F898FCE0149960E9468
:104E0000F61DBC018CE496E00E9427AE81E594E09B
:104E100018CFF40184818823C9F08CE496E060E027
:104E2000462D0E9403AA85E494E00E9455208CE45C
:104E300096E06BE0462D0E9403AA83EF98E00E9463
:104E4000B81EBC018CE496E00E9427AEF40180817C
:104E5000992787FD9095252D30E08217930709F05B
:104E6000D6C38091450682FF7FC0838591E0892764
:104E700083878823C9F06091F3087091F4088091CA
:104E8000F5089091F60820E030E048EC52E40E94EA
:104E9000CDB20E945CB06093460670934706809343
:104EA00048069093490652C060913F0970914009AD
:104EB00080914109909142090E948FB05B016C0181
:104EC0006091460670914706809148069091490688
:104ED0000E948FB020E030E048EC52E40E94F4AF32
:104EE0007B018C012091F3083091F4084091F50882
:104EF0005091F6080E94F4AF9B01AC01C601B501C8
:104F00000E94CDB20E949DB260933F097093400908
:104F10008093410990934209E092F308F092F408DB
:104F20000093F5081093F608F401808125E08202D1
:104F3000C0011124AA2797FDA095BA2F8093460699
:104F400090934706A0934806B09349060E946DAB24
:104F50006C507E4F8F4F9F4F60937506709376060F
:104F60008093770690937806F4018385882309F46B
:104F70004EC38091460690914706A0914806B09195
:104F800049060597A105B10564F485E090E0A0E02D
:104F9000B0E08093460690934706A0934806B093EE
:104FA00049068091460690914706A0914806B09127
:104FB000490680549244AF40B04064F08FE392E4DD
:104FC000AFE0B0E08093460690934706A093480672
:104FD000B09349068CE496E06BE0452D0E9403AA4D
:104FE0006091460670914706809148069091490667
:104FF0000E948FB020E030E048EC52E40E94F4AF11
:105000006F8F78A389A39AA3CE014F96F9C2F401BA
:1050100084818823C9F08CE496E060E0462D0E94EC
:1050200003AA89E394E00E9455208CE496E06BE0AB
:10503000462D0E9403AA87EF98E00E94B81EBC018B
:105040008CE496E00E9427AEF4018081992787FDC9
:105050009095252D30E08217930709F0D8C28091F2
:10506000450682FF7FC0838591E089278387882357
:10507000C9F06091F7087091F8088091F908909153
:10508000FA0820E030E048EC52E40E94CDB20E94E1
:105090005CB06093460670934706809348069093F1
:1050A000490652C0609143097091440980914509B5
:1050B000909146090E948FB05B016C016091460699
:1050C0007091470680914806909149060E948FB0E2
:1050D00020E030E048EC52E40E94F4AF7B018C0108
:1050E0002091F7083091F8084091F9085091FA089A
:1050F0000E94F4AF9B01AC01C601B5010E94CDB284
:105100000E949DB2609343097093440980934509BE
:1051100090934609E092F708F092F8080093F90896
:105120001093FA08F401808125E08202C001112465
:10513000AA2797FDA095BA2F80934606909347061D
:10514000A0934806B09349060E946DAB6C507E4F09
:105150008F4F9F4F60937506709376068093770606
:1051600090937806F4018385882309F450C28091D6
:10517000460690914706A0914806B09149060597CA
:10518000A105B10564F485E090E0A0E0B0E0809373
:10519000460690934706A0934806B093490680912F
:1051A000460690914706A0914806B0914906805462
:1051B0009244AF40B04064F08FE392E4AFE0B0E0DF
:1051C0008093460690934706A0934806B0934906FD
:1051D0008CE496E06BE0452D0E9403AA60914606A0
:1051E0007091470680914806909149060E948FB0C1
:1051F00020E030E048EC52E40E94F4AF6BA37CA3C3
:105200008DA39EA3CE018396FBC1F40184818823E4
:10521000C9F08CE496E060E0462D0E9403AA8DE27E
:1052200094E00E9455208CE496E06BE0462D0E94AD
:1052300003AA8BEF98E00E94B81EBC018CE496E0B4
:105240000E9427AEF4018081992787FD9095252D36
:1052500030E08217930709F0DAC18091450682FF9A
:105260007FC0838591E0892783878823C9F0609177
:10527000FB087091FC088091FD089091FE0820E0E9
:1052800030E048EC52E40E94CDB20E945CB06093E2
:10529000460670934706809348069093490652C08D
:1052A00060914709709148098091490990914A0994
:1052B0000E948FB05B016C016091460670914706B9
:1052C00080914806909149060E948FB020E030E01E
:1052D00048EC52E40E94F4AF7B018C012091FB0862
:1052E0003091FC084091FD085091FE080E94F4AFF7
:1052F0009B01AC01C601B5010E94CDB20E949DB2D6
:1053000060934709709348098093490990934A092B
:10531000E092FB08F092FC080093FD081093FE0851
:10532000F401808125E08202C0011124AA2797FDA3
:10533000A095BA2F8093460690934706A0934806FF
:10534000B09349060E946DAB6C507E4F8F4F9F4FBC
:10535000609375067093760680937706909378062F
:10536000F4018385882309F452C180914606909107
:105370004706A0914806B09149060597A105B105D9
:1053800064F485E090E0A0E0B0E08093460690935E
:105390004706A0934806B09349068091460690912F
:1053A0004706A0914806B091490680549244AF4008
:1053B000B04064F08FE392E4AFE0B0E08093460643
:1053C00090934706A0934806B09349068CE496E074
:1053D0006BE0452D0E9403AA609146067091470636
:1053E00080914806909149060E948FB020E030E0FD
:1053F00048EC52E40E94F4AF6FA378A789A79AA75C
:10540000CE018796FDC0F40184818823C9F08CE425
:1054100096E060E0462D0E9403AA81E294E00E949B
:1054200055208CE496E06BE0462D0E9403AA8FEF96
:1054300098E00E94B81EBC018CE496E00E9427AE62
:10544000F4018081992787FD9095252D30E0821702
:10545000930709F0DCC08091450682FF7FC08385F9
:1054600091E0892783878823C9F06091FF087091B4
:105470000009809101099091020920E030E048EC98
:1054800052E40E94CDB20E945CB0609346067093D5
:105490004706809348069093490652C060914B0995
:1054A00070914C0980914D0990914E090E948FB0E6
:1054B0005B016C0160914606709147068091480639
:1054C000909149060E948FB020E030E048EC52E411
:1054D0000E94F4AF7B018C012091FF0830910009FC
:1054E00040910109509102090E94F4AF9B01AC0167
:1054F000C601B5010E94CDB20E949DB260934B09D6
:1055000070934C0980934D0990934E09E092FF08E7
:10551000F09200090093010910930209F4018081BF
:1055200025E08202C0011124AA2797FDA095BA2F79
:105530008093460690934706A0934806B093490689
:105540000E946DAB6C507E4F8F4F9F4F60937506DE
:10555000709376068093770690937806F40183859E
:10556000882309F454C08091460690914706A09183
:105570004806B09149060597A105B10564F485E098
:1055800090E0A0E0B0E08093460690934706A09399
:105590004806B09349068091460690914706A0912F
:1055A0004806B091490680549244AF40B04064F040
:1055B0008FE392E4AFE0B0E0809346069093470615
:1055C000A0934806B09349068CE496E06BE0452D25
:1055D0000E9403AA60914606709147068091480692
:1055E000909149060E948FB020E030E048EC52E4F0
:1055F0000E94F4AF6BA77CA78DA79EA7CE018B96C8
:105600000E94B81EBC018CE496E00E9427AE439431
:105610000894611C711C2FA538A92C5F3F4F38AB33
:105620002FA744E050E0240E351E562CF40141858E
:10563000842F992787FD9095039629A93AA9260DCD
:10564000371D8217930714F00C94B22083858823AA
:1056500009F0A1C04287E0904606F090470600910D
:10566000480610914906148285819681A781B085EC
:10567000A8019701281B390B4A0B5B0BDA01C90102
:105680000496A11DB11D0997A105B10508F083C0BD
:105690008CE496E060E040810E9403AA8CE496E0EE
:1056A00060E240E050E00E94FFAE17FF08C0F40146
:1056B00081858150818787FF68C0118666C0F5E1CA
:1056C000EF16F1040105110574F0F40181858F5F77
:1056D00081878F301CF08EE0F40181877FE0E72E18
:1056E000F12C012D112DE0924606F0924706009311
:1056F0004806109349068091460690914706A0916E
:105700004806B0914906F40185839683A783B08744
:10571000C801B70125E030E040E050E00E94FCB451
:10572000F401208327FD1082F4018081843014F07D
:1057300083E08083F4018081823114F081E18083F1
:10574000F40192858185981711F081E084838CE4BF
:1057500096E060E0F40140810E9403AAF4012185F3
:10576000332727FD30958081992787FD9095280F55
:10577000391F232B11F463E001C06EE38CE496E043
:1057800040E050E00E94FFAE06C064E0E62EF12C3F
:10579000012D112DA8CFE2960FB6F894DEBF0FBEF3
:1057A000CDBFCF91DF911F910F91FF90EF90DF90D0
:1057B000CF90BF90AF909F908F907F906F905F90B1
:1057C0004F903F902F9008952F923F924F925F926B
:1057D0006F927F928F929F92AF92BF92CF92DF9201
:1057E000EF92FF920F931F93DF93CF93CDB7DEB766
:1057F000A8970FB6F894DEBF0FBECDBF6C01FC01B9
:1058000092858185981719F48481882339F081E085
:10581000F60184838CE496E00E9432AAF60181842A
:10582000AA24BB24682C772467FC70940DE1402ED9
:10583000512C4C0E5D1E1BE0212E312C2C0E3D1EDA
:105840000C940D34453009F4BDC2463094F4423016
:1058500009F48EC3433034F44423F1F0413009F0AD
:10586000D9C74BC0433009F42DC1443009F0D2C729
:10587000E9C1483009F440C549303CF4463009F4E8
:10588000CBC3473009F0C6C76FC4493009F424C6FA
:105890004A3009F0BFC7F6C6F6018481882351F06B
:1058A0008CE496E060E04A2D0E9403AA83E395E031
:1058B0000E945520F6018081992787FD9095292D1A
:1058C00030E08217930709F0A5C78091450682FF53
:1058D000A1C70E946DAB6C507E4F8F4F9F4F60935E
:1058E000750670937606809377069093780684E029
:1058F00090E0F601928381838DC7F601848188232D
:1059000091F18CE496E060E04A2D0E9403AA89E2BE
:1059100095E00E9455208CE496E06DE04A2D0E94AF
:1059200003AA809191109091921060E00E944F9F85
:1059300020E030E040E05FE30E9414AF0E945CB0E2
:10594000882777FD8095982F0E948FB06D8B7E8B76
:105950008F8B988FCE0145960E94601DBC018CE410
:1059600096E00E9427AEF6018081992787FD9095E9
:10597000292D30E08217930709F04CC78091450626
:1059800082FF61C0838591E0892783878823E1F0C6
:10599000809191109091921060E00E944F9F20E0C2
:1059A00030E040E05FE30E9414AF0E945CB08827C3
:1059B00077FD8095982F60934606709347068093F5
:1059C00048069093490631C060914606709147069B
:1059D00080914806909149060E948FB07B018C010E
:1059E0000E945CB0DC01CB0160E00E9470A090934B
:1059F000921080939110E0929910F0929A10009377
:105A00009B1010939C10F601808125E08202C0015A
:105A10001124AA2797FDA095BA2F8093460690934C
:105A20004706A0934806B09349060E946DAB6C50A0
:105A30007E4F8F4F9F4F60937506709376068093CD
:105A4000770690937806F6018385882309F4E2C6E9
:105A50008091460690914706A0914806B09149066C
:105A6000B7FF08C0109246061092470610924806EB
:105A7000109249068091460690914706A0914806EB
:105A8000B091490685509140A040B04064F084E058
:105A900091E0A0E0B0E08093460690934706A09383
:105AA0004806B09349068CE496E06DE0492D0E94CB
:105AB00003AA80914606909147069A838983CE0176
:105AC0000196A1C6F60184818823C9F08CE496E092
:105AD00060E04A2D0E9403AA81E295E00E945520D1
