:100000000C94B32B0C94E02B0C94E02B0C94E02B71
:100010000C94E02B0C94E02B0C94E02B0C94E02B34
:100020000C94E02B0C94E02B0C94E02B0C94E02B24
:100030000C94E02B0C94E02B0C94E02B0C94E02B14
:100040000C94E02B0C94F6990C94E02B0C94E02B80
:100050000C94E02B0C94E02B0C9487A20C943FE2C0
:100060000C94E02B0C9472450C94E02B0C94E02B38
:100070000C94E02B0C94E02B0C94E02B0C94E02BD4
:100080000C94E02B0C94E02B0C94E02B0C94E02BC4
:100090000C94E02B0C94E02B0C94E02B0C94AAE035
:1000A0000C94E02B0C94E02B0C94E02B0C94E02BA4
:1000B0000C94E02B0C94E02B0C94E02B0C94E02B94
:1000C0000C94E02B0C94E02B0C94E02B0C94E02B84
:1000D0000C94E02B0C94E02B0C94E02B0C94E02B74
:1000E0000C94E02B084AD73B3BCE016E84BCBFFD8D
:1000F000C12F3D6C74319ABD56833DDA3D00C77FF8
:1001000011BED9E4BB4C3E916BAAAABE0000008090
:100110003F05A84CCDB2D44EB93836A9020C50B91F
:10012000918688083CA6AAAA2ABE000000803F0744
:10013000634236B79BD8A71A39685618AEBAAB5582
:100140008C1D3CB7CC5763BD6DEDFD753EF6177247
:1001500031BF000000803F08000000BE9224491219
:100160003EABAAAA2ABECDCCCC4C3E00000080BE3D
:10017000ABAAAAAA3E00000000BF000000803F001A
:1001800000000000084178D3BB4387D1133D190E0E
:100190003CC3BD4282AD2B3E68EC8276BED98FE176
:1001A000A93E4C80EFFFBE01C4FF7F3F000000006E
:1001B000004D383420582059205A20450065636886
:1001C0006F3A0043616E6E6F7420656E74657220C5
:1001D0007375626469723A20004D3234004D3233D7
:1001E000202573006175746F25692E670045727252
:1001F0006F723A006572726F722077726974696EFD
:100200006720746F2066696C65004E6F74205344DC
:10021000207072696E74696E67002F0053442070FD
:1002200072696E74696E67206279746520002E00B1
:1002300044656C6574696F6E206661696C65642CD9
:100240002046696C653A200046696C652064656CDF
:10025000657465643A002E006F70656E2066616992
:100260006C65642C2046696C653A2000577269748D
:10027000696E6720746F2066696C653A20002E00F5
:100280006F70656E206661696C65642C2046696CD0
:10029000653A20002E006F70656E206661696C659E
:1002A000642C2046696C653A200046696C652073B1
:1002B000656C6563746564002053697A653A200053
:1002C00046696C65206F70656E65643A20002E008B
:1002D0006F70656E206661696C65642C2046696C80
:1002E000653A20004E6F77206672657368206669F4
:1002F0006C653A20004E6F7720646F696E672066E8
:10030000696C653A20002220706F730022207061B2
:1003100072656E743A2200535542524F5554494EFD
:10032000452043414C4C207461726765743A220049
:10033000747279696E6720746F2063616C6C2073CE
:1003400075622D67636F64652066696C65732077DD
:1003500069746820746F6F206D616E79206C6576AA
:10036000656C732E204D4158206C6576656C206954
:10037000733A0053442063617264206F6B006F70A6
:10038000656E526F6F74206661696C656400766F8C
:100390006C756D652E696E6974206661696C656443
:1003A00000534420696E6974206661696C0065635E
:1003B000686F3A0048617264636F646564204465E5
:1003C0006661756C742053657474696E6773204C34
:1003D0006F61646564002044002049002020204DA6
:1003E0003330312050005049442073657474696E75
:1003F00067733A00205A0020590020204D323036D1
:10040000205800486F6D65206F66667365742028FC
:100410006D6D293A00204500205A002058002042E6
:100420000020540020204D323035205300416476A6
:10043000616E636564207661726961626C65733AAE
:1004400020533D4D696E2066656564726174652058
:10045000286D6D2F73292C20543D4D696E207472C8
:100460006176656C20666565647261746520286DCF
:100470006D2F73292C20423D6D696E696D756D205D
:100480007365676D656E742074696D6520286D7382
:10049000292C20583D6D6178696D756D2058592063
:1004A0006A65726B20286D6D2F73292C20205A3DB0
:1004B0006D6178696D756D205A206A65726B2028B0
:1004C0006D6D2F73292C2020453D6D6178696D7508
:1004D0006D2045206A65726B20286D6D2F73290091
:1004E00020540020204D3230342053004163636596
:1004F0006C65726174696F6E3A20533D6163636528
:100500006C65726174696F6E2C20543D72657472F3
:1005100061637420616363656C65726174696F6E99
:1005200000204500205A0020590020204D32303153
:100530002058004D6178696D756D20416363656C6D
:1005400065726174696F6E20286D6D2F7332293A60
:1005500000204500205A0020590020204D32303321
:100560002058004D6178696D756D2066656564720F
:100570006174657320286D6D2F73293A0020450042
:10058000205A0020590020204D3932205800537441
:100590006570732070657220756E69743A006563CA
:1005A000686F3A004572726F723A0053544F505060
:1005B00045442E20005072696E7465722073746F0A
:1005C000707065642064756520746F206572726F49
:1005D00072732E2046697820746865206572726F88
:1005E0007220616E6420757365204D39393920742D
:1005F0006F20726573746172742E202854656D705B
:1006000065726174757265206973207265736574B3
:100610002E2053657420697420616674657220729F
:10062000657374617274696E6729004B494C4C455F
:10063000442E20005072696E7465722068616C747B
:1006400065642E206B696C6C28292063616C6C6575
:100650006421006F6B00526573656E643A2000225E
:1006600000556E6B6E6F776E20636F6D6D616E649B
:100670003A2022004368616E6765004368616E67D7
:1006800065004368616E6765004368616E67650079
:100690004368616E6765004368616E6765005A2054
:1006A0004F6666736574203A20007A5F6D61783A10
:1006B00020007A5F6D696E3A20005A204F6666739B
:1006C0006574005A204F6666736574206F6B006C0A
:1006D000636420636F6E74726173742076616C75ED
:1006E000653A20007A5F6D61783A20007A5F6D6923
:1006F0006E3A2000795F6D61783A2000795F6D690C
:100700006E3A2000785F6D61783A2000785F6D69FD
:100710006E3A2000205A3A0020593A0020436F7563
:100720006E7420583A200020453A00205A3A0020A2
:10073000593A00583A004649524D574152455F4E8A
:10074000414D453A4D61726C696E2056313B2053E4
:100750007072696E7465722F6772626C206D61735E
:1007600068757020666F722067656E362046495244
:100770004D574152455F55524C3A68747470733A04
:100780002F2F6769746875622E636F6D2F457269CC
:100790006B5A616C6D2F4D61726C696E2F205052D7
:1007A0004F544F434F4C5F56455253494F4E3A3189
:1007B0002E30204D414348494E455F545950453AEB
:1007C000446974746F50726F2045585452554445B3
:1007D000525F434F554E543A3120555549443A30B3
:1007E000303030303030302D303030302D3030300F
:1007F000302D303030302D303030303030303030FF
:100800003030300A00446974746F50726F204F6644
:10081000662E00446974746F50726F207265616453
:10082000792E0042656420646F6E652E0020423A86
:100830000020453A00543A004265642048656174DE
:10084000696E672E005072656865617465642E007C
:1008500020573A0020453A00543A004865617469CF
:100860006E672E2E2E002042403A0020403A002093
:100870002F003A00205400202F0020423A00202F61
:10088000006F6B20543A002569206D696E2C20257D
:10089000692073656300456E642066696C65206C31
:1008A00069737400426567696E2066696C65206CC7
:1008B000697374004E6F206D6F76652E00526573FC
:1008C000756D696E67207072696E74005761697426
:1008D00020666F7220757365722E2E2E00536C6524
:1008E00065702E2E2E00FFFFFF00005C43000025E8
:1008F0004300005C430000A0400000A04000000056
:1009000040000000000000000000000000000000A7
:1009100000000000000000000000005C4300002513
:100920004300005C43256920686F75727320256958
:10093000206D696E7574657300446F6E652070720A
:10094000696E74696E672066696C650053544F5018
:100950005045442E20005072696E74657220737485
:100960006F707065642064756520746F20657272A5
:100970006F72732E204669782074686520657272E4
:100980006F7220616E6420757365204D393939208E
:10099000746F20726573746172742E202854656DB3
:1009A0007065726174757265206973207265736514
:1009B000742E2053657420697420616674657220FA
:1009C00072657374617274696E6729006F6B004E93
:1009D0006F204C696E65204E756D62657220776977
:1009E000746820636865636B73756D2C204C61734C
:1009F00074204C696E653A20004E6F204368656331
:100A00006B73756D2077697468206C696E65206EF4
:100A1000756D6265722C204C617374204C696E6533
:100A20003A2000636865636B73756D206D69736D43
:100A3000617463682C204C617374204C696E653A54
:100A400020004C696E65204E756D62657220697379
:100A5000206E6F74204C617374204C696E65204E5B
:100A6000756D6265722B312C204C617374204C695A
:100A70006E653A20004D31313000446F6E65207351
:100A80006176696E672066696C652E006F6B004D3C
:100A90003239002020506C616E6E65724275666658
:100AA000657242797465733A20002046726565204C
:100AB0004D656D6F72793A20004A756C2031302097
:100AC0003230313500436F6D70696C65643A2000D7
:100AD000286E6F6E652C2064656661756C7420638A
:100AE0006F6E6669672900207C20417574686F729B
:100AF0003A20004A756C20313020323031352031B7
:100B0000373A35323A313000204C617374205570D9
:100B100064617465643A200076312E312E303300E2
:100B20004D61726C696E200020536F66747761723C
:100B30006520526573657400205761746368646F43
:100B400067205265736574002042726F776E206F64
:100B50007574205265736574002045787465726EF3
:100B6000616C20526573657400506F7765725570C3
:100B7000007374617274002200656E717565696E30
:100B8000672022002200656E717565696E672022FC
:100B9000006563686F3A0020746F6F206C6F6E673A
:100BA00020657874727573696F6E207072657665F2
:100BB0006E7465640020636F6C6420657874727570
:100BC00073696F6E2070726576656E746564007C03
:100BD0003C3E5E2B3D3F2F5B5D3B2C2A225C00455B
:100BE000313A200045303A20005A3A2000593A2044
:100BF00000583A20004D53312C4D53322050696E2D
:100C0000730A0024F404D9201BC40C5C0E9804C49D
:100C1000095F0265077101F405F900FB04B30048A0
:100C2000048700C10369005803550003034500BE53
:100C3000023A008402310053022A002902250004EE
:100C4000022000E4011C00C8011900AF0117009840
:100C500001140084011300710110006101100051A2
:100C6000010E0043010D0036010B002B010B00208B
:100C7000010B00150109000C01090003010800FB2C
:100C8000000800F3000800EB000700E4000600DEA7
:100C9000000600D8000600D2000600CC000500C700
:100CA000000500C2000500BD000400B9000400B545
:100CB000000400B1000400AD000400A9000400A578
:100CC000000300A20003009F0004009B00030098A3
:100CD0000003009500020093000300900003008DC4
:100CE0000002008B000300880002008600020084DE
:100CF000000300810002007F0002007D0002007BF3
:100D00000002007900020077000100760002007402
:100D100000020072000100710002006F0002006D0D
:100D20000001006C0002006A000100690002006717
:100D3000000100660001006500010064000200621D
:100D400000010061000100600001005F0002005D21
:100D50000001005C0001005B0001005A0001005925
:100D60000001005800010057000100560001005525
:100D70000001005400010053000000530001005224
:100D800000010051000100500001004F0001004E21
:100D90000000004E0001004D0001004C0001004B1E
:100DA0000000004B0001004A00010049000100481A
:100DB0000000004800010047000100460000004616
:100DC000000100450000004500010044000100430F
:100DD0000000004300010042000000420001004109
:100DE00000000041000100400001003F0000003F02
:100DF0000001003E0000003E0001003D0000003DFB
:100E00000001003C0000003C0000003C0001003BF1
:100E10000000003B0001003A0000003A00010039E8
:100E200000000039000100380000003800000038E0
:100E300000010037000000370001003600000036D6
:100E400000000036000100350000003500000035CC
:100E500000010034000000340000003400010033C1
:100E600000000033000000330001003200000032B7
:100E700000000032000100310000003100000031AC
:100E80000001003000000030000000300001002FA1
:100E90000000002F0000002F0000002F0001002E96
:100EA0000000002E0000002E0001002D0000002D8B
:100EB0000000002D0000002D0001002C0000002C7F
:100EC0000000002C0000002C0001002B0000002B73
:100ED0000000002B0000002B0001002A0000002A67
:100EE0000000002A0000002A00010029000000295B
:100EF000000000290000002900000029000100284E
:100F00000000002800000028000000280000002841
:100F10000001002700000027000000270000002734
:100F20000000002700010026000000260000002627
:100F3000000000260000002600010025000000251A
:100F4000000000250000002500000025000000250D
:100F50000001002400000024000000240000002400
:100F600000000024000100230000002300000023F3
:100F700000000023000000230000002300000023E5
:100F800000010022000000220000002200000022D8
:100F900000000022000000220001002100000021CA
:100FA00000000021000000210000002100000021BD
:100FB00000000021000100200000002000000020AF
:100FC00000000020000000200000002000000020A1
:100FD000000000200001001F0000001F0000001F93
:100FE0000000001F0000001F0000001F0000001F85
:100FF0000001001E0000001E0000001E0000001E78
:1010000000000024F4D43050C38E20C2A2401782C6
:101010008B7011127A910D816CD90AA861E108C711
:10102000586607615143061E4B5D05C145A7041A6A
:10103000411104093D9803713931034036DB0265E3
:10104000339102D4305402802E1D02632CEE0175C0
:101050002AC501B028A001102781018F2564012B2A
:10106000244B01E0223401AC211F018D200D0180B1
:101070001FFC00841EED00971DDF00B81CD200E6A7
:101080001BC600201BBC00641AB200B219A8000ADB
:1010900019A0006A189900D117910040178B00B56C
:1010A00016840031167E00B31579003A157300C717
:1010B000146F0058146A00EE13660088136300254D
:1010C000135E00C7125B006C12570015125400C16A
:1010D00011510070114F0021114B00D61049008DA5
:1010E0001047004610440002104200C00F4000802C
:1010F0000F3E00420F3C00060F3B00CB0E38009322
:101100000E37005C0E3500270E3400F30D3200C19F
:101110000D3100900D3000600D2E00320D2D0005B8
:101120000D2C00D90C2B00AE0C2900850C29005C7D
:101130000C2700350C27000E0C2600E80B2400C4F9
:101140000B2400A00B23007D0B23005A0B21003938
:101150000B2100180B2000F80A1F00D90A1E00BB43
:101160000A1E009D0A1D00800A1D00630A1C00471C
:101170000A1B002C0A1B00110A1A00F7091A00DDCD
:10118000091900C4091900AB091900920917007B5D
:10119000091800630917004C0916003609160020CB
:1011A0000916000A091500F5081500E0081400CC1E
:1011B000081400B8081400A4081400900813007D57
:1011C0000812006B08130058081200460812003479
:1011D000081100230811001208110001081100F085
:1011E000071000E0071000D0071000C0071000B083
:1011F000070F00A107100091070E0083070F00746E
:10120000070F0065070E0057070E0049070E003B49
:10121000070D002E070E0020070D0013070D000616
:10122000070D00F9060C00ED060D00E0060C00D4D9
:10123000060C00C8060C00BC060C00B0060C00A48E
:10124000060B0099060C008D060B0082060B00773A
:10125000060B006C060B0061060A0057060B004CDB
:10126000060A0042060A0038060A002E060A002472
:10127000060A001A060A001006090007060A00FD01
:10128000050900F4050900EB050900E2050900D98C
:10129000050900D0050900C7050900BE050900B50C
:1012A000050800AD050800A50509009C0508009487
:1012B0000508008C050800840508007C05080074FA
:1012C0000508006C050700650508005D0507005668
:1012D0000508004E050700470507004005080038CF
:1012E000050700310507002A050700230507001C34
:1012F000050600160507000F050700080506000291
:10130000050700FB040600F5040700EE040600E8EC
:10131000040600E2040700DB040600D5040600CF43
:10132000040600C9040600C3040600BD040600B795
:10133000040600B1040500AC040600A6040600A0E3
:101340000405009B04060095040500900406008A2D
:1013500004050085040500800406007A0405007574
:10136000040500700405006B0405006604050061B7
:101370000405005C04050057040500520405004DF7
:1013800004050048040500430405003E0404003A37
:1013900004050035040500300404002C0405002772
:1013A000040400230405001E0404001A04040016AB
:1013B000040500110404000D0404000904050004E0
:1013C00004040000040400FC030400F8030400F417
:1013D000030400F0030400EC030400E8030400E449
:1013E000030400E0030400DC030400D8030400D479
:1013F000030400D0030400CC030400C8030300C5A9
:101400000303006563686F3A00656E6473746F7000
:1014100073206869743A205A00205A3A00656E6455
:1014200073746F7073206869743A20590020593AB8
:1014300000656E6473746F7073206869743A205825
:101440000020583A00656E6473746F707320686989
:10145000743A20004572726F723A004572723A20F7
:101460004D415854454D50204245440054656D70DF
:101470006572617475726520686561746564206267
:101480006564207377697463686564206F66662E8F
:10149000204D415854454D502074726967676572FC
:1014A0006564202121004572723A204D494E544511
:1014B0004D50003A204578747275646572207377D8
:1014C000697463686564206F66662E204D494E54CA
:1014D000454D50207472696767657265642021000C
:1014E0004572723A204D415854454D50003A2045BE
:1014F0007874727564657220737769746368656463
:10150000206F66662E204D415854454D5020747210
:1015100069676765726564202100202D20496E7619
:10152000616C6964206578747275646572206E758B
:101530006D626572202100504944204175746F74BA
:10154000756E652066696E697368656421205075E3
:101550007420746865206C617374204B702C204B70
:101560006920616E64204B6420636F6E7374616EDA
:1015700074732066726F6D2061626F766520696E8C
:10158000746F20436F6E66696775726174696F6E00
:101590002E6800504944204175746F74756E652043
:1015A0006661696C6564212074696D656F7574008E
:1015B00020403A006F6B20543A006F6B20423A0093
:1015C000504944204175746F74756E652066616979
:1015D0006C6564212054656D706572617475726507
:1015E00020746F6F206869676800204B643A2000A0
:1015F000204B693A2000204B703A200020436C6158
:10160000737369632050494420002054753A2000C8
:10161000204B753A2000206D61783A2000206D69DA
:101620006E3A200020643A200020626961733A20FB
:101630000070012C0190012701B0012201C0011DA1
:1016400001F00118011002130130020E01600209BD
:101650000190020401C002FF000003FA004003F5FC
:10166000008003F000D003EB002004E6007004E1EA
:1016700000E004DC004005D700C005D2004006CDE4
:1016800000D006C8008007C3003008BE00F008B9CB
:1016900000C009B400B00AAF00B00BAA00D00CA57E
:1016A00000000EA000500F9B00C010960050129139
:1016B0000000148C00C0158700B0178200B0197D9F
:1016C00000D01B7800001E730040206E009022693D
:1016D00000F024640040275F0090295A00E02B5559
:1016E00000102E500020304B0010324600E03341F5
:1016F0000090353C001037370070383200A0392D8B
:1017000000B03A2800A03B2300603C1E00103D19A9
:1017100000903D1400103E0F00703E0A00C03E05D0
:1017200000003F0000537461747573004368616E7C
:1017300067650053706565640053706565640057A4
:10174000697A61726400436F6E74726F6C0020542A
:10175000656D70004E6F20436172640020507269A5
:101760006E740053746F7000526573756D65005030
:101770006175736500FFFFFFFFFFFFFFFFFFFFFFC6
:10178000FFFFFFFFFFFFFFFFFFFFE000000000047F
:101790000000000001FFFFFFFFFFE0000000000469
:1017A0000000000001FFFFFFFFFFE0000000000459
:1017B0000000000001FFFFFFFFFFE0000000000449
:1017C0000000000001FFFFFFFFFFE000381C0004E5
:1017D0000007FF8001FFFFFFFFFFE000381C00044F
:1017E0000007FF8001FFFFFFFFFFE000381C00043F
:1017F0000007FF8001FFFFFFFFFFE000381C00042F
:101800000007FF8001FFFFFFFFFFE000381C00041E
:101810000007FF8001FFC175D07FE000381C000485
:101820000007FF8001FFF774D7FFE000381C0004B9
:101830000007FF8001FFF775507FE000381C0004AF
:101840000007FF8001FFF77597FFE000381C0004D8
:101850000007FF8001FFF78DD07FE000381C0004F7
:101860000007FF8001FFFFFFFFFFE000381C0004BE
:101870000007FF8001FFFFFFFFFFE000381C0004AE
:101880000007FF8001FFDD05D77FE00000000004B6
:101890000000000001FFC97CD77FE00000000004C9
:1018A0000000000001FFD50D577FE000000000049C
:1018B0000000000001FFDD7D977FE00000000004D4
:1018C0000000000001FFDD05D8FFE000000000047B
:1018D0000000000001FFFFFFFFFFE0000000000428
:1018E0000000000001FFFFFFFFFFE0000000000418
:1018F0000000000001FFFFFFFFFFE0000000000408
:101900000000000001FFFFFFFFFFE00000000004F7
:101910000000000001FFFFFFFFFFE00000000004E7
:101920000000000001FFFFFFFFFFE00000000004D7
:101930000000000001FFFFFFFFFFE00000000004C7
:101940000000000001FFFFFFFFFFE00000000004B7
:101950000000000001FFFFFFFFFFE00000000004A7
:101960000000000001FFFFFFFFFFFFFFFFFFFFFF81
:10197000FFFFFFFFFF8000000000200000000004C8
:1019800000000000018000000000200000000004B2
:1019900000000000018000000000200000000004A2
:1019A0000000000001800000000020000000000492
:1019B000000000000180000C000020000100000475
:1019C000000000000180000C000020003F9C00048B
:1019D000000FFF800180000C000020003FDC0004AD
:1019E000000FFF80018018000C0020003F9C0004C5
:1019F000000FFF8001801C601C002000391C0004C7
:101A0000000FDF8001800E6038002000381C0004C9
:101A1000000FDF800180043010002000381C00041B
:101A2000000FAF800180003000002000381C00044F
:101A30000003AC000180001800002000381C0004E6
:101A4000000D75800180001800002000389C000403
:101A5000000D75800180001C0000200039FC00048E
:101A6000000E7B800180701E038020003BFC000480
:101A7000000EFF800180701E0380200039FC0004EE
:101A8000000FFF800180000C000020000080000497
:101A9000000FFF8001800000000020000000000413
:101AA0000000000001800000000020000000000491
:101AB0000000000001800000000020000000000481
:101AC0000000000001800000000020000000000471
:101AD0000000000001800000000020000000000461
:101AE0000000000001800000000020000000000451
:101AF0000000000001800000000020000000000441
:101B00000000000001800000000020000000000430
:101B10000000000001800000000020000000000420
:101B20000000000001800000000020000000000410
:101B30000000000001800000000020000000000400
:101B400000000000018000000000200000000004F0
:101B500000000000018000000000200000000004E0
:101B60000000000001FFFFFFFFFFFFFFFFFFFFFF7F
:101B7000FFFFFFFFFFFFFFFFFFFFFFFFFFFFFFFF75
:101B8000FFFFFFFFFFFFFFFFFFFFE000000000047B
:101B90000000000001FFFFFFFFFFE0000000000465
:101BA0000000000001FFFFFFFFFFE0007FFF0004D7
:101BB0000000F00001FFFFFFFFFFE0007FFF0004D7
:101BC0000000880001FFFFFFFFFFE0007FFF00042F
:101BD0000000980001FFFFFFFFFFE0007FFF00040F
:101BE0000000BE0001FFFFFFFFFFE0007FFF0004D9
:101BF0000000B80001FFFFFFFFFFE0007FFF0004CF
:101C00000000B80001FFFFFFFFFFE0007FFF0004BE
:101C10000000BE0001FFDD84177FE00007F0000434
:101C20000000B80001FFC977737FE00003E0000403
:101C30000000B80001FFD507757FE00001C0000477
:101C40000000BE0001FFDD77767FE00000000004A9
:101C50000000B80001FFDD74177FE0000080000481
:101C60000000B80001FFFFFFFFFFE0007F800004DD
:101C70000001BC0001FFFFFFFFFFE0004000000487
:101C800000027E0001FFDD05D77FE0007FFF00043A
:101C90000002FE0001FFC97CD77FE00000010004C4
:101CA0000002FE0001FFD50D577FE0007FFF00041A
:101CB0000002FE0001FFDD7D977FE0004000000490
:101CC0000001FC0001FFDD05D8FFE0007FFF0004FC
:101CD0000000F80001FFFFFFFFFFE000000000042C
:101CE0000000000001FFFFFFFFFFE0000000000414
:101CF0000000000001FFFFFFFFFFE0000000000404
:101D00000000000001FFFFFFFFFFE00000000004F3
:101D10000000000001FFFFFFFFFFE00000000004E3
:101D20000000000001FFFFFFFFFFE00000000004D3
:101D30000000000001FFFFFFFFFFE00000000004C3
:101D40000000000001FFFFFFFFFFE00000000004B3
:101D50000000000001FFFFFFFFFFE00000000004A3
:101D60000000000001FFFFFFFFFFFFFFFFFFFFFF7D
:101D7000FFFFFFFFFF8000000000200000000004C4
:101D800000000000018000000000200000000004AE
:101D9000000000000180000000002000000000049E
:101DA000000000000180000000002000000000048E
:101DB000000000000180000000002000100000046E
:101DC000000000000180000800002000280000043E
:101DD000000000000180001C000020001000000432
:101DE000000FFF800180003E0000200000A00004E2
:101DF000000FFF8001800000000020000840000468
:101E0000000FFF800180001C0000200014A00004CF
:101E1000000FDF800180013E400020000A00000426
:101E2000000FDF800180037F6000200007000004B6
:101E3000000FAF800180077F700020002380000426
:101E40000003AC000180037F6000200051C000044B
:101E5000000D75800180013E4000200020E000045C
:101E6000000D75800180001C00002000007000043F
:101E7000000E7B800180000000002000003800047C
:101E8000000EFF800180003E00002000001C0004C6
:101E9000000FFF800180001C00002000000E0004E5
:101EA000000FFF80018000080000200000070004F0
:101EB000000000000180000000002000000300047A
:101EC000000000000180000000002000000000046D
:101ED000000000000180000000002000000000045D
:101EE000000000000180000000002000000000044D
:101EF000000000000180000000002000000000043D
:101F0000000000000180000000002000000000042C
:101F1000000000000180000000002000000000041C
:101F2000000000000180000000002000000000040C
:101F300000000000018000000000200000000004FC
:101F400000000000018000000000200000000004EC
:101F500000000000018000000000200000000004DC
:101F60000000000001FFFFFFFFFFFFFFFFFFFFFF7B
:101F7000FFFFFFFFFFFFFFFFFFFFFFFFFFFFFFFF71
:101F8000FFFFFFFFFFFFFFFFFFFFFFFFFFFFFFFF61
:101F9000FFFFFFFFFFFFFFFFFFFFFFFFFFFFFFFF51
:101FA000FFFFFFFFFFFFFFFFFFFFFFFFFFFFFFFF41
:101FB000FFFFFFFFFFFFFFFFFFFFFFFFFFFFFFFF31
:101FC000FFFFFFFFFFFFFFFFFFFFFFFFFFFFFFFF21
:101FD000FFFFFFFFFFFFFFFFFFFFFFFFFFFFFFFF11
:101FE000FFFFFFFFFFFFFFFFFFFFFFFFFFFFFFFF01
:101FF000FFFFFFFFFFFFFFFFFFFFFFFFFFFFFFFFF1
:10200000FFFFFFFFFFFFFFFFFFFFFFFFFFFFFFFFE0
:10201000FFFFFFFFFF800000000000000000000045
:10202000000000000180000000000000000000002F
:10203000000000000180000000000000000000001F
:10204000000000000180000000000000000000000F
:1020500000000000018000000000000000000000FF
:1020600000000000018000000000000000001C00D3
:1020700000000000018F3917903DF7CE64002A1E42
:102080008338EF70019045B450404111540049101D
:1020900084A50848019045579078411154004D1C83
:1020A00087BDEE4801904514104041115400411085
:1020B00084A02848018F39141F3C47CE4C00221EB3
:1020C000F4A1EF70018000000000000000001C007F
:1020D000000000000180000000000000000000007F
:1020E000000000000180000000000000000000006F
:1020F000000000000180000000000000000000005F
:10210000000000000180000000000000000000004E
:10211000000000000180000000000000000000003E
:10212000000000000180000000000000000000002E
:10213000000000000180000000000000000000001E
:10214000000000000180000000000000000000000E
:1021500000000000018000000000000000000000FE
:1021600000000000018000000000000000000000EE
:1021700000000000018000000000000000000000DE
:1021800000000000018000000000000000000000CE
:1021900000000000018000000000000000000000BE
:1021A00000000000018000000000000000000000AE
:1021B000000000000180000000000000000000009E
:1021C000000000000180000000000000000000008E
:1021D000000000000180000000000000000000007E
:1021E000000000000180000000000000000000006E
:1021F00000000000018000000000000000001C0042
:1022000000000000018000000000000000002A1C07
:10221000F44CB2B2719F3D178000000000004912DB
:1022200086D2AAAA818441B44000000000004D1E5D
:10223000E55EAAAAB184795780000000000041142D
:102240008452AAAA918441140000000000002212C6
:10225000F452A6A671843D140000000000001C008A
:1022600000000000018000000000000000000000ED
:1022700000000000018000000000000000000000DD
:1022800000000000018000000000000000000000CD
:1022900000000000018000000000000000000000BD
:1022A00000000000018000000000000000000000AD
:1022B000000000000180000000000000000000009D
:1022C000000000000180000000000000000000008D
:1022D000000000000180000000000000000000007D
:1022E000000000000180000000000000000000006D
:1022F000000000000180000000000000000000005D
:10230000000000000180000000000000000000004C
:10231000000000000180000000000000000000003C
:10232000000000000180000000000000000000002C
:10233000000000000180000000000000000000001C
:10234000000000000180000000000000000000000C
:1023500000000000018000000000000000000000FC
:102360000000000001FFFFFFFFFFFFFFFFFFFFFF77
:10237000FFFFFFFFFF446974746F50726F20726536
:102380006164792E005072656865617465642E0021
:1023900048656174696E672E2E2E00B043002D2DA6
:1023A0003A2D2D002D2D3A2D2D002D2D3A2D2D00BD
:1023B0004D383400473120583130205931300045F4
:1023C000786974004E657746696C616D656E74005E
:1023D000426564204C6576656C00FFFFFFFFFFFFE0
:1023E000FFFFFFFFFFFFFFFFFFFFFFFFFFFFFFFDFF
:1023F000D0418C30FFFFFFFFFFFFFFFFFFFFFFFD1E
:10240000DDFD75D77FFFFFFFFFFFFFFFFFFFFFFD34
:102410005DE304177FFFFFFFFFFFFFFFFFFFFFFDEF
:102420005DDF75B77FFFFFFFFFFFFFFFFFFFFFFED1
:10243000B04175D0FFFFFFFFFFFFFFFFFFFFFFFF72
:10244000FFFFFFFFFFFFFFFFFFFFFFFFFFFFFFFF9C
:10245000FFFFFFFFFFFFFFFFFFFF80000000000006
:1024600000020000000000000001800000000000E9
:1024700000020000000000000001800000000000D9
:1024800000020000000000000001800000000000C9
:1024900000020000000000000001800000000000B9
:1024A00000020000000000000001800000000000A9
:1024B00000020000000300000001800007FFFFC0D1
:1024C00000020000000300000001800007FFFFC0C1
:1024D000000200000FFFC3F00001800007FFFFC0F3
:1024E000000200000FFFC3F000018000041FFFC0C6
:1024F000000200000FFFF3F000018000041FFFC086
:10250000000200000FFFF3F00001800007FFFFC092
:10251000000200000FFFC3F00001800004044040EF
:10252000000200000FFFC3F00001800004044040DF
:10253000000200000FC303F00001800004044040CB
:10254000000200000FC303F00001800004044040BB
:10255000000200000FC003F00001800004044040AE
:10256000000200000FC003F000018000040440409E
:10257000000200000FC003F000018000040440408E
:10258000000200000FC003F000018000040440407E
:10259000000200000FC003F000018000040440406E
:1025A000000200000FC003F000018000047FFC4027
:1025B000000200000FC003F000018000040440404E
:1025C000000200000FC003F000018000040440403E
:1025D000000200000FC0C3F000018000040440406E
:1025E000000200000FC0C3F00001800007FFFFC021
:1025F000000200000FC3FFF00001800007FFFFC0D2
:10260000000200000FC3FFF00001800007FF84C03C
:10261000000200000FCFFFF00001800007FF84C020
:10262000000200000FCFFFF00001800007FF87C00D
:10263000000200000FC3FFF00001800007FFFFC091
:10264000000200000FC3FFF0000180000000000046
:10265000000200000000C000000180000000000037
:10266000000200000000C000000180000000000027
:1026700000020000000000000001800000000000D7
:1026800000020000000000000001800000000000C7
:1026900000020000000000000001800000000000B7
:1026A00000020000000000000001800000000000A7
:1026B0000002000000000000000180000000000097
:1026C0000002000000000000000180000000000087
:1026D0000002000000000000000180000000000077
:1026E0000002000000000000000180000000000067
:1026F0000002000000000000000180000000000057
:102700000002000000000000000180000000000046
:102710000002000000000000000180000000000036
:102720000002000000000000000180000000000026
:1027300000020000000000000001FFFFFFFFFFFF9C
:10274000FFFFFFFFFFFFFFFFFFFF80000000000013
:1027500000000000000000000001800000000000F8
:1027600000000000000000000001800000000000E8
:1027700000000000000000000001800000000000D8
:1027800000000000000000000001800000000000C8
:1027900000000000000000000001800000000000B8
:1027A00000000000000000000001800000000000A8
:1027B0000000000000000000000180000000000098
:1027C00000000000000000000001FFFFFFFFFFFF0E
:1027D000FFFFFFFFFFFFFFFFFFFF45786974004623
:1027E000616E204F6E0046616E204F666600457830
:1027F000747275646500456E61626C65004469734E
:1028000061626C650047323800486F6D65416C6CE1
:1028100000FFFFFFFFFFE0000000000400000000D9
:1028200000FFFFFFFFFFE0000000000400000000C9
:1028300000FFFFFFFFFFE0000000000400000000B9
:1028400000FFFFFFFFFFE000038000040000000026
:1028500000FFFFFFFFFFE00007C00004000BFA00CD
:1028600000FFFFFFFFFFE0000FE00004001BFB0084
:1028700000FFFFFFFFFFE0001FF00004001BFB0054
:1028800000FFFFFFFFFFE0003FF80004001BFB001C
:1028900000FFFFFFFFFFE0007FFC0004001BFBF8D0
:1028A00000FFFFFFFFFFE000FFFE0004001BFB0432
:1028B00000FFFFFFFFFFE000FFFE0004001BFBFC2A
:1028C00000FFFFFFFFFFE000F83E0004001BFB00DD
:1028D00000FFFFFFFFFFE000F83E0004001BFB00CD
:1028E00000FFFFFFFFFFE000F83E0004001BFB00BD
:1028F00000FFFFFFFFFFE000F83E0004000BFA00BE
:1029000000FFFFFFFFFFE000F83E000400000000B2
:1029100000FFFFFFFFFFE0000000000400000000D8
:1029200000C319A0871BE0000000000400000000A5
:1029300000BEEABBBAEBE0000000000400000000AB
:1029400000BEEABB86EBE0000000000400000000CF
:1029500000BEEABBBAEBE00000000004000000008B
:1029600000C31B3BBB182000000000040000000057
:1029700000FFFFFFFFFFE000000000040000000078
:1029800000FFFFFFFFFFE000000000040000000068
:1029900000FFFFFFFFFFE000000000040000000058
:1029A00000FFFFFFFFFFE000000000040000000048
:1029B00000FFFFFFFFFFE000000000040000000038
:1029C00000FFFFFFFFFFE000000000040000000028
:1029D00000FFFFFFFFFFFFFFFFFFFFFFFFFFFFFF06
:1029E000FF000000000020000000000400000000C4
:1029F00000000000000020000000000400000000B3
:102A0000000003FF0000200003C0000400000000DD
:102A1000000003FF0000200003C0000400000000CD
:102A2000000003FF0000200001C0000400000000BF
:102A3000000003FF0000200000C0000400000000B0
:102A4000000001F000002000004000040000000031
:102A5000000000E0000020007D860004000000006F
:102A600000000040000020007BCE000400000000B9
:102A7000000000000000200073DE000400000000E1
:102A80000000007FC000200061BE000400000000C4
:102A900000000000400020000200000400000000D0
:102AA000000003FFC000200003000004000000003D
:102AB000000002000000200003800004000000006D
:102AC000000003FFC000200003C00004000000005D
:102AD000000000000000200003C00004000000000F
:102AE00000000000000020000000000400000000C2
:102AF00000000000000020000000000400000000B2
:102B000000000000000020000000000400000000A1
:102B10000000000000002000000000040000000091
:102B20000000000000002000000000040000000081
:102B30000000000000002000000000040000000071
:102B40000000000000002000000000040000000061
:102B50000000000000002000000000040000000051
:102B60000000000000002000000000040000000041
:102B700000FFFFFFFFFFFFFFFFFFFFFFFFFFFFFF64
:102B8000FF00000000000000000000000000000046
:102B90000000000000000000000000000000000035
:102BA0000000000000000000000000000000000025
:102BB0000000000000000000000000000000000015
:102BC0000000000000000000000000000000000005
:102BD00000000000000000000000000000000000F5
:102BE00000000000000000000000000000000000E5
:102BF00000000000000000000000000000000000D5
:102C000000000000000000000000000000000000C4
:102C1000004D3130362053323535004D31303620BD
:102C200053300047312058302E312059302E31207A
:102C30005A302E3100473931004D3834004578691B
:102C400074004D3130342053323230005072656898
:102C5000656174004D31303420533000436F6F6C28
:102C6000646F776E00FFFFFFFFFFFFFFFFFFFFFFB7
:102C7000FFFFFFFFFFFFFFFFFE082486087182E8C9
:102C800060FFFFFFFFFFFFFFFFBBEABAFBAEEEEB0B
:102C9000AFFFFFFFFFFFFFFFFFB86A821820EEE8DB
:102CA00021FFFFFFFFFFFFFFFFBBEEBEFB6EEEEB62
:102CB0006FFFFFFFFFFFFFFFFFB82EBE0BAEEF1B46
:102CC000A0FFFFFFFFFFFFFFFFFFFFFFFFFFFFFF73
:102CD000FFFFFFFFFFFFFFFFFFFFFFFFFFFFFFFF04
:102CE000FFFFFFFFFF800000000000000000000069
:102CF0000000000001800000000000000000000053
:102D00000000000001800000000000000000000042
:102D10000000000001800000000000000000000032
:102D20000000000001800E00000000000000000014
:102D300000000000018017000000000000000000FB
:102D40000000000001802F80000000000000000053
:102D50000000000001802F80000000000000000043
:102D60000000000001802F80000000000000000033
:102D70000000000001802FE00000000000000000C3
:102D80000000000001802F80000000000000000013
:102D90000000000001802F80000000000000000003
:102DA0000000000001802F800000000000000000F3
:102DB0000000000001802FE0000000000000000083
:102DC0000000000001802F800000000000000000D3
:102DD0000000000001802F800000000000000000C3
:102DE0000000000001802F800000000000000000B3
:102DF0000000000001802FE0000000000000000043
:102E00000000000001802F80000000000000000092
:102E10000000000001802F80000000000000000082
:102E20000000000001802F80000000000000000072
:102E30000000000001802F80000000000000000062
:102E40000000000001804FC00000000000000000F2
:102E50000000000001809FE0000000000000000072
:102E60000000000001813FF00000000000000000B1
:102E70000000000001817FF0000000000000000061
:102E80000000000001827FF8000000000000000048
:102E9000000000000182FFF80000000000000000B8
:102EA000000000000182FFF80000000000000000A8
:102EB000000000000182FFF8000000000000000098
:102EC000000000000181FFF0000000000000000091
:102ED000000000000181FFF0000000000000000081
:102EE000000000000180FFE0000000000000000082
:102EF000000000000180FFE0000000000000000072
:102F00000000000001807FC0000000000000000001
:102F10000000000001801F00000000000000000011
:102F20000000000001800000000000000000000020
:102F30000000000001800000000000000000000010
:102F40000000000001800000000000000000000000
:102F500000000000018000000000000000000000F0
:102F600000000000018000000000000000000000E0
:102F700000000000018000000000000000000000D0
:102F800000000000018000000000000000000000C0
:102F900000000000018000000000000000000000B0
:102FA00000000000018000000000000000000000A0
:102FB0000000000001800000000000000000000090
:102FC0000000000001800000000000000000000080
:102FD0000000000001800000000000000000000070
:102FE0000000000001800000000000000000000060
:102FF0000000000001800000000000000000000050
:10300000000000000180000000000000000000003F
:10301000000000000180000000000000000000002F
:10302000000000000180000000000000000000001F
:10303000000000000180000000000000000000000F
:1030400000000000018000000000000000000000FF
:103050000000000001FFFFFFFFFFFFFFFFFFFFFF7A
:10306000FFFFFFFFFFF92E2E0020204D61696E004B
:103070004D3234004D3233202573004D3834004733
:1030800031205A3730204631353030004739310051
:103090004732382058205900436172642072656DB0
:1030A0006F766564004361726420696E7365727443
:1030B000656400000000000000001FF80000000030
:1030C00000000000000000000001FFFF8000000081
:1030D0000000000000000000001FFFFFF0000000E3
:1030E0000000000000000000007FFFFFFE00000065
:1030F000000000000000000001FFFFFFFF000000D3
:10310000000000000000000003FFFFFFFFC0000000
:1031100000000000000000000FFFFFFFFFE00000C4
:1031200000000000000000001FFFFFFFFFF800008C
:1031300000000000000000003FFFFFFFFFFC000058
:1031400000000000000000007FFFFFFFFFFE000006
:103150000000000000000000FFFFFC1FFFFF000058
:103160000000000000000001FFFFF81FFFFF8000CB
:103170000000000000000003FFFFF80FFFFF8000C9
:103180000000000000000003FFFFF80FFFFFC00079
:103190000000000000000007FFFFF80FFFFFE00045
:1031A000000000000000000FFFFFF81FFFFFE0001D
:1031B000000000000000000FFFFFF01FFFFFF00005
:1031C000000000000000001FFFFFF01FFFFFF800DD
:1031D000000000000000001FFFFFF01FFFFFF800CD
:1031E000000000000000003FFFFFF01FFFFFF8009D
:1031F000000000000000003FFFFFE0003FFFFC0078
:10320000000000000000003FFFFFE0003FFFFC0067
:10321000000000000000003FFFFFE0001FFFFC0077
:10322000000000000000007FFFFFE0001FFFFE0025
:10323000000000000000007FFFFFE0001FFFFE0015
:10324000000000000000007FFFFFE0003FFFFE00E5
:10325000000000000000007FFFFFC0007FFFFE00B5
:1032600000000000000000FFFFFFC07FFFFFFE0026
:1032700000000000000000FFFFFFC07FFFFFFF0015
:1032800000000000000000FFFFFFC07FFFFFFF0005
:1032900000000000000000FFFFFFC0FFFFFFFF0075
:1032A00000000000000000FFFFFF80FFFFFFFF00A5
:1032B00000000000000000FFFFFF80FFFFFFFF0095
:1032C00000000000000000FFFFFF80FFFFFFFF0085
:1032D00000000000000000FFFFFF80FFFFFFFF0075
:1032E00000000000000000FFFFFF81FFFFFFFF0064
:1032F00000000000000000FFFFFF01FFFFFFFE00D5
:10330000000000000000007FFFFF01FFFFFFFE0044
:10331000000000000000007FFFFF01FFFFFFFE0034
:10332000000000000000007FFFFF01FFFFFFFE0024
:10333000000000000000007FFFFE03FFFFFFFE0013
:10334000000000000000003FFFFE03FFC3FFFC0081
:10335000000000000000003FFFFE03FF81FFFC00B3
:10336000000000000000003FFFFE03FF00FFFC0024
:10337000000000000000003FFFFE03FC00FFF8001B
:10338000000000000000001FFFFE07F000FFF80033
:10339000000000000000001FFFFC000001FFF8001B
:1033A000000000000000000FFFFC000003FFF00021
:1033B000000000000000000FFFFC000007FFE0001D
:1033C0000000000000000007FFFC00000FFFE0000D
:1033D0000000000000000003FFFC00003FFFC000F1
:1033E0000000000000000003FFF80000FFFF800065
:1033F0000000000000000001FFF80007FFFF800050
:103400000000000000000000FFFFFFFFFFFF0000C2
:1034100000000000000000007FFFFFFFFFFE000033
:1034200000000000000000003FFFFFFFFFFC000065
:1034300000000000000000001FFFFFFFFFF8000079
:1034400000000000000000000FFFFFFFFFE0000091
:10345000000000000000000003FFFFFFFFC00000AD
:10346000000000000000000001FFFFFFFF0000005F
:103470000000000000000000007FFFFFFE000000D1
:103480000000000000000000001FFFFFF00000002F
:1034900000000000000000000001FFFF80000000AD
:1034A000000000000000000000001FF80000000005
:1034B0000000004D3834004D313034205330004787
:1034C0003120453130204631303000457869740074
:1034D00052657374617274004D313034205332324E
:1034E0003000473931004578697400473120583140
:1034F000303520593830205A36302046323030307E
:1035000000473238004578697400436F6E74696E05
:103510007565004578697400473120453230204692
:103520003630004739310045786974004D38340031
:10353000473120452D3130302046393000457869FB
:103540007400436F6E74696E7565004D31303420C0
:103550005330004731204531352046333030004765
:1035600039310045786974004D3834004D383400E5
:10357000473120452D35322046313030300047313B
:10358000204532302046333030004578697400439E
:103590006F6E74696E7565004D3130342053323270
:1035A000300047393100457869740047312058317F
:1035B000303520593830205A3630204632303030BD
:1035C00000473238004578697400436F6E74696E45
:1035D0007565004731205A3020463135303000477C
:1035E00031205830205930204634303030004731B7
:1035F000205A3130204631353030004731205A30A2
:10360000204631353030004731205831303520598F
:103610003830204634303030004731205A313020A5
:1036200046313530300052657374617274004578EC
:103630006974004731205A30204631353030004718
:103640003120583020593136302046343030300067
:103650004731205A313020463135303000457869C5
:103660007400436F6E74696E7565004731205A307F
:10367000204631353030004731205832313520591D
:10368000313630204634303030004731205A313026
:10369000204631353030004578697400436F6E74D0
:1036A000696E7565004731205A302046313530301B
:1036B0000047312058313035204634303030004515
:1036C00078697400436F6E74696E7565004D3130B2
:1036D0003420533130300045786974004D31303436
:1036E0002053313030004731205A313020463135B7
:1036F000303000473238004739300045786974006F
:10370000436F6E74696E75650000060900FE060160
:103710008902FE20FFFE07FE06FE000000060007ED
:1037200001060606020080808080008003030306F5
:103730000103A0A0A00507070600FF5050F850F8AD
:1037400050500509090600FE2070A8A07028A87036
:10375000200608080600FF40A84810204854080525
:1037600007070600FF6090906098906801030306C9
:1037700002038080800207070602FF40808080806D
:1037800080400207070602FF80404040404080051D
:1037900005050600008850F850880505050600005C
:1037A0002020F820200204040602FEC040408005CC
:1037B0000101060002F8020202060200C0C004066F
:1037C0000606010010102040808004060606010055
:1037D00060909090906003060606010040C0404053
:1037E00040E00406060601006090102040F0040648
:1037F00006060100F020601010E005060606000035
:1038000010305090F810040606060100F080E01019
:1038100010E00406060601006080E0909060040657
:1038200006060100F01010204040040606060100C4
:1038300060906090906004060606010060909070B1
:103840001060020505060200C0C000C0C0020707E4
:103850000602FEC0C000C04040800505050600000D
:103860001860806018050303060001F800F80505DC
:1038700005060000C0300830C004070706010060DC
:103880009010604000400506060600007090A8B049
:103890008070050606060000205088F88888050616
:1038A00006060000F088F08888F00406060601008D
:1038B000609080809060040606060100E090909081
:1038C00090E0040606060100F080E08080F0040627
:1038D00006060100F080E0808080040606060100F4
:1038E000609080B090600406060601009090F09011
:1038F0009090030606060100E040404040E00506C7
:10390000060600003810101090600406060601003C
:1039100090A0C0A0909004060606010080808080E0
:1039200080F005060606000088D8A8A88888040646
:103930000606010090D0B0909090050606060000A3
:10394000708888888870040606060100E09090E080
:1039500080800407070601FF609090D0B0601004DB
:103960000606060100E09090E0909004060606012D
:1039700000609040209060050606060000F82020B8
:10398000202020040606060100909090909060048C
:103990000606060100909090F0606005060606009D
:1039A000008888A8A8D88805060606000088502048
:1039B0002050880506060600008888502020200434
:1039C0000606060100F010204080F00306060601FE
:1039D00000E080808080E0040606060100808040D0
:1039E000201010030606060100E020202020E0053C
:1039F00003030600032050880501010600FEF802BB
:103A00000202060204804004040406010070909043
:103A1000700406060601008080E09090E004040433
:103A20000601007080807004060606010010107008
:103A300090907004040406010060B0C07004060693
:103A4000060100205040E040400406060601FE60EA
:103A500090907010600406060601008080E090904F
:103A6000900306060601004000C04040E00308083D
:103A70000601FE200060202020A04004060606016A
:103A8000008080A0C0A090030606060100C0404050
:103A90004040E0050404060000D0A8A888040404FF
:103AA000060100E0909090040404060100609090EC
:103AB000600406060601FEE09090E08080040606A1
:103AC0000601FE709090701010040404060100A01E
:103AD000D0808004040406010070C030E0040606B3
:103AE0000601004040E0405020040404060100901C
:103AF0009090700404040601009090606005040436
:103B000006000088A8A85004040406010090606024
:103B1000900406060601FE909090709060040404E4
:103B2000060100F02040F003070706010020404096
:103B3000804040200107070602FF8080808080804F
:103B400080030707060100804040204040800402B7
:103B50000206010350A0FFFFFFFFFFFFFFFFFFFF73
:103B6000FFFFFFFFFFFFFFFFFFFFFFFFFFFFFFFF65
:103B7000FFFFFFFFFFFFFF00000006000701060632
:103B80000602008000808080800406060601FF2077
:103B900070A0A070200507070600FF304840F040E5
:103BA00040F8050505060000A8508850A80506063F
:103BB0000600008850F820F8200107070602FF8061
:103BC0008080008080800407070601FF708060907D
:103BD0006010E0030101060105A0060707060000CA
:103BE000788494A494847803050506010160A0609C
:103BF00000E00505050600002850A0502804030336
:103C0000060100F01010040101060102F00607078A
:103C10000600007884B4A4A4847804010106010598
:103C2000F00403030601026090600507070600FF29
:103C30002020F8202000F803050506010140A020FF
:103C400040E0030505060101C0204020C002020239
:103C500006020440800405050601FF9090B0D08064
:103C600005060606000078E8E86828280101010634
:103C70000202800202020602FE40800305050601E0
:103C80000140C04040E003050506010140A040009E
:103C9000E0050505060000A0502850A0050808060C
:103CA00000FF40C04050703078100508080600FF43
:103CB00040C04050680810380508080600FFC020C2
:103CC0004030F03078100407070601002000206023
:103CD000809060050707060000402020507088880B
:103CE0000507070600001020205070888805070788
:103CF0000600002050205070888805070706000045
:103D000028502050708888050707060000500020C2
:103D100050708888050707060000205020507088E2
:103D20008805060606000078A0F0A0A0B8040808E0
:103D30000601FE6090808090602040040707060125
:103D4000004020F080E080F00407070601002040DA
:103D5000F080E080F00407070601002050F080E0CA
:103D600080F00407070601005000F080E080F003B7
:103D700007070601008040E0404040E003070706D7
:103D800001002040E0404040E003070706010040FA
:103D9000A0E0404040E0030707060100A000E0402B
:103DA0004040E00506060600007048E848487004F8
:103DB000070706010050A090D0B0909004070706B6
:103DC00001004020609090906004070706010020E9
:103DD00040609090906004070706010020506090BA
:103DE00090906004070706010050A06090909060DA
:103DF00004070706010050006090909060050505DB
:103E000006000088502050880408080601FF107042
:103E1000B0B0D0D0E08004070706010040209090A9
:103E200090906004070706010020409090909060F9
:103E30000407070601002050909090906004070747
:103E40000601005000909090906005070706000062
:103E50001020885020202004060606010080E090F3
:103E600090E0800406060601006090A0A090A004E7
:103E700007070601004020007090907004070706B5
:103E80000100204000709090700407070601002098
:103E900050007090907004070706010050A0007059
:103EA0009090700406060601005000709090700417
:103EB000070706010020502070909070050404064A
:103EC000000070A8B0780406060601FE70808070BD
:103ED000204004070706010040200060B0C07004C5
:103EE000070706010020400060B0C0700407070605
:103EF000010020500060B0C07004060606010050AA
:103F00000060B0C070030707060100804000C04099
:103F100040E0030707060100204000C04040E003E6
:103F2000070706010040A000C04040E00306060667
:103F30000100A000C04040E0040707060100306017
:103F4000107090906004070706010050A000E090F8
:103F500090900407070601004020006090906004E4
:103F600007070601002040006090906004070706E4
:103F70000100205000609090600407070601005087
:103F8000A00060909060040606060100500060905A
:103F900090600505050600002000F80020040404D8
:103FA00006010070B0D0E0040707060100402000C1
:103FB00090909070040707060100204000909090B8
:103FC00070040707060100205000909090700406CE
:103FD000060601005000909090700409090601FE49
:103FE0002040009090907090600408080601FE80C8
:103FF00080E09090E080800408080601FE50009068
:10400000909070906000060900FE070199032B2034
:10401000FFFE08FE07FE000000060000010707067D
:10402000020080808080800080030303060104A0DA
:10403000A0A00507070600005050F850F8505005A2
:1040400007070600002070A07028702005070706EB
:10405000000048A8502050A890050707060000401F
:10406000A0A040A89068010303060204808080039A
:1040700007070601002040808080402003070706D4
:1040800001008040202020408005050506000188B1
:1040900050F850880505050600012020F82020036F
:1040A00003030601FF604080050101060003F803D9
:1040B00003030601FF40E04005070706000008086B
:1040C000102040808005070706000020508888885F
:1040D00050200507070600002060A0202020F805DA
:1040E0000707060000708808304080F805070706BB
:1040F0000000F80810300888700507070600001057
:10410000305090F81010050707060000F880B0C87E
:10411000088870050707060000304080B0C8887026
:10412000050707060000F8081010204040050707A3
:1041300006000070888870888870050707060000F0
:10414000708898680810600307070601FF40E04088
:104150000040E0400307070601FF40E040006040E8
:10416000800407070601001020408040201005034E
:1041700003060002F800F80407070601008040204B
:1041800010204080050707060000708810202000DE
:1041900020050707060000708898A8B08070050702
:1041A0000706000020508888F88888050707060061
:1041B00000F04848704848F005070706000070887E
:1041C0008080808870050707060000F0484848484E
:1041D00048F0050707060000F88080F08080F805A9
:1041E0000707060000F88080F0808080050707063A
:1041F0000000708880809888700507070600008896
:104200008888F8888888030707060100E040404056
:104210004040E005070706000038101010109060BD
:104220000507070600008890A0C0A0908805070732
:10423000060000808080808080F805070706000067
:104240008888D8A88888880507070600008888C855
:10425000A8988888050707060000708888888888DD
:1042600070050707060000F08888F0808080050848
:10427000080600FF7088888888A870080507070668
:104280000000F08888F0A0908805070706000070FD
:10429000888070088870050707060000F820202035
:1042A00020202005070706000088888888888870F5
:1042B000050707060000888888505050200507072A
:1042C000060000888888A8A8D88805070706000087
:1042D0008888502050888805070706000088885085
:1042E00020202020050707060000F8081020408045
:1042F000F8030707060100E08080808080E0050762
:104300000706000080804020100808030707060108
:1043100000E02020202020E00503030600042050B8
:10432000880501010600FFF802020206020680402D
:10433000050505060000700878887805070706005F
:10434000008080B0C888C8B00505050600007088E8
:104350008088700507070600000808689888986834
:104360000505050600007088F8807005070706003F
:1043700000304840F04040400507070600FE7888BE
:1043800088780888700507070600008080B0C88814
:1043900088880307070601004000C0404040E00451
:1043A00009090601FE1000301010109090600507FA
:1043B0000706000080808890E090880307070601C8
:1043C00000C04040404040E0050505060000D0A880
:1043D000A8A888050505060000B0C88888880505D6
:1043E0000506000070888888700507070600FEB083
:1043F000C888C8B080800507070600FE68988898BE
:10440000680808050505060000B0C880808005051D
:104410000506000070807008F005070706000040E0
:1044200040F040404830050505060000888888981F
:10443000680505050600008888505020050505061A
:1044400000008888A8A850050505060000885020AF
:1044500050880507070600FE888898680888700558
:104460000505060000F8102040F8040707060100C3
:10447000304020C0204030010707060200808080C5
:1044800080808080040707060100C0204030402063
:10449000C005030306000448A890000000010000C6
:1044A0000000000100000000000100000000000109
:1044B00000000000000100000000000100000000FA
:1044C00000010000000000010000000000010000E9
:1044D00000000001000000000001000000000001D9
:1044E00000000000000100000000000100000000CA
:1044F00000010000000000010000000000010000B9
:1045000000000001000000000001000000000001A8
:104510000000000000010000000000010000000099
:104520000001000000000001000000000001000088
:104530000000000100000000000100000000000178
:104540000000000000010000000000010000000069
:104550000001000000000001000000000001000058
:1045600000000006000001070706020080008080AE
:104570008080800507070600FF2078A0A0A0782093
:10458000050707060000304840E04048B005050533
:1045900006000088705070880508080600FF8888AB
:1045A0005020F820202001070706020080808000AC
:1045B0008080800508080600FF7080E09048380879
:1045C00070030101060107A00507070600007088B7
:1045D000A8C8A888700406060601017090B05000B3
:1045E000F00605050600002448904824040202064F
:1045F0000102F010040101060103F005070706009F
:10460000007088E8C8C88870050101060007F80333
:10461000030306010440A040050606060000202012
:10462000F82020F804050506010360902040F004FE
:104630000505060103E0106010E002020206020612
:1046400040800506060600FF888888C8B0800507F8
:104650000706000078E8E86828282801010106021A
:1046600003800202020602FE4080030505060103E4
:1046700040C04040E00406060601016090906000E2
:10468000F006050506000090482448900609090632
:1046900000FF40C04040E40C143C04060909060039
:1046A000FF40C04040E81404081C0509090600FF4B
:1046B000C0204020C81828780805070706000020F9
:1046C00000202040887005080806000040207088FF
:1046D00088F888880508080600001020708888F887
:1046E00088880508080600002050708888F88888A7
:1046F00005080806000048B0708888F88888050812
:10470000080600005000708888F8888805080806A8
:1047100000002050708888F8888806070706000087
:104720003C50909CF0909C0509090600FE70888022
:1047300080808870204005080806000040F88080CE
:10474000F08080F805080806000010F88080F080EE
:1047500080F805080806000020F88080F08080F8C6
:1047600005080806000050F88080F08080F80308F3
:10477000080601008040E040404040E00308080691
:1047800001002040E040404040E0030808060100EE
:1047900040A0E040404040E0030808060100A000BF
:1047A000E040404040E0050707060000F04848E8C8
:1047B0004848F0050808060000285088C8A89888CE
:1047C00088050808060000402070888888887005E1
:1047D000080806000010207088888888700508087E
:1047E0000600002050708888888870050808060038
:1047F00000285070888888887005080806000050D6
:10480000007088888888700505050600008850209B
:104810005088050707060000709898A8C8C870055A
:1048200008080600004020888888888870050808E5
:10483000060000102088888888887005080806000F
:1048400000205000888888887005080806000050FD
:10485000008888888888700508080600001020886D
:10486000885020202005070706000080F088F0808F
:104870008080050707060000708890A09088B0052A
:1048800008080600004020007008788878050808AD
:1048900006000010200070087888780508080600D7
:1048A0000020500070087888780508080600002865
:1048B00050007008788878050707060000500070DF
:1048C00008788878050808060000205020700878CD
:1048D000887806050506000078147C907C0507079B
:1048E0000600FE70888088702040050808060000D9
:1048F0004020007088F8807005080806000010202D
:10490000007088F8807005080806000020500070CC
:1049100088F8807005070706000050007088F8804E
:1049200070030808060100804000C0404040E003DA
:104930000808060100408000C0404040E00308082D
:1049400006010040A000C0404040E0060A0A060000
:10495000FEA4A800FC8480808084FC060A0A06006D
:10496000FE549400FC8404040484FC05080806003A
:1049700000285000B0C88888880508080600004054
:1049800020007088888870040A0A0602FE30408081
:1049900090909090909090040A0A0600FEC020101B
:1049A00090909090909090060707060001448C8CA0
:1049B0008480403C06070706000188C4C4840408BC
:1049C000F00505050600012000F80020050808068E
:1049D000000040F0C8888898781005080806000094
:1049E000E0F88888888888F80505050600012030E9
:1049F000F830200508080600002070F8202020204C
:104A0000E00509090600FF2070A8A8B88888502092
:104A10000509090600FFE080C0B0A8A830282805D5
:104A200009090600FFF8A88888888888A8F8050A78
:104A30000A0600FE205050505088A8A8887000092F
:104A40001200FC0A01E803D720FFFD0EFD0BFD005C
:104A5000000009000E010B0B09040080808080809B
:104A600080800000808004040409030790909090E7
:104A7000080A0A090000242424FF2424FF242424F3
:104A8000070B0B0901FF107C929050381412927C96
:104A900010070A0A09010042A4A4481010244A4A37
:104AA00084070A0A090100609090906062948894DB
:104AB0006201040409040780808080030C0C090350
:104AC000FF204040808080808080404020030C0C8C
:104AD0000903FF8040402020202020204040800704
:104AE0000707090103109254385492100707070969
:104AF0000101101010FE1010100204040904FEC081
:104B0000C04080070101090104FE020202090400FD
:104B1000C0C0070A0A09010002040408101020405E
:104B20004080070A0A090100384482828282828218
:104B30004438070A0A090100103050901010101074
:104B400010FE070A0A0901003844820204081020F6
:104B500040FE070A0A090100FE02040818040202C6
:104B60008478070A0A090100040C14244484FE0412
:104B70000404070A0A090100FE808080F80402028A
:104B80008478070A0A0901003C408080B8C4828208
:104B90004438070A0A090100FE020404080810103C
:104BA0001010070A0A0901003844824438448282FE
:104BB0004438070A0A09010038448282463A020250
:104BC0000478020707090400C0C0000000C0C0024A
:104BD00009090904FEC0C0000000C0C040800509EA
:104BE0000909020008102040804020100807040432
:104BF000090102FE0000FE050909090200804020AB
:104C0000100810204080070A0A0901003844820277
:104C1000040810100010070A0A09010038449AAA73
:104C2000AAAAAA9C403C070A0A09010010282828C1
:104C3000447C44828282070A0A090100F884828443
:104C4000F884828284F8070A0A0901003C428080C5
:104C500080808080423C070A0A090100F884828231
:104C60008282828284F8070A0A090100FE8080801D
:104C7000F880808080FE070A0A090100FE8080809B
:104C8000F88080808080070A0A0901003844828009
:104C9000808E82824438070A0A0901008282828259
:104CA000FE8282828282050A0A090200F820202000
:104CB0002020202020F8070A0A0901003E080808E1
:104CC000080808888870070A0A0901008284889009
:104CD000A0D088848282070A0A090100808080802F
:104CE0008080808080FE070A0A0901008282C6AAAD
:104CF000928282828282070A0A0901008282C2A20B
:104D0000928A86828282070A0A0901007C82828254
:104D100082828282827C070A0A090100F8848282E8
:104D200084F880808080080B0B0901FF3844828260
:104D30008282828A443A01070A0A090100F88482C1
:104D40008284F890888482070A0A0901007C8280A4
:104D5000807C020202827C070A0A090100FE101010
:104D600010101010101010070A0A09010082828228
:104D700082828282824438070A0A09010082828282
:104D800044444428282810070A0A09010082828224
:104D90008292929292AA44070A0A090100828244EE
:104DA00028101028448282070A0A090100828244DE
:104DB00028101010101010070A0A090100FE020442
:104DC000081020408080FE040C0C0903FFF0808056
:104DD0008080808080808080F0070A0A090100803E
:104DE000404020101008040402040C0C0902FFF0DB
:104DF00010101010101010101010F007040409010A
:104E000006102844820801010900FFFF030303097B
:104E1000030A8040200707070901007C02027E8206
:104E2000867A070A0A090100808080BCC2828282D9
:104E3000C2BC0707070901007C82808080827C0752
:104E40000A0A0901000202027A86828282867A07B1
:104E500007070901007C8282FE80827C070A0A091A
:104E600001001C22222020F820202020070A0A0905
:104E700001FD7A84848478807C82827C070A0A0916
:104E80000100808080BCC28282828282050A0A0977
:104E90000200600000E02020202020F8050D0D0910
:104EA00002FD1800003808080808080888887007FC
:104EB0000A0A090100808080848890B0C884820535
:104EC0000A0A090200E02020202020202020F807E4
:104ED0000707090100EC9292929292820707070954
:104EE0000100BCC282828282820707070901007C1E
:104EF00082828282827C070A0A0901FDB8C482820A
:104F000082C4B8808080070A0A0901FD3A4682827D
:104F100082463A0202020707070901009C624240EA
:104F20004040400707070901007C82807C02827CA8
:104F30000709090901002020FC20202020221C074D
:104F400007070901008282828282867A07070709A1
:104F500001008282444428281007070709010082C3
:104F600082929292AA4407070709010082442810FE
:104F7000284482070A0A0901FD4242242424181801
:104F8000109060070707090100FE0408102040FE8A
:104F9000060B0B0902001C20202020C0202020200E
:104FA0001C010C0C0904FF80808080808080808040
:104FB000808080060B0B090100E0101010100C100F
:104FC000101010E007030309010762928CFFFFFF36
:104FD000FFFFFFFFFFFFFFFFFFFFFFFFFFFFFFFFE1
:104FE000FFFFFFFFFFFFFFFFFFFFFFFFFFFF0000CF
:104FF0000009000E010B0B09040080800000808076
:10500000808080808006080809010008789490A0BC
:10501000A47840070A0A0901001C222020F8202059
:1050200060A25C070606090103827C44447C820777
:105030000A0A090100828244287C107C10101001A9
:105040000B0B0904FF80808080800080808080803E
:10505000040B0B0902FF60908060909090601090AC
:105060006003020209030BA0A00809090900013C22
:105070004299A5A1A599423C050707090103609043
:1050800070907800F80708080901011224489090F0
:10509000482412060404090102FC04040405010169
:1050A000090204F80809090900013C42B9A5BDA993
:1050B000A5423C060101090109FC04040409030698
:1050C00060909060070909090101101010FE10108E
:1050D0001000FE0406060901046090106080F004D0
:1050E0000606090104609020109060030303090381
:1050F0000A2040800709090901FE8282828282C655
:10510000BA8080070A0A0901007E8A8A8A7A0A0A16
:105110000A0A0A020202090404C0C00403030902C5
:10512000FD20906003060609010440C0404040E0B5
:105130000506060901047088887000F80708080948
:1051400001019048241212244890070A0A0901001C
:1051500040C0404042E60A121A06070A0A09010046
:1051600040C040404CF2020C101E070A0A09010020
:105170006090201092660A121A06070A0A090100B6
:105180001000101020408082827C070E0E09010062
:105190002010080010282828447C44828282070EB0
:1051A0000E0901000810200010282828447C4482A1
:1051B0008282070E0E0901001028440010282828BA
:1051C000447C44828282070D0D090100345800108E
:1051D000282828447C44828282070D0D090100287A
:1051E000280010282828447C44828282070E0E0959
:1051F00001001028281010282828447C448282822C
:10520000070A0A0901001E2828284E784888888E37
:10521000070D0D0901FD3C42808080808080423C6A
:10522000082418070E0E09010020100800FE8080D7
:1052300080F880808080FE070E0E09010008102093
:1052400000FE808080F880808080FE070E0E0901BD
:105250000010284400FE808080F880808080FE0757
:105260000D0D090100282800FE808080F8808080D4
:1052700080FE050E0E09020040201000F8202020BC
:105280002020202020F8050E0E09020010204000EA
:10529000F82020202020202020F8050E0E090200F2
:1052A00020508800F82020202020202020F8050D04
:1052B0000D090200505000F820202020202020203E
:1052C000F8070A0A09010078444242F24242424485
:1052D00078070D0D0901003458008282C2A2928A1B
:1052E00086828282070E0E090100201008007C824F
:1052F000828282828282827C070E0E09010008105F
:1053000020007C82828282828282827C070E0E0949
:105310000100102844007C82828282828282827C08
:10532000070D0D0901003458007C8282828282823E
:1053300082827C070D0D0901002828007C82828270
:1053400082828282827C0707070901018244281039
:10535000284482070C0C0901FF027C868A8A9292FB
:10536000A2A2C27C80070E0E090100201008008254
:10537000828282828282824438070E0E09010008EE
:1053800010200082828282828282824438070E0E3E
:105390000901001028440082828282828282824433
:1053A00038070D0D0901002828008282828282823E
:1053B00082824438070E0E09010008102000828204
:1053C0004428101010101010070A0A0901008080EC
:1053D000FC828282FC808080060A0A09010038442F
:1053E0004448D04844444458070B0B09010020109E
:1053F00008007C02027E82867A070B0B09010008F6
:105400001020007C02027E82867A070B0B090100C5
:10541000102844007C02027E82867A070A0A09016B
:10542000003458007C02027E82867A070A0A09014B
:10543000002828007C02027E82867A070C0C090173
:105440000010282810007C02027E82867A07070757
:105450000901006C12127E90926C070A0A0901FD84
:105460007C82808080827C104830070B0B09010011
:10547000201008007C8282FE80827C070B0B0901D1
:1054800000081020007C8282FE80827C070B0B09C2
:105490000100102844007C8282FE80827C070A0A78
:1054A0000901002828007C8282FE80827C050C0C89
:1054B0000902008040200000E02020202020F80584
:1054C0000C0C0902001020400000E02020202020C9
:1054D000F8050C0C0902002050880000E020202074
:1054E0002020F8050B0B09020050500000E020209E
:1054F000202020F8070B0B090100483050083C44DD
:105500008282824438070A0A090100345800BCC26A
:105510008282828282070B0B090100201008007C26
:1055200082828282827C070B0B0901000810200016
:105530007C82828282827C070B0B09010010284446
:10554000007C82828282827C070A0A090100345828
:10555000007C82828282827C070A0A090100282854
:10556000007C82828282827C07090909010010384E
:105570001000FE001038100709090901FF027C8A9B
:105580008A92A2A27C80070B0B0901004020100028
:105590008282828282867A070B0B09010008102022
:1055A000008282828282867A070B0B090100102812
:1055B00044008282828282867A070A0A09010028D0
:1055C00028008282828282867A070E0E0901FD04FB
:1055D00008100042422424241818109060070B0B76
:1055E0000901FE8080B8C4828282C4B88080070D21
:1055F0000D0901FD2424004242242424181810908F
:105600006000002100240027002A002D0030003314
:105610000001010000040107010A01000022002529
:105620000028002B002E003100340002010000058C
:105630000108010B01000020002300260029002C96
:10564000002F0032000001000003010601090105DE
:10565000050505070508080808020202020A0A08EB
:105660000804040404010101010101010103030311
:105670000303030303040707070C0C0C0C0C0C0CAE
:105680000C0202020206060606060606060B0B0BB5
:105690000B0B0B0B0B0102102020080810204010F0
:1056A00020408002010201080402010102040810E6
:1056B0002040808040201008040201800402018004
:1056C000402010080402010804020101020408102D
:1056D00020408001020408102040800000090A02D6
:1056E000080B0C0D07060304010000000000000079
:1056F00000000000000000000000000000000000AA
:105700000000000000000011100F00000000000069
:105710000000000000000000000000000000000089
:1057200000494E46494E4954594E414ECDCCCC3D90
:105730000AD7233C17B7D13877CC2B329595E6247E
:105740001FB14F0A000020410000C84200401C4623
:1057500020BCBE4CCA1B0E5AAEC59D740646B3484B
:1057600082C019E0AE4811241FBECFEFD1E2DEBFE8
:10577000CDBF00E00CBF19E0A0E0B2E0E2E0F9ED3F
:1057800001E00BBF02C007900D92AC30B107D9F712
:105790001BBE19E1ACE0B9E001C01D92AF37B10703
:1057A000E1F717E5C4E6D7E504C02297FE010E94A1
:1057B00027ECCC35D107C9F70E9443E50C9475EC72
:1057C0000C940000A0E0B0E0E8EEFBE20C9444ECA6
:1057D000EC015B016115710519F0FB019183808378
:1057E000F9908F2D90E00E942BEC892BC9F7FDE2F8
:1057F000FF1621F4F990EE24E39405C02BE2F21693
:1058000009F4F990EE248E0101501040C80161E2C4
:1058100077E543E050E069D2892BF9F48E010E5F01
:105820001F4FC80164E277E545E050E05ED2892B66
:1058300019F48E01095F1F4FA114B10419F0F5018D
:1058400011830083E0FC04C070E090E080E813C0A6
:1058500070E090E080E86FEF07C1C80169E277E58A
:1058600043E050E042D2892B69F4A114B10429F439
:1058700070E090E080EC6FE7F7C02296F501D183ED
:10588000C083F6CF8824992440E050E060E070E0C7
:10589000EF2DE053EA30A0F5F2E0EF2A8E2D90E0F4
:1058A0009C0128703070E2FE06C0232B79F5089425
:1058B000811C911C2BC0232B19F00894810891089E
:1058C000DB01CA0112E0880F991FAA1FBB1F1A959E
:1058D000D1F7480F591F6A1F7B1F440F551F661FC2
:1058E000771F4E0F511D611D711D483929E952075F
:1058F00029E9620729E1720748F084E0E82A06C036
:10590000EE3F31F4E3FC39C098E0E92AF990C0CFCA
:10591000E53311F0E53189F529912D3219F4E0E1F3
:10592000EE2A05C02B3219F081E090E003C02991E6
:1059300082E090E0E22FE053EA3018F0C81BD90B68
:105940001CC020E030E0FCE020383F075CF4C901D7
:10595000880F991F880F991F280F391F220F331F97
:105960002E0F311DE991E053EA3068F3E4FE03C0E5
:10597000309521953F4F820E931ECE2CDD24E1FE03
:1059800007C0A114B10421F02197F501D183C08390
:10599000CB01BA010E949BE77B018C01F3E0CF228F
:1059A000DD2423E0C216D10421F417FB109517F96A
:1059B000109557016801C801B70120E030E040E0D0
:1059C00050E00E94FBE6882309F44AC097FE0DC010
:1059D00020E4E22E27E5F22E90948194910893948E
:1059E000C0E2D0E000E010E012C098E5E92E97E5B3
:1059F000F92EF6CFF7012591359145915491C601C5
:105A0000B5010E94DBE95B016C018C1A9D0A8C16C2
:105A10009D0684F7D595C7950F5F1F4F063011057A
:105A200029F08CEF9FEFE80EF91EF1CFC501D601EA
:105A30007C018D018C2D880F8D2D881F8F3F51F09B
:105A4000C601B50120E030E040E050E00E94FBE6F6
:105A5000882331F482E290E090937E1980937D193F
:105A60007E2D9F2D802F612F272F392F482F562FC6
:105A7000B901CA01CDB7DEB7ECE00C9460EC2F920F
:105A80003F925F926F927F928F929F92AF92BF925E
:105A9000CF92DF92EF92FF920F931F93CF93DF93FA
:105AA0008C011B01EA016115710519F0FB0191835D
:105AB0008083209749F0CE010297839728F020E059
:105AC00030E040E050E0F6C0F801A1908F018A2D4F
:105AD00090E00E942BEC892BB9F7FDE2AF1631F470
