:100000000C94440B0C94710B0C94710B0C94710BAD
:100010000C94710B0C94710B0C94710B0C94710B70
:100020000C94710B0C94710B0C94710B0C94710B60
:100030000C94710B0C94710B0C94710B0C94710B50
:100040000C94710B0C94AB980C94710B0C94710B79
:100050000C94710B0C94710B0C9466A40C94DAAD97
:100060000C94710B0C94951B0C94710B0C94710BEC
:100070000C94710B0C94710B0C94710B0C94710B10
:100080000C94710B0C94710B0C94710B0C94710B00
:100090000C94710B0C94710B0C94710B0C94710BF0
:1000A0000C94710B0C94710B0C94710B0C94710BE0
:1000B0000C94710B0C94710B0C94710B0C94710BD0
:1000C0000C94710B0C94710B0C94710B0C94710BC0
:1000D0000C94710B0C94710B0C94710B0C94710BB0
:1000E0000C94710B084AD73B3BCE016E84BCBFFD1C
:1000F000C12F3D6C74319ABD56833DDA3D00C77FF8
:1001000011BED9E4BB4C3E916BAAAABE0000008090
:100110003F05A84CCDB2D44EB93836A9020C50B91F
:10012000918688083CA6AAAA2ABE000000803F65E6
:1001300063686F3A0043616E6E6F7420656E74651C
:1001400072207375626469723A004572726F723A16
:10015000006572726F722077726974696E672074BD
:100160006F2066696C65004E6F7420534420707276
:10017000696E74696E67002F005344207072696E57
:1001800074696E67206279746520002E0044656C86
:100190006574696F6E206661696C65642C204669C0
:1001A0006C653A200046696C652064656C65746511
:1001B000643A002E006F70656E206661696C65643C
:1001C0002C2046696C653A200057726974696E6725
:1001D00020746F2066696C653A20002E006F706590
:1001E0006E206661696C65642C2046696C653A20F6
:1001F000002E006F70656E206661696C65642C204E
:1002000046696C653A200046696C652073656C65CB
:1002100063746564002053697A653A0046696C65C9
:10022000206F70656E65643A002E006F70656E20F9
:100230006661696C65642C2046696C653A200053E0
:10024000442063617264206F6B006F70656E526F43
:100250006F74206661696C656400766F6C756D659E
:100260002E696E6974206661696C65640053442070
:10027000696E6974206661696C0043617264207202
:10028000656D6F766564004361726420696E7365A5
:1002900072746564004572726F723A00536F6D65D7
:1002A0007468696E672069732077726F6E67206962
:1002B0006E20746865204D656E7553747275637435
:1002C0007572652E00204E6F2043617264002050CD
:1002D00072696E742066726F6D2053442020202056
:1002E0007E002053746F70205072696E742020203D
:1002F0007E0020526573756D65205072696E7420A2
:1003000020207E00205061757365205072696E74E4
:100310002020207E0020436F6E74726F6C207E0060
:100320002054756E65207E002054656D7065726185
:1003300074757265207E00204D6F6E69746F722037
:100340004D6F64652003002000045265667265737A
:100350006800204D61696E2003002046616E2073A5
:10036000706565643A00204D6F7665204178697349
:100370002020202020207E002044697361626C656B
:10038000204D6F746F72730020486F6D6520416C53
:100390006C204178697300204D61696E2003002054
:1003A0004573746570732F6D6D3A00205A737465D0
:1003B00070732F6D6D3A00205973746570732F6DD3
:1003C0006D3A00205873746570732F6D6D3A00306C
:1003D000300030300020412D726574726163743AD0
:1003E00000303000303000653A007A3A00793A0047
:1003F000783A0020416D6178200020565472617671
:10040000206D696E3A0020566D696E3A00653A00BB
:100410007A3A00793A00783A0020566D61782000E7
:10042000205678792D6A65726B3A200030300030A2
:100430003000204163633A0020436F6E74726F6C2A
:10044000200300205049442D433A200020504944C5
:100450002D443A2000205049442D493A2000205094
:1004600049442D503A20002046616E207370656526
:10047000643A0020024265643A004F6666004F6E9F
:1004800020004F6666004F6E2000204175746F7427
:10049000656D703A00200220466163743A002002C4
:1004A000204D61783A002002204D696E3A0020020A
:1004B0004E6F7A7A6C653A0020436F6E74726F6C7F
:1004C000200300205A3A0020466C6F773A002046FD
:1004D000616E2073706565643A0020024265643A7B
:1004E0000020024E6F7A7A6C653A00205370656581
:1004F000643A00204D61696E2003002052657472D9
:1005000061637400204578747275646500205A3AFE
:100510000020593A0020583A0020436F6E74726FE1
:100520006C20030020024265643A0020024E6F7A7C
:100530007A6C653A0020436F6F6C646F776E0020B1
:1005400050726568656174204142530020507265A5
:100550006865617420504C4100204D61696E200334
:100560000025004C6974746F2052656164792E0017
:10057000006D00682000422D2D2D2F2D2D2D0120E6
:1005800000022D2D2D2F2D2D2D0120004C6974746E
:100590006F2052656164792E0053544F505045448A
:1005A0002E20005072696E7465722073746F7070C3
:1005B00065642064657520746F206572726F727354
:1005C0002E2046697820746865206572726F7220EB
:1005D000616E6420757365204D39393920746F2040
:1005E00072657374617274212E202854656D706574
:1005F0007261747572652069732072657365742EFB
:1006000020536574206974206265666F726520727C
:10061000657374617274696E6729004B494C4C456F
:10062000442E20005072696E7465722068616C748B
:1006300065642E206B696C6C28292063616C6C6585
:1006400064202121006F6B00526573656E643A006F
:100650006563686F3A002200556E6B6E6F776E208F
:10066000636F6D6D616E643A22007A5F6D61783AF6
:10067000007A5F6D696E3A00795F6D61783A007952
:100680005F6D696E3A00785F6D61783A00785F6DF2
:10069000696E3A005A3A00593A0020436F756E74F9
:1006A00020583A00453A005A3A00593A00583A0060
:1006B0004649524D574152455F4E414D453A4D6175
:1006C000726C696E2056313B20537072696E74658E
:1006D000722F6772626C206D617368757020666F2F
:1006E000722067656E36204649524D574152455F2C
:1006F00055524C3A687474703A2F2F7777772E746E
:10070000696E6B6572696E65732E636F6D205052F2
:100710004F544F434F4C5F56455253494F4E3A3119
:100720002E30204D414348494E455F545950453A7B
:100730004C6974746F2045585452554445525F4378
:100740004F554E543A310A0042656420646F6E651D
:100750002E0020423A0020453A00543A0042656497
:100760002048656174696E672E0048656174696E22
:100770006720646F6E652E0020573A0020453A00CE
:10078000543A0048656174696E672E2E2E00204031
:100790003A00202F0020423A00202F006F6B205497
:1007A0003A00456E642066696C65206C697374005C
:1007B000426567696E2066696C65206C69737400B8
:1007C0004E6F206D6F76652E005761697420666FDD
:1007D0007220757365722E2E2E00446F6E65207028
:1007E00072696E74696E672066696C650053544F58
:1007F000505045442E20005072696E74657220730B
:10080000746F707065642064657520746F20657204
:10081000726F72732E204669782074686520657245
:10082000726F7220616E6420757365204D3939399D
:1008300020746F2072657374617274212E202854A5
:10084000656D70657261747572652069732072657B
:100850007365742E20536574206974206265666F19
:1008600072652072657374617274696E6729006FB6
:100870006B004E6F204C696E65204E756D6265721F
:10088000207769746820636865636B73756D2C20CD
:100890004C617374204C696E653A004E6F2043685A
:1008A00065636B73756D2077697468206C696E651C
:1008B000206E756D6265722C204C617374204C69DA
:1008C0006E653A00636865636B73756D206D69735F
:1008D0006D617463682C204C617374204C696E6583
:1008E0003A004C696E65204E756D626572206973C1
:1008F000206E6F74204C617374204C696E65204EBD
:10090000756D6265722B312C204C617374204C69BB
:100910006E653A00446F6E6520736176696E67207C
:1009200066696C652E006F6B002020506C616E6EE6
:10093000657242756666657242797465733A200025
:100940002046726565204D656D6F72793A200054BE
:10095000696E6B6572696E65735F562B00207C2033
:10096000417574686F723A2000323031332D313165
:100970002D313200204C61737420557064617465B0
:10098000643A2000312E322E322D42204C6974748C
:100990006F2054532D62657461004D61726C696EF5
:1009A000200020536F66747761726520526573650D
:1009B0007400205761746368646F672052657365C3
:1009C00074002042726F776E206F757420526573C9
:1009D0006574002045787465726E616C2052657391
:1009E000657400506F77657255700073746172742E
:1009F000002200656E717565696E6720220065636F
:100A0000686F3A0020746F6F206C6F6E6720657896
:100A100074727573696F6E2070726576656E746539
:100A2000640020636F6C6420657874727573696FFD
:100A30006E2070726576656E746564007C3C3E5E07
:100A40002B3D3F2F5B5D3B2C2A225C0052656C6581
:100A5000617365642E0024F404D9201BC40C5C0E61
:100A60009804C4095F0265077101F405F900FB04ED
:100A7000B30048048700C10369005803550003030D
:100A80004500BE023A008402310053022A002902C6
:100A9000250004022000E4011C00C8011900AF0178
:100AA0001700980114008401130071011000610106
:100AB000100051010E0043010D0036010B002B0107
:100AC0000B0020010B00150109000C0109000301B6
:100AD0000800FB000800F3000800EB000700E4003A
:100AE0000600DE000600D8000600D2000600CC009A
:100AF0000500C7000500C2000500BD000400B900E4
:100B00000400B5000400B1000400AD000400A90019
:100B10000400A5000300A20003009F0004009B0046
:100B2000030098000300950002009300030090006A
:100B300003008D0002008B00030088000200860085
:100B4000020084000300810002007F0002007D009B
:100B500002007B00020079000200770001007600AD
:100B600002007400020072000100710002006F00B8
:100B700002006D0001006C0002006A0001006900C3
:100B800002006700010066000100650001006400CA
:100B900002006200010061000100600001005F00CE
:100BA00002005D0001005C0001005B0001005A00D2
:100BB00001005900010058000100570001005600D3
:100BC00001005500010054000100530000005300D3
:100BD00001005200010051000100500001004F00CF
:100BE00001004E0000004E0001004D0001004C00CD
:100BF00001004B0000004B0001004A0001004900C9
:100C000001004800000048000100470001004600C4
:100C100000004600010045000000450001004400BE
:100C200001004300000043000100420000004200B8
:100C300001004100000041000100400001003F00B0
:100C400000003F0001003E0000003E0001003D00AA
:100C500000003D0001003C0000003C0000003C00A2
:100C600001003B0000003B0001003A0000003A0098
:100C70000100390000003900010038000000380090
:100C80000000380001003700000037000100360086
:100C9000000036000000360001003500000035007D
:100CA0000000350001003400000034000000340072
:100CB0000100330000003300000033000100320067
:100CC000000032000000320001003100000031005D
:100CD0000000310001003000000030000000300052
:100CE00001002F0000002F0000002F0000002F0047
:100CF00001002E0000002E0000002E0001002D003B
:100D000000002D0000002D0000002D0001002C002F
:100D100000002C0000002C0000002C0001002B0023
:100D200000002B0000002B0000002B0001002A0017
:100D300000002A0000002A0000002A00010029000B
:100D400000002900000029000000290000002900FF
:100D500001002800000028000000280000002800F2
:100D600000002800010027000000270000002700E5
:100D700000002700000027000100260000002600D8
:100D800000002600000026000000260001002500CB
:100D900000002500000025000000250000002500BF
:100DA00000002500010024000000240000002400B1
:100DB00000002400000024000100230000002300A4
:100DC0000000230000002300000023000000230097
:100DD0000000230001002200000022000000220089
:100DE000000022000000220000002200010021007B
:100DF000000021000000210000002100000021006F
:100E0000000021000000210001002000000020005F
:100E10000000200000002000000020000000200052
:100E2000000020000000200001001F0000001F0043
:100E300000001F0000001F0000001F0000001F0036
:100E400000001F0001001E0000001E0000001E0028
:100E500000001E00000024F4D43050C38E20C2A233
:100E60004017828B7011127A910D816CD90AA8619A
:100E7000E108C7586607615143061E4B5D05C14531
:100E8000A7041A411104093D980371393103403612
:100E9000DB0265339102D4305402802E1D02632C94
:100EA000EE01752AC501B028A001102781018F2508
:100EB00064012B244B01E0223401AC211F018D2061
:100EC0000D01801FFC00841EED00971DDF00B81C83
:100ED000D200E61BC600201BBC00641AB200B21987
:100EE000A8000A19A0006A189900D11791004017AC
:100EF0008B00B516840031167E00B31579003A15C3
:100F00007300C7146F0058146A00EE13660088134C
:100F1000630025135E00C7125B006C1257001512A8
:100F20005400C111510070114F0021114B00D61017
:100F300049008D1047004610440002104200C00FC7
:100F40004000800F3E00420F3C00060F3B00CB0EDE
:100F50003800930E37005C0E3500270E3400F30D79
:100F60003200C10D3100900D3000600D2E00320DA9
:100F70002D00050D2C00D90C2B00AE0C2900850C82
:100F800029005C0C2700350C27000E0C2600E80B0E
:100F90002400C40B2400A00B23007D0B23005A0B5C
:100FA0002100390B2100180B2000F80A1F00D90A74
:100FB0001E00BB0A1E009D0A1D00800A1D00630A58
:100FC0001C00470A1B002C0A1B00110A1A00F70913
:100FD0001A00DD091900C4091900AB0919009209AA
:100FE00017007B091800630917004C091600360921
:100FF0001600200916000A091500F5081500E0087A
:101000001400CC081400B8081400A40814009008B8
:1010100013007D0812006B081300580812004608E0
:1010200012003408110023081100120811000108F1
:101030001100F0071000E0071000D0071000C007F3
:101040001000B0070F00A107100091070E008307E2
:101050000F0074070F0065070E0057070E004907C1
:101060000E003B070D002E070E0020070D00130792
:101070000D0006070D00F9060C00ED060D00E00658
:101080000C00D4060C00C8060C00BC060C00B00610
:101090000C00A4060B0099060C008D060B008206BE
:1010A0000B0077060B006C060B0061060A00570662
:1010B0000B004C060A0042060A0038060A002E06FB
:1010C0000A0024060A001A060A001006090007068C
:1010D0000A00FD050900F4050900EB050900E20519
:1010E0000900D9050900D0050900C7050900BE059A
:1010F0000900B5050800AD050800A50509009C0517
:101100000800940508008C050800840508007C058B
:101110000800740508006C050700650508005D05FA
:101120000700560508004E05070047050700400563
:10113000080038050700310507002A0507002305C8
:1011400007001C050600160507000F050700080527
:10115000060002050700FB040600F5040700EE0484
:101160000600E8040600E2040700DB040600D504DC
:101170000600CF040600C9040600C3040600BD042F
:101180000600B7040600B1040500AC040600A6047E
:101190000600A00405009B040600950405009004C9
:1011A00006008A04050085040500800406007A0410
:1011B000050075040500700405006B040500660455
:1011C0000500610405005C04050057040500520495
:1011D00005004D04050048040500430405003E04D5
:1011E00004003A04050035040500300404002C0412
:1011F000050027040400230405001E0404001A044B
:10120000040016040500110404000D040400090480
:1012100005000404040000040400FC030400F803B7
:101220000400F4030400F0030400EC030400E803EA
:101230000400E4030400E0030400DC030400D8031A
:101240000400D4030400D0030400CC030400C8034A
:101250000300C50303006563686F3A00205A3A0033
:1012600020593A0020583A00656E6473746F7073A9
:10127000206869743A20004572726F723A005465B2
:101280006D706572617475726520686561746564FE
:1012900020626564207377697463686564206F6693
:1012A000662E204D415854454D5020747269676731
:1012B00065726564202121003A2045787472756456
:1012C0006572207377697463686564206F66662E43
:1012D000204D494E54454D502074726967676572C0
:1012E00065642021003A2045787472756465722027
:1012F0007377697463686564206F66662E204D415C
:101300005854454D50207472696767657265642052
:10131000210070012C0190012701B0012201C001C0
:101320001D01F00118011002130130020E016002CC
:10133000090190020401C002FF000003FA0040030B
:10134000F5008003F000D003EB002004E6007004F9
:10135000E100E004DC004005D700C005D2004006F3
:10136000CD00D006C8008007C3003008BE00F008DA
:10137000B900C009B400B00AAF00B00BAA00D00C8D
:10138000A500000EA000500F9B00C0109600501248
:10139000910000148C00C0158700B0178200B019AE
:1013A0007D00D01B7800001E730040206E0090224C
:1013B0006900F024640040275F0090295A00E02B68
:1013C0005500102E500020304B0010324600E03304
:1013D000410090353C001037370070383200A0399A
:1013E0002D00B03A2800A03B2300603C1E00103DB9
:1013F0001900903D1400103E0F00703E0A00C03EE0
:101400000500003F0000202D20496E76616C696464
:10141000206578747275646572206E756D62657290
:10142000202100202D20496E76616C69642065784A
:10143000747275646572206E756D626572210050FC
:101440004944204175746F74756E652066696E69D4
:1014500073686564202120506C6163652074686541
:10146000204B702C204B6920616E64204B642063FC
:101470006F6E7374616E747320696E20746865207A
:10148000636F6E66696775726174696F6E2E68004E
:10149000504944204175746F74756E6520666169AA
:1014A0006C6564212074696D656F75740020403A25
:1014B000006F6B20543A00504944204175746F749A
:1014C000756E65206661696C6564212054656D7078
:1014D0006572617475726520746F20686967680051
:1014E000204B643A2000204B693A2000204B703A90
:1014F000200020436C617369632050494420002020
:1015000054753A2000204B753A2000206D61783ADE
:101510002000206D696E3A200020643A200020628D
:101520006961733A200000002100240027002A008E
:101530002D003000330001010000040107010A0101
:1015400000002200250028002B002E00310034006E
:1015500002010000050108010B010000200023002A
:10156000260029002C002F0032000001000003019A
:101570000601090105050505070508080808020216
:1015800002020A0A0808040404040101010101011D
:1015900001010303030303030303040707070C0C00
:1015A0000C0C0C0C0C0C02020202060606060606C7
:1015B00006060B0B0B0B0B0B0B0B0102102020086C
:1015C000081020401020408002010201080402019E
:1015D000010204081020408080402010080402010D
:1015E0008004020180402010080402010804020166
:1015F00001020408102040800102040810204080ED
:101600000000090A02080B0C0D0706030401000084
:1016100000000000000000000000000000000000CA
:10162000000000000000000000000000100F0E008D
:1016300000000000000000000000000000000000AA
:10164000000000000000494E46494E4954594E41A1
:101650004ECDCCCC3D0AD7233C17B7D13877CC2B15
:10166000329595E6241FB14F0A000020410000C8C2
:101670004200401C4620BCBE4CCA1B0E5AAEC59D43
:101680007400291CBF21B82111241FBECFEFD1E265
:10169000DEBFCDBF00E00CBF15E0A0E0B2E0E8E6A1
:1016A000FEE601E00BBF02C007900D92A032B10729
:1016B000D9F71BBE10E1A0E2B5E001C01D92A63C27
:1016C000B107E1F716E1C6E8D6E104C02297FE01B2
:1016D0000E94D9B6C238D107C9F70E949EB00C94B7
:1016E00027B70C940000A0E0B0E0E9E7FBE00C9421
:1016F000F6B6EC015B016115710519F0FB019183F0
:101700008083F9908F2D90E00E94DDB6892BC9F778
:10171000FDE2FF1621F4F990EE24E39405C02BE2DC
:10172000F21609F4F990EE248E0101501040C80120
:1017300066E476E143E050E00E94020E892B01F559
:101740008E010E5F1F4FC80169E476E145E050E06D
:101750000E94020E892B19F48E01095F1F4FA114FC
:10176000B10419F0F50111830083E0FC04C070E0BE
:1017700090E080E814C070E090E080E86FEF08C16E
:10178000C8016EE476E143E050E00E94020E892B2E
:1017900069F4A114B10429F470E090E080EC6FE7E3
:1017A000F7C02296F501D183C083F6CF882499240F
:1017B00040E050E060E070E0EF2DE053EA30A0F54B
:1017C000F2E0EF2A8E2D90E09C0128703070E2FE4E
:1017D00006C0232B79F50894811C911C2BC0232B68
:1017E00019F0089481089108DB01CA0112E0880F02
:1017F000991FAA1FBB1F1A95D1F7480F591F6A1FBF
:101800007B1F440F551F661F771F4E0F511D611D13
:10181000711D483929E9520729E9620729E1720750
:1018200048F084E0E82A06C0EE3F31F4E3FC39C01A
:1018300098E0E92AF990C0CFE53311F0E53189F558
:1018400029912D3219F4E0E1EE2A05C02B3219F06E
:1018500081E090E003C0299182E090E0E22FE05324
:10186000EA3018F0C81BD90B1CC020E030E0FCE0C7
:1018700020383F075CF4C901880F991F880F991F12
:10188000280F391F220F331F2E0F311DE991E0530E
:10189000EA3068F3E4FE03C0309521953F4F820E95
:1018A000931ECE2CDD24E1FE07C0A114B10421F06B
:1018B0002197F501D183C083CB01BA010E9442B3C5
:1018C0007B018C01F3E0CF22DD2423E0C216D1049A
:1018D00021F417FB109517F9109557016801C801FD
:1018E000B70120E030E040E050E00E94A2B288233F
:1018F00009F44AC097FE0DC025E6E22E26E1F22E3D
:101900009094819491089394C0E2D0E000E010E0BC
:1019100012C09DE7E92E96E1F92EF6CFF701259149
:10192000359145915491C601B5010E9482B55B0184
:101930006C018C1A9D0A8C169D0684F7D595C79567
:101940000F5F1F4F0630110529F08CEF9FEFE80E57
:10195000F91EF1CFC501D6017C018D018C2D880FB8
:101960008D2D881F8F3F51F0C601B50120E030E07A
:1019700040E050E00E94A2B2882331F482E290E07D
:101980009093C5108093C4107E2D9F2D802F612FC2
:10199000272F392F482F562FB901CA01CDB7DEB7EF
:1019A000ECE00C9412B72F923F925F926F927F926D
:1019B0008F929F92AF92BF92CF92DF92EF92FF925F
:1019C0000F931F93CF93DF938C011B01EA016115E5
:1019D000710519F0FB0191838083209749F0CE01B6
:1019E0000297839728F020E030E040E050E0F6C016
:1019F000F801A1908F018A2D90E00E94DDB6892B1D
:101A0000B9F7FDE2AF1631F4F801A1908F0155242A
:101A1000539407C0FBE2AF1619F4F801A1908F01AF
:101A20005524209719F0C031D105C1F4F0E3AF1669
:101A300079F4F8018081883711F0883549F4F8018C
:101A4000A1800E5F1F4FF2E05F2AC0E1D0E006C028
:101A5000209721F480E3A816E9F427C0C830D10507
:101A600031F1C930D10524F4C230D10531F50CC0B3
:101A7000CA30D10589F0C031D105F9F4C12CD12C7F
:101A8000E12CB8E0FB2E28C0C12CD12CE12CA0E425
:101A9000FA2E22C0CAE0D0E0FCECCF2EFCECDF2E08
:101AA000FCECEF2EFCE0FF2E17C0C8E0D0E0C12C0C
:101AB000D12CE12CE0E1FE2E0FC09E01442737FD22
:101AC0004095542F60E070E080E090E80E949AB664
:101AD000C901DA016C017D0120E030E040E050E016
:101AE00060E03E01882477FC8094982C70EDB72E3E
:101AF000BA0CE9E0EB1570F48A2D81548A3118F4A0
:101B000099ECB92E06C08A2D81568A3150F589EAA2
:101B1000B82EBA0C8B2D90E08C179D0714F56F3FF3
:101B2000E1F0C216D306E406F506B0F0CA01B90129
:101B3000A40193010E9454B69B01AC012B0D311DF1
:101B4000411D511D2130F0E03F07F0E04F07F0E864
:101B50005F0710F461E001C06FEFF801A1908F0101
:101B6000C5CF2114310481F0662331F001501040BB
:101B7000F1011183008308C051FE1AC002501040C9
:101B8000F1011183008314C067FF12C050FC05C02F
:101B90002FEF3FEF4FEF5FE704C020E030E040E081
:101BA00050E882E290E09093C5108093C41016C074
:101BB00050FE08C050954095309521953F4F4F4FAE
:101BC0005F4F0CC057FF0AC082E290E09093C510AF
:101BD0008093C4102FEF3FEF4FEF5FE7B901CA01C9
:101BE000DF91CF911F910F91FF90EF90DF90CF90F9
:101BF000BF90AF909F908F907F906F905F903F903D
:101C00002F900895FB01DC014150504088F08D91E8
:101C100081341CF08B350CF4805E659161341CF0CE
:101C20006B350CF4605E861B611171F3990B08959E
:101C3000881BFCCFFB01DC0104C08D910190801951
:101C400021F441505040C8F7881B990B0895FB01BF
:101C5000DC0102C001900D9241505040D8F7089528
:101C6000FB01DC010D900020E9F7119701900D9226
:101C70000020E1F70895FC018191861721F0882367
:101C8000D9F7992708953197CF010895FB01DC0119
:101C900001900D920020E1F70895FB01DC01415015
:101CA000504030F08D910190801919F40020B9F75F
:101CB000881B990B0895FB01DC014150504048F00E
:101CC00001900D920020C9F701C01D924150504073
:101CD000E0F70895FB0151915523A9F0BF01DC0104
:101CE0004D9145174111E1F759F4CD0101900020C4
:101CF00049F04D9140154111C9F3FB014111EFCF5E
:101D000081E090E001970895AEE0B0E0EAE8FEE0FF
:101D10000C94FEB60E891F8986E08C831A83098392
:101D20008FEF9FE79E838D839E01265E3F4FCE01FE
:101D30000196688D798DA9010E94A80E2F813885A2
:101D4000020F131FF80110822E96E4E00C941AB7CC
:101D5000ABE0B0E0EEEAFEE00C94F0B63C012B0103
:101D60005A01FC0117821682838181FD03C06FEF47
:101D70007FEFC6C19AE0892E1E010894211C311CF8
:101D8000F3012381F20123FD859123FF81912F012E
:101D9000882309F4B2C1853239F423FD859123FFEC
:101DA00081912F01853229F490E0B3010E949B10AC
:101DB000E7CF982FFF24EE249924FFE1FF15D0F000
:101DC0009B3269F09C3228F4903259F0933291F4AE
:101DD0000EC09D3249F0903369F441E024C052E0D6
:101DE000F52A84E0F82A28C098E0F92A25C0E0E125
:101DF000FE2A22C0F7FC29C0892F80538A3070F454
:101E0000F6FE05C0989C902C1124980E15C0E89CF5
:101E1000E02C1124E80EF0E2FF2A0EC09E3229F4D5
:101E2000F6FC6BC140E4F42A07C09C3619F450E874
:101E3000F52A02C0983649F4F20123FD959123FF5B
:101E400091912F01992309F0B8CF892F85548330C0
:101E500018F08052833038F444E050E0A40EB51EF0
:101E60005FE359830FC0933631F0933779F09335A0
:101E700009F056C020C0F5018081898342E050E01E
:101E8000A40EB51E610101E010E012C0F501C08092
:101E9000D180F6FC03C06FEF7FEF02C0692D70E0C8
:101EA00042E050E0A40EB51EC6010E9490108C01C5
:101EB0005FE7F52214C0F501C080D180F6FC03C0B5
:101EC0006FEF7FEF02C0692D70E042E050E0A40E9A
:101ED000B51EC6010E9485108C0150E8F52AF3FE5C
:101EE00007C01AC080E290E0B3010E949B10EA9400
:101EF0008E2D90E008171907A8F30EC0F601F7FC25
:101F00008591F7FE81916F0190E0B3010E949B10D3
:101F1000E110EA94015010400115110579F7EAC06B
:101F2000943611F0993669F5F7FE08C0F501208165
:101F300031814281538184E090E00AC0F5018081C3
:101F400091819C01442737FD4095542F82E090E019
:101F5000A80EB91E9FE6F92257FF09C0509540957B
:101F6000309521953F4F4F4F5F4FE0E8FE2ACA0161
:101F7000B901A1012AE030E00E94C710D82ED21882
:101F800040C0953729F41F2D1F7E2AE030E01DC088
:101F90001F2D197F9F3661F0903720F4983509F096
:101FA000ACC00FC0903739F0983709F0A6C004C014
:101FB00028E030E00AC0106114FD146020E130E038
:101FC00004C014FD166020E132E017FF08C0F501DF
:101FD000608171818281938144E050E008C0F50105
:101FE00080819181BC0180E090E042E050E0A40E4D
:101FF000B51EA1010E94C710D82ED2188FE7F82E67
:10200000F122F6FE0BC05EEFF522D91438F4F4FE8F
:1020100007C0F2FC05C08FEEF82202C01D2D01C0E2
:10202000192DF4FE0DC0FE01ED0DF11D80818033F0
:1020300019F499EEF92208C01F5FF2FE05C003C033
:102040008F2D867809F01F5F0F2DF3FC14C0F0FE72
:102050000FC01E1510F09D2C0BC09D2C9E0C911ACC
:102060001E2D06C080E290E0B3010E949B101F5F0E
:102070001E15C0F304C01E1510F4E11A01C0EE24B1
:1020800004FF0FC080E390E0B3010E949B1002FFA9
:102090001DC001FD03C088E790E00EC088E590E018
:1020A0000BC0802F867891F001FF02C08BE201C047
:1020B00080E2F7FC8DE290E0B3010E949B1006C025
:1020C00080E390E0B3010E949B109A94D914C0F36E
:1020D000DA94F101ED0DF11D808190E0B3010E94D1
:1020E0009B10DD20A9F706C080E290E0B3010E94BA
:1020F0009B10EA94EE20C1F743CEF301668177810D
:10210000CB012B96E2E10C940CB7FC0105906150D9
:1021100070400110D8F7809590958E0F9F1F0895FD
:10212000FC016150704001900110D8F780959095A6
:102130008E0F9F1F08950F931F93CF93DF938C01F2
:10214000EB018B8181FF1BC082FF0DC02E813F817F
:102150008C819D812817390764F4E881F981019306
:10216000F983E88306C0E885F985802F1995892BC6
:1021700031F48E819F8101969F838E8302C00FEF81
:102180001FEFC801DF91CF911F910F910895FA01C0
:10219000AA27283051F1203181F1E8946F936E7FA6
:1021A0006E5F7F4F8F4F9F4FAF4FB1E03ED0B4E097
:1021B0003CD0670F781F891F9A1FA11D680F791FD8
:1021C0008A1F911DA11D6A0F711D811D911DA11DE9
:1021D00020D009F468943F912AE0269F11243019F9
:1021E000305D3193DEF6CF010895462F4770405D94
:1021F0004193B3E00FD0C9F7F6CF462F4F70405D43
:102200004A3318F0495D31FD4052419302D0A9F79D
:10221000EACFB4E0A6959795879577956795BA9597
:10222000C9F700976105710508959B01AC010A2E5D
:1022300006945795479537952795BA95C9F7620F34
:10224000731F841F951FA01D0895FC011182128227
:102250000895FC018281882311F081E08183089533
:10226000FC018181811111820895CF93DF93FC01DC
:1022700086A982508230A0F0EF01E396DF01A05BD7
:10228000BF4F8BE10D9009928150E1F7DF01A05B18
:10229000BF4FE359FF4F8BE101900D928150E1F761
:1022A000DF91CF9108950F931F938C010E948A981C
:1022B0000E946798F801118280E092E00E94E93B59
:1022C00080912B098823B1F110922B096091A3060C
:1022D000E62FF0E0EE0FFF1FE359FF4E8081918162
:1022E0000E94D2A1209140043091410440914204C7
:1022F000509143040E94B0B41816E4F46091A30610
:10230000062F10E080E090E00E94F3A2000F111F62
:10231000F801E359FF4E91838083000F111F0B5882
:102320001F4E80E090E0A0E0B0E0F8018083918350
:10233000A283B3831F910F910895FC0184E095E07F
:10234000918380838581882321F0CF0102960E94AA
:10235000E48A0895CF92DF92EF92FF920F931F933A
:10236000DF93CF93CDB7DEB76D970FB6F894DEBF8E
:102370000FBECDBF8C016B01FC0186A9882321F41F
:1023800052E1E52EF12C03C041E3E42EF12CE00EE6
:10239000F11E84E095E09A8389831E821B82B70137
:1023A0006E5F7F4FCE010396A60121E00E949791B8
:1023B000882391F5EFE2F1E0949108C08091C0008C
:1023C00085FFFCCF9093C600319694919923B1F785
:1023D000E5E3F1E0949108C08091C00085FFFCCF57
:1023E0009093C600319694919923B1F709C08091DA
:1023F000C00085FFFCCF0894C11CD11C9093C6007F
:10240000F6019081992399F78091C00085FFFCCF58
:102410008AE08093C6001EC0D801A359BF4FF801BF
:10242000E05BFF4F8BE101900D928150E1F7D80105
:10243000A05BBF4FF70132968BE101900D92815066
:10244000E1F7D801D396FE0133968BE101900D920E
:102450008150E1F7CE0101960E949D116D960FB655
:10246000F894DEBF0FBECDBFCF91DF911F910F91CA
:10247000FF90EF90DF90CF900895EF92FF920F932F
:102480001F937C018C0103551F4FC8010E94968A3F
:10249000C8010E94E48AF70110821F910F91FF90FA
:1024A000EF9008950F931F93FC01148A178A24E07C
:1024B00035E0338B228B13AA16AA32AB21ABE05B3B
:1024C000FF4F1082339610823597318320837F9699
:1024D0001082339610823597318320837E9689E16E
:1024E00080833396108278961082399610823396C4
:1024F00010823597318320837D961082118212825B
:10250000138238961082118212821382E05DF040AD
:102510001182128210828F0104531F4FD8011D9225
:102520001D921D921C921397EC52FF4F81E0808305
:10253000E45DF040118A108A0E9422AE68577C4EFA
:102540008F4F9F4FF80160837183828393831F9124
:102550000F910895CF92DF92EF92FF920F931F9306
:10256000CF93DF937C016B01DB010D900020E9F735
:102570008D0101501040061B170BEDEAF0E0EE0E46
:10258000FF1ED7011C92E3E5FFEFEE0EFF1ECB010D
:102590006EE470E00E943B0EEC01009731F4F8010C
:1025A0003197EC0DFD1D86010EC060E270E00E94C7
:1025B0003B0E8C010F5F1F4FCE016AE270E00E945C
:1025C0003B0EFC0131978DE081838AE08283138288
:1025D000C70185559F4FB8010E9499928DEA90E0FE
:1025E000E80EF91ED7018C91882319F1EAE4F1E095
:1025F000949108C08091C00085FFFCCF9093C600E5
:10260000319694919923B1F7E1E5F1E0949108C0F6
:102610008091C00085FFFCCF9093C60031969491C5
:102620009923B1F78091C00085FFFCCF8AE08093A9
:10263000C600DF91CF911F910F91FF90EF90DF9037
:10264000CF900895CF93DF93EC018A81882309F41A
:102650003BC0E9E7F1E0949108C08091C00085FF9C
:10266000FCCF9093C600319694919923B1F7C05353
:10267000DF4F488159816A817B81C05DD04084EA07
:1026800095E02AE030E00E94C41CE7E7F1E0949175
:1026900008C08091C00085FFFCCF9093C6003196A2
:1026A00094919923B1F7C853DF4F488159816A81CA
:1026B0007B8184EA95E02AE030E00E94C41C80918E
:1026C000C00085FFFCCF12C0E7E6F1E0949108C09E
:1026D0008091C00085FFFCCF9093C6003196949105
:1026E0009923B1F78091C00085FFFCCF8AE08093E9
:1026F000C600DF91CF9108952F923F924F925F9243
:102700006F927F928F929F92AF92BF92CF92DF9201
:10271000EF92FF920F931F93DF93CF93CDB7DEB766
:10272000AA970FB6F894DEBF0FBECDBF5C014B0178
:10273000FC018281882309F41CC1C50183559F4F88
:102740000E94E48AF5011182188A1B8A84E095E0D0
:102750009F878E87C501429690AB87A7F401808141
:102760008F3209F090C0C4016FE270E00E943B0E0E
:102770007C010894E11CF11C3E010894611C711C51
:102780007EE0272E312C2C0E3D1E60E1462E512C72
:102790004C0E5D1E73C0C7016FE270E00E943B0EDD
:1027A0006C01009709F477C0E816F90608F073C0C9
:1027B0008C010E191F09C301B701A8010E945B0E0D
:1027C000060D171DF8011082F30107C08091C000AB
:1027D00085FFFCCF31969093C60090819923B1F785
:1027E0008091C00085FFFCCFFAE0F093C600F501B0
:1027F00067A570A96115710519F460E070E002C069
:102800006E5F7F4FC201A30121E00E949791882350
:1028100071F5E5EBF1E0949108C08091C00085FF6F
:10282000FCCF9093C600319694919923B1F7FE01A5
:10283000319607C08091C00085FFFCCF3196909300
:10284000C60090819923B1F7E3EBF1E0949108C0C1
:102850008091C00085FFFCCF9093C6003196949183
:102860009923B1F78091C00085FFFCCF7BC0F501B3
:1028700030AA27A676010894E11CF11CE114F104AA
:1028800009F089CF05C0C501C196F50190AB87A7B6
:10289000D82C092D02C0DE2C0F2DF50187A590A99B
:1028A000009719F480E090E001C002966D2D702F22
:1028B0000E946992882339F1E5EAF1E0949108C019
:1028C0008091C00085FFFCCF9093C6003196949113
:1028D0009923B1F78D2D902F9C01F90107C08091AC
:1028E000C00085FFFCCF31969093C600908199235C
:1028F000B1F780ED90E0A80EB91EF50110821182AB
:102900001282138232C0EDE8F1E0949108C0809108
:10291000C00085FFFCCF9093C60031969491992317
:10292000B1F78D2D902F9C01F90107C08091C00057
:1029300085FFFCCF31969093C60090819923B1F723
:10294000EBE8F1E0949108C08091C00085FFFCCFD6
:102950009093C600319694919923B1F78091C0006D
:1029600085FFFCCF8AE08093C600CE010E960E94C0
:102970009D11AA960FB6F894DEBF0FBECDBFCF91C2
:10298000DF911F910F91FF90EF90DF90CF90BF905C
:10299000AF909F908F907F906F905F904F903F90FF
:1029A0002F9008952F923F924F925F926F927F9255
:1029B0008F929F92AF92BF92CF92DF92EF92FF924F
:1029C0000F931F93DF93CF93CDB7DEB7AB970FB6BF
:1029D000F894DEBF0FBECDBF5C014B014BA7FC01DD
:1029E0008281882309F4D3C1FDEA4F2E512C4A0C71
:1029F0005B1CC2010E94E48AF5011182188A1B8ABD
:102A000084E095E09F878E87C501429690AB87A7AB
:102A1000F40180818F3209F08FC0C4016FE270E051
:102A20000E943B0E7C010894E11CF11C3E010894BD
:102A3000611C711CE0E12E2E312C2C0E3D1E77C046
:102A4000C7016FE270E00E943B0E6C01009709F431
:102A50007BC0E816F90608F077C08C010E191F0933
:102A6000C301B701A8010E945B0E060D171DF801F6
:102A70001082F30107C08091C00085FFFCCF319622
:102A80009093C60090819923B1F78091C00085FF93
:102A9000FCCFFAE0F093C600F50167A570A96115B7
:102AA000710519F460E070E002C06E5F7F4FC101F4
:102AB000A30121E00E949791882371F5EBE2F2E0F7
:102AC000949108C08091C00085FFFCCF9093C60010
:102AD000319694919923B1F7FE01319607C0809108
:102AE000C00085FFFCCF31969093C600908199235A
:102AF000B1F7E9E2F2E0949108C08091C00085FF4F
:102B0000FCCF9093C600319694919923B1F78091B0
:102B1000C00085FFFCCF0BC18EE090E08C0F9D1FA5
:102B2000F50190AB87A776010894E11CF11CE11434
:102B3000F10409F085CF05C0C501C196F50190AB40
:102B400087A7082DF92C01C00E2DF50167A570A9E6
:102B5000FBA5FF2309F4ABC06115710519F460E012
:102B600070E002C06E5F7F4FC201402F5F2D21E0F9
:102B70000E949791882309F46AC08EEB90E0A80E1A
:102B8000B91EF50140815181628173818AE090E034
:102B9000A80EB91EF501408351836283738388E3D5
:102BA0009FEFA80EB91EECE1F2E0949108C080916D
:102BB000C00085FFFCCF9093C60031969491992375
:102BC000B1F7802F9F2D9C01F90107C08091C000B3
:102BD00085FFFCCF31969093C60090819923B1F781
:102BE000E5E1F2E0949108C08091C00085FFFCCF40
:102BF0009093C600319694919923B1F784EA95E0B9
:102C00002AE030E00E94C41C8091C00085FFFCCF08
:102C10008AE08093C600E0EDF0E0AE0EBF1EF50145
:102C20001082118212821382E7E0F2E0949108C0D0
:102C30008091C00085FFFCCF9093C600319694919F
:102C40009923B1F78091C00085FFFCCF95C0E3EFD9
:102C5000F1E0949108C08091C00085FFFCCF909373
:102C6000C600319694919923B1F7802F9F2D9C0136
:102C7000F90107C08091C00085FFFCCF3196909389
:102C8000C60090819923B1F7E1EFF1E0949108C07B
:102C90008091C00085FFFCCF9093C600319694913F
:102CA0009923B1F78091C00085FFFCCF40C061152A
:102CB000710519F460E070E002C06E5F7F4FC201E1
:102CC000402F5F2D26E50E949791882309F033C09D
:102CD000EDEDF1E0949108C08091C00085FFFCCF3C
:102CE0009093C600319694919923B1F7802F9F2D30
:102CF0009C01F90107C08091C00085FFFCCF31968F
:102D00009093C60090819923B1F7EBEDF1E0949197
:102D100008C08091C00085FFFCCF9093C60031961B
:102D200094919923B1F78091C00085FFFCCF8AE090
:102D30008093C60028C081E0F5018083E9ECF1E0D2
:102D4000949108C08091C00085FFFCCF9093C6008D
:102D5000319694919923B1F7F40107C08091C00096
:102D600085FFFCCF31969093C60090819923B1F7EF
:102D70008091C00085FFFCCF8AE08093C600802F41
:102D80009F2D0E944252CE010E960E949D11AB963D
:102D90000FB6F894DEBF0FBECDBFCF91DF911F916C
:102DA0000F91FF90EF90DF90CF90BF90AF909F90EA
:102DB0008F907F906F905F904F903F902F900895ED
:102DC000EF92FF920F931F93CF93DF937C01FC014F
:102DD00012828789882321F0C70144960E94E48AE1
:102DE000870108571F4FC80160E045E30E948A88A9
:102DF000882309F5EFE2F1E0949108C08091C000CA
:102E000085FFFCCF9093C600319694919923B1F73A
:102E1000EDE6F2E0949108C08091C00085FFFCCF00
:102E20009093C600319694919923B1F78091C00098
:102E300085FFFCCF7DC0E701C357DF4FCE01B8014E
:102E400041E00E942E93882341F5CE01B80140E075
:102E50000E942E93882309F5EAE4F1E0949108C0DA
:102E60008091C00085FFFCCF9093C600319694916D
:102E70009923B1F7EAE5F2E0949108C08091C0008F
:102E800085FFFCCF9093C600319694919923B1F7BA
:102E90008091C00085FFFCCF4BC0C7014496BE01A6
:102EA0000E948B8D882309F5EAE4F1E0949108C033
:102EB0008091C00085FFFCCF9093C600319694911D
:102EC0009923B1F7EAE4F2E0949108C08091C00040
:102ED00085FFFCCF9093C600319694919923B1F76A
:102EE0008091C00085FFFCCF23C081E0F701828381
:102EF000EFE2F1E0949108C08091C00085FFFCCF23
:102F00009093C600319694919923B1F7EFE3F2E0E4
:102F1000949108C08091C00085FFFCCF9093C600BB
:102F2000319694919923B1F78091C00085FFFCCF31
:102F30008AE08093C600D701D396F70174968BE19F
:102F400001900D928150E1F7C7014296F70190ABD5
:102F500087A7DF91CF911F910F91FF90EF90089578
:102F60002F923F924F925F927F928F929F92AF9259
:102F7000BF92CF92DF92EF92FF920F931F93DF9356
:102F8000CF93CDB7DEB7CC55D0400FB6F894DEBFA7
:102F90000FBECDBF6C01662311F524ED30E0C20EEB
:102FA000D31ED6018C91ECE2FFEFCE0EDF1E8823FC
:102FB00009F4E7C02CEC30E0C20ED31ED601ED9030
:102FC000FD900D911C91E4E3FFEFCE0EDF1E0E94F9
:102FD00022AEE616F7060807190708F4D2C024ED5A
:102FE00030E0C20ED31ED6011C92ECE2FFEFCE0EF3
:102FF000DF1ED60112968C91882341F4C6010E94EF
:10300000E016F6018281882309F4BBC000D000D00D
:10301000EDB7FEB731968E010F5F1F4FADB7BEB74C
:1030200012961C930E9311978CE092E09383828307
:10303000D60150968D919C915197958384830E94DF
:10304000840EEE24FF24EDB7FEB736960FB6F89443
:10305000FEBF0FBEEDBF58010AC0D8018C91992761
:1030600087FD90950E94E5B6F80181938F01C70115
:10307000F50101900020E9F73197EA19FB0908945E
:10308000E11CF11C8E179F0744F314E1812E912C53
:103090008C0C9D1CC40140E050E060E070E00E9498
:1030A000CC897724BDE3AB2EB12CAC0EBD1E1E0126
:1030B0000894211C311CAFE14A2E512C4C0E5D1E90
:1030C00046C0D7018C9190E00E94E5B6F70181934C
:1030D0007F01C801F50101900020E9F73197EA1955
:1030E000FB090F5F1F4F8E179F075CF327968FAD6D
:1030F00027978E3761F1C501B10145E050E00E948C
:103100004D0E009721F500D000D0EDB7FEB73196F7
:10311000ADB7BEB712965C924E92119725E132E0A0
:1031200033832283358224820E94840E8DB79EB71A
:1031300006960FB6F8949EBF0FBE8DBFC2010E94C7
:10314000E93B8CE192E00E94E93B77247394C4014F
:10315000B5010E94018D181624F4750100E010E0FD
:10316000B8CF772041F48FEF9FEFD60151969C9313
:103170008E93509706C0F601808991890196918BB4
:10318000808BC45ADF4F0FB6F894DEBF0FBECDBFA1
:10319000CF91DF911F910F91FF90EF90DF90CF9033
:1031A000BF90AF909F908F907F905F904F903F9097
:1031B0002F9008952F923F924F925F926F927F923D
:1031C0008F929F92AF92BF92CF92DF92EF92FF9237
:1031D0000F931F93DF93CF93CDB7DEB7C958D0407D
:1031E0000FB6F894DEBF0FBECDBF7C013B016A0174
:1031F00082E090E0C80ED91EF7013396CE57DF4F1C
:10320000F983E883C258D040CC57DF4F1882C458A6
:10321000D0408E010E591F4FC8010B96CB57DF4F80
:1032200099838883C558D04035ED832E912C8E0C20
:103230009F1C27EDA22EB12CAE0CBF1C9EE0492E88
:10324000512C4C0E5D1E85E4282E312C2C0E3D1E7B
:10325000F1013296C957DF4FF983E883C758D04050
:10326000EFE2F1E08491C757DF4F8883C958D0401F
:103270003FC1F8018385482F50E0BA016871707032
:103280006031710509F03CC1F401208131812130A8
:10329000310509F435C12230310509F431C1F80195
:1032A000DE0111969081903239F08E2F801B88308C
:1032B00011F48EE28D939D933196CB57DF4F888129
:1032C0009981C558D040E817F90761F71C921E860E
:1032D000F3018081882329F4C20160E272E00E9438
:1032E000300EC201B3010E94300EC201BE016F5FF9
:1032F0007F4F0E94300EC20160E272E00E94300EE9
:103300001AA61DA684E095E099A788A7CE018A9603
:10331000B601AE014F5F5F4F21E00E949791882375
:1033200009F03FC0F40180819181892BD1F5C75705
:10333000DF4F9881C958D040EFE2F1E008C080919A
:10334000C00085FFFCCF9093C600319694919923DD
:10335000B1F7E2E2F2E007C08091C00085FFFCCF48
:1033600031969093C60090819923B1F78091C00067
:1033700085FFFCCFFAE0F093C600FE01319607C04E
:103380008091C00085FFFCCF31969093C60090815C
:103390009923B1F78091C00085FFFCCF8AE080932C
:1033A000C600C957DF4FA881B981C758D040FE0178
:1033B000BA968BE101900D928150E1F784E095E09F
:1033C000F10191838083C701B201A1010E94DA1843
:1033D000C1010E949D11CE0188960E949D1188C056
:1033E000953E09F485C09E3209F482C09F3509F4E8
:1033F0007FC043FD7DC080E06031710509F481E04C
:10340000F7018787882349F4F8018085873409F01C
:103410006FC081858E3709F46BC0CE57DF4FA8810E
:10342000B981C258D040F8018081803241F08E2F9E
:10343000801B883011F48EE28D9380818D933196BC
:10344000CB57DF4F88819981C558D040E817F907DD
:1034500059F71C92F40180819181009729F5F301BD
:1034600007C08091C00085FFFCCF31969093C600C5
:1034700090819923B1F7CE57DF4FE881F981C25887
:10348000D04007C08091C00085FFFCCF319690935B
:10349000C60090819923B1F78091C00085FFFCCFD1
:1034A000FAE0F093C60024C08130910539F4F501AB
:1034B000808191810196918380831AC00297C1F423
:1034C000CC57DF4FF881C458D0402F2F30E0F501A2
:1034D0008081918128173907C1F0CC57DF4FF881DF
:1034E000C458D040FF5FCC57DF4FF883C458D0405A
:1034F000C601B8010E94018D18160CF4BACE05C0A1
:10350000F8019081992309F06BCFC757DF4F0FB6B1
:10351000F894DEBF0FBECDBFCF91DF911F910F9109
:10352000FF90EF90DF90CF90BF90AF909F908F90E3
:103530007F906F905F904F903F902F900895EF9203
:10354000FF920F931F93DF93CF93CDB7DEB76D97A5
:103550000FB6F894DEBF0FBECDBF7C01C196D70178
:10356000D0969C938E939F97E5EDF0E0EE0EFF1EB4
:1035700081E090E0D7018D939D937D011D921C9277
:10358000E9E2FFEFEE0EFF1EC701C39640E050E0F8
:1035900060E070E00E94CC89D7019F96ED91FC918C
:1035A000D097DE01139632968BE101900D928150F7
:1035B000E1F784E095E09A838983C70165E372E0CF
:1035C0008E010F5F1F4FA8010E94DA18C8010E94E8
:1035D0009D11F701E952FF4F808191816D960FB6E1
:1035E000F894DEBF0FBECDBFCF91DF911F910F9139
:1035F000FF90EF9008950F931F93DF93CF93CDB774
:10360000DEB76D970FB6F894DEBF0FBECDBF8C014D
:10361000C196D801D0969C938E939F970B521F4FC3
:1036200082E090E0F80191838083055D1040F8010D
:10363000E952FF4F60831182C801C39640E050E019
:1036400060E070E00E94CC89D8019F96ED91FC91DA
:10365000D097DE01139632968BE101900D92815046
:10366000E1F784E095E09A838983C80165E372E01D
:103670008E010F5F1F4FA8010E94DA18C8010E9437
:103680009D116D960FB6F894DEBF0FBECDBFCF91E2
:10369000DF911F910F910895EF92FF920F931F9367
:1036A000DF93CF93CDB7DEB76D970FB6F894DEBF3B
:1036B0000FBECDBF7C0185ED90E0E80EF91EF7014D
:1036C000118210828BE29FEFE80EF91E87010C5EDB
:1036D0001F4FC80140E050E060E070E00E94CC89DC
:1036E000DE011396F8018BE101900D928150E1F714
:1036F00084E095E09A838983C70165E372E08E01D7
:103700000F5F1F4FA8010E94DA18C8010E949D1187
:103710006D960FB6F894DEBF0FBECDBFCF91DF918F
:103720001F910F91FF90EF9008951F920F920FB687
:103730000F920BB60F9211242F933F934F938F93B9
:103740009F93EF93FF934091C600E091A005F09105
:10375000A10531969F012F77307031978091A20596
:103760009091A3052817390739F0E05EFA4F40839E
:103770003093A1052093A005FF91EF919F918F9128
:103780004F913F912F910F900BBE0F900FBE0F9056
:103790001F9018959A01AB01203081EE380780E028
:1037A000480780E0580749F182E08093C00060E05C
:1037B00079E08DE390E00E94BCB62150304040405B
:1037C0005040CA01B90122E030E040E050E00E94E0
:1037D000BCB63093C5002093C4008091C1008061C5
:1037E0008093C1008091C10088608093C100809166
:1037F000C10080688093C10008951092C00020E14C
:1038000030E0E7CF2091A2053091A3058091A0057B
:103810009091A1058217930719F42FEF3FEF0EC087
:10382000F901E05EFA4F80812F5F3F4F2F773070B4
:103830003093A3052093A205282F30E0C9010895F5
:103840008091A2059091A3059093A1058093A00576
:10385000089508952F923F924F925F926F927F92B8
:103860008F929F92AF92BF92CF92DF92EF92FF9290
:103870000F931F93DF93CF93CDB7DEB7A0970FB60B
:10388000F894DEBF0FBECDBF1C016A017B0141155C
:1038900051056105710549F440E350E060E070E0D6
:1038A00020E030E00E94E31C56C088249924540193
:1038B000422E55246624772401E010E00C0F1D1FD2
:1038C000080D191DC701B601A30192010E949AB605
:1038D000F80160830894811C911CA11CB11CC701D4
:1038E000B601A30192010E949AB6C901DA016C01E6
:1038F0007D01C114D104E104F104F1F681E0E82E68
:10390000F12CEC0EFD1EE80CF91C3E010894611C24
:10391000711CD501C4010197A109B1096C01C81836
:10392000D90816C0F601EE0DFF1D40814A3010F493
:10393000405D01C0495C552747FD5095652F752FA7
:10394000C10120E030E00E94E31C0894E108F10886
:103950006E147F0439F7A0960FB6F894DEBF0FBE41
:10396000CDBFCF91DF911F910F91FF90EF90DF902E
:10397000CF90BF90AF909F908F907F906F905F900F
:103980004F903F902F9008952115310539F4809183
:10399000C00085FFFCCF4093C60008950E942A1CFA
:1039A0000895EF92FF920F931F939A01E62EFF2442
:1039B00000E010E0B801A7010E94C41C1F910F9104
:1039C000FF90EF900895EF92FF920F931F93CF9384
:1039D000DF93EC017A018B012115310539F48091D7
:1039E000C00085FFFCCFE092C6001BC02A30310525
:1039F000B1F477FF10C04DE250E060E070E020E0ED
:103A000030E00E94E31C10950095F094E094E11CD6
:103A1000F11C011D111DCE01B801A7012AE00E9471
:103A20002A1CDF91CF911F910F91FF90EF90089585
:103A3000EF92FF920F931F937B019A010027F7FCEF
:103A40000095102FB801A7010E94E31C1F910F9150
:103A5000FF90EF9008950F931F938C014DE050E07D
:103A600060E070E020E030E00E94E31CC8014AE022
:103A700050E060E070E020E030E00E94E31C1F9125
:103A80000F910895CF92DF92EF92FF920F931F93C1
:103A90008C019A016B01EE24FF24B701A6010E945C
:103AA000C41CC8010E942B1D1F910F91FF90EF9025
:103AB000DF90CF9008959F92AF92BF92CF92DF9206
:103AC000EF92FF920F931F93CF93DF93EC017A0154
:103AD0008B01922ECB01BA0120E030E040E050E0B3
:103AE0000E94A2B288236CF4CE014DE250E060E067
:103AF00070E020E030E00E94E31C17FB109517F9FE
:103B0000109520E030E040E05FE3AA240BC0CA013A
:103B1000B90120E030E040E251E40E94A9B29B01EB
:103B2000AC01A394A91498F3C801B7010E94C9B1CC
:103B30007B018C010E9416B35B016C010E9442B3B1
:103B40009B01AC01C801B7010E94C8B17B018C0187
:103B5000CE01B601A5012AE030E00E94C41C9920E4
:103B6000A1F1E6E3F2E007C08091C00085FFFCCF41
:103B700031969093C60090819923B1F726C0C80171
:103B8000B70120E030E040E251E40E9482B57B01C1
:103B90008C010E9411B35B016C01CC24B7FCC09472
:103BA000DC2CCE01B601A5012AE030E00E94E31C26
:103BB000C601B5010E9444B39B01AC01C801B70125
:103BC0000E94C8B17B018C019A949920C1F6DF91C3
:103BD000CF911F910F91FF90EF90DF90CF90BF900A
:103BE000AF909F9008950E945B1D0895DF93CF933F
:103BF000CDB7DEB7E0970FB6F894DEBF0FBECDBFEE
:103C0000DE011196E0EFF4E080E101900D92815029
:103C1000E1F7DE015196E0EEF4E080E101900D92D3
:103C20008150E1F7DE019196E0EDF4E080E1019052
:103C30000D928150E1F789819A81AB81BC8180939B
:103C4000CF089093D008A093D108B093D208898967
:103C50009A89AB89BC898093BF089093C008A093D0
:103C6000C108B093C20889A19AA1ABA1BCA180935D
:103C7000DF089093E008A093E108B093E2088D81FB
:103C80009E81AF81B8858093D3089093D408A09388
:103C9000D508B093D6088D899E89AF89B88D809359
:103CA000C3089093C408A093C508B093C6088DA11B
:103CB0009EA1AFA1B8A58093E3089093E408A093D8
:103CC000E508B093E60889859A85AB85BC85809325
:103CD000D7089093D808A093D908B093DA08898DB3
:103CE0009A8DAB8DBC8D8093C7089093C808A09324
:103CF000C908B093CA0889A59AA5ABA5BCA58093AD
:103D0000E7089093E808A093E908B093EA088D8546
:103D10009E85AF85B8898093DB089093DC08A093DB
:103D2000DD08B093DE088D8D9E8DAF8DB8A1809398
:103D3000CB089093CC08A093CD08B093CE088DA566
:103D40009EA5AFA5B8A98093EB089093EC08A0932B
:103D5000ED08B093EE0880E090E8ADEEB4E4809317
:103D6000F3089093F408A093F508B093F60880E068
:103D700090E4ACE9B5E48093F7089093F808A09339
:103D8000F908B093FA0820E030E040E050E02093DA
:103D9000EF083093F0084093F1085093F20880E266
:103DA0009EE4A0E0B0E08093BB089093BC08A09391
:103DB000BD08B093BE0820930709309308094093CB
:103DC000090950930A0980E090E0A0E7B1E48093EC
:103DD000FB089093FC08A093FD08B093FE0883E3D2
:103DE00093E3A3E3BFE38093FF0890930009A093BC
:103DF0000109B093020980E090E0A0EAB0E480936A
:103E0000030990930409A0930509B0930609E0E51E
:103E1000F6E0949108C08091C00085FFFCCF90939C
:103E2000C600319694919923B1F7E8E3F2E007C018
:103E30008091C00085FFFCCF31969093C6009081A1
:103E40009923B1F78091C00085FFFCCF8AE0809371
:103E5000C600E0960FB6F894DEBF0FBECDBFCF917F
:103E6000DF9108958091A506089567707070E82F1E
:103E7000F0E0E050FA4E84918B3028F4883098F4CA
:103E8000863088F105C08E30C8F0813160F521C0E0
:103E90008091B1008C7F8093B1008091B100862B1E
:103EA0008093B1000895809191008C7F8093910060
:103EB00080919100862B8093910008958091A100BC
:103EC0008C7F8093A1008091A100862B8093A1001C
:103ED0000895809121018C7F80932101809121019F
:103EE000862B809321010895FC012491A7E1B4E081
:103EF00004C02D930196FC012491222321F0F4E0CB
:103F0000AB32BF07B1F71C9208950F931F93FC01CA
:103F100060817181828193810E9411B38B019C0128
:103F2000CB0164E670E00E9487B6CB016AE070E0E6
:103F30000E9487B6805D8093CE06C8016AE070E07B
:103F40000E9487B6CB016AE070E00E9487B6805D70
:103F50008093CF06C8016AE070E00E9487B6805D5A
:103F60008093D0061092D1068EEC96E01F910F91AF
:103F70000895FC012081822F90E06AE070E00E94A9
:103F800087B6CB016AE070E00E9487B6805D8093BF
:103F9000CE06822F90E06AE070E00E9487B6805DD6
:103FA0008093CF061092D0068EEC96E00895FC0127
:103FB000608171818281938120E030E048EC52E49D
:103FC0000E9482B50E9411B39B0177FF02C08DE26F
:103FD00001C08BE28093CE0637FF03C03095219558
:103FE0003F4FC90164E670E00E9487B6CB016AE0EA
:103FF00070E00E9487B6805D8093CF068EE280934A
:10400000D006C9016AE070E00E9487B6CB016AE081
:1040100070E00E9487B6805D8093D106C9016AE096
:1040200070E00E9487B6805D8093D2061092D4061D
:104030008EEC96E00895FC018081918164E670E049
:104040000E9487B6CB016AE070E00E9487B6805D6F
:104050008093CE06808191816AE070E00E9487B6ED
:10406000CB016AE070E00E9487B6805D8093CF0646
:10407000808191816AE070E00E9487B6805D8093C4
:10408000D0061092D1068EEC96E00895FC01808156
:10409000918168EE73E00E9487B6CB016AE070E020
:1040A0000E9487B6805D8093CE068081918164E610
:1040B00070E00E9487B6CB016AE070E00E9487B68C
:1040C000805D8093CF06808191816AE070E00E94DC
:1040D00087B6CB016AE070E00E9487B6805D80936E
:1040E000D006808191816AE070E00E9487B6805D91
:1040F0008093D1061092D2068EEC96E00895FC01D2
:10410000608171818281938120E030E040E251E45E
:104110000E9482B50E9411B39B0177FF02C08DE21D
:1041200001C08BE28093CE0637FF03C03095219506
:104130003F4FC90160E177E20E9487B6CB016AE098
:1041400070E00E9487B6805D8093CF06C90168EE5B
:1041500073E00E9487B6CB016AE070E00E9487B6E8
:10416000805D8093D006C90164E670E00E9487B646
:10417000CB016AE070E00E9487B6805D8093D10633
:10418000C9016AE070E00E9487B6CB016AE070E086
:104190000E9487B6805D8093D2068EE28093D3061C
:1041A000C9016AE070E00E9487B6805D8093D40602
:1041B0001092D5068EEC96E00895FC016081718125
:1041C0008281938120E030E048EC52E40E9482B585
:1041D0000E9411B39B0177FF02C08DE201C08BE208
:1041E0008093CE0637FF03C0309521953F4FC9011C
:1041F00060E177E20E9487B6CB016AE070E00E943E
:1042000087B6805D8093CF06C90168EE73E00E9497
:1042100087B6CB016AE070E00E9487B6805D80932C
:10422000D006C90164E670E00E9487B6CB016AE05F
:1042300070E00E9487B6805D8093D1068EE2809305
:10424000D206C9016AE070E00E9487B6CB016AE03D
:1042500070E00E9487B6805D8093D306C9016AE052
:1042600070E00E9487B6805D8093D4061092D506D8
:104270008EEC96E00895CF92EF920F9381309105E6
:1042800031F56F5F7F4F09F06FC085EA95E00E94BE
:1042900052128DEA96E060E141E127E109E15BE13C
:1042A000E52E3DE1C32E0E94A5AD1092C2061092EC
:1042B000C1061092C3061092C00681E08093C40626
:1042C0001092CB061092CC061092CD064DC0892BD1
:1042D00009F04AC06F5F7F4F09F046C084E095E067
:1042E000909351068093500680915506882321F0C3
:1042F00082E596E00E94E48A84E095E090931106BE
:104300008093100680911506882321F082E196E0C3
:104310000E94E48A84E095E09093F4058093F3058D
:104320008091F805882321F085EF95E00E94E48ACA
:1043300084E095E09093D7058093D6058091DB05C6
:10434000882321F088ED95E00E94E48A84E095E0DE
:104350009093B8058093B7058091BC05882321F020
:1043600089EB95E00E94E48A0F91EF90CF90089539
:1043700080E090E06FEF7FEF0E943B21089581E0A5
:1043800090E06FEF7FEF0E943B2108950F93DF9342
:10439000CF9300D00F92CDB7DEB706B10295069548
:1043A0000695037000950170349B02602091D6063B
:1043B0003091D7064091D8065091D90629833A8387
:1043C0004B835C830E9422AE29813A814B815C81C0
:1043D000261737074807590710F4329B04600093EB
:1043E000A6062091A60621708091A60681FD226076
:1043F000422F552747FD50958091AB069091AC0612
:104400004817590709F441C02130D9F022301CF473
:10441000222331F03AC0223049F02330B1F50BC0ED
:104420008130910589F0029781F51CC0009761F0F9
:10443000039759F517C08230910531F0019729F59E
:1044400011C08330910561F48091A7069091A80670
:10445000A091A906B091AA060196A11DB11D0DC09B
:10446000892B99F48091A7069091A806A091A9069E
:10447000B091AA060197A109B1098093A70690936C
:10448000A806A093A906B093AA065093AC06409341
:10449000AB060F900F900F900F90CF91DF910F917F
:1044A00008950E9422AE6093F5067093F6068093FD
:1044B000F7069093F806E0911E07F0911F07E05E63
:1044C000F84F80818823A9F4E5E4F6E0949108C0D0
:1044D0008091C00085FFFCCF9093C60031969491E7
:1044E0009923B1F78091C00085FFFCCF8AE08093CB
:1044F000C6000895CF93DF93EC01FC01649109C0DD
:104500008DEA96E040E050E00E94B4B12196FE01B1
:1045100064916623A9F7DF91CF9108952F923F927E
:104520004F925F926F927F928F929F92AF92BF92C3
:10453000CF92DF92EF92FF920F931F93DF93CF936F
:10454000CDB7DEB7E2970FB6F894DEBF0FBECDBF92
:104550004C01FC0192858185981719F48481882388
:1045600039F081E0F40184838DEA96E00E94E7ACA3
:10457000F4012185822F992787FD9095AC01440F86
:10458000551F440F551F4554574F58AB4FA71C019B
:10459000220C331C220C331CE3EBF8E02E0E3F1EE2
:1045A000422E662477249AAB89AB0C943A2DF8E01E
:1045B0004F1609F4F6C2F415ACF022E0421609F4E5
:1045C0004BC1241544F0442049F131E0431611F069
:1045D0000C942C2D58C0F4018481F6E0F4150CF0F5
:1045E00006C2A1C32EE0421609F438C624153CF0D9
:1045F000F4018481FCE0F4150CF055C44AC520E1B7
:10460000421611F40C942A2B42160CF425C731E102
:10461000431611F00C942C2D0C94282CF401848159
:10462000882351F08DEA96E060E0462D0E94B8ACF8
:1046300088E394E00E947A22F4018081992787FD23
:104640009095252D30E08217930711F00C942C2DB6
:104650008091A60682FD02C00C942C2D0E9422AEF1
:104660006C507E4F8F4F9F4F6093D6067093D70646
:104670008093D8069093D90684E090E0F401928369
:1046800081830C942C2DF4018481882379F18DEAA7
:1046900096E060E0462D0E94B8AC82E394E00E9470
:1046A0007A228DEA96E06DE0462D0E94B8AC6091CA
:1046B000F3087091F4088091F5089091F60820E0D5
:1046C00030E048EC52E40E94A9B20E9411B37A8310
:1046D0006983CE0101960E941B20BC018DEA96E001
:1046E0000E94DCB08FE294E00E947A22F401808183
:1046F000992787FD9095252D30E08217930711F0BB
:104700000C942C2D8091A60682FF57C0838591E0E2
:10471000892783878823C9F06091F3087091F40892
:104720008091F5089091F6080E9411B324E630E0DC
:1047300040E050E00E94BCB62093A7063093A80644
:104740004093A9065093AA062AC06091A7067091CB
:10475000A8068091A9069091AA0624E630E040E0E0
:1047600050E00E9454B60E9444B36093F3087093E3
:10477000F4088093F5089093F608F401808125E011
:104780008202C0011124AA2797FDA095BA2F809319
:10479000A7069093A806A093A906B093AA060E9424
:1047A00022AE6C507E4F8F4F9F4F6093D606709312
:1047B000D7068093D8069093D906F4018385882381
:1047C00011F40C942C2D8091A7069091A806A0912D
:1047D000A906B091AA060597A105B10564F485E084
:1047E00090E0A0E0B0E08093A7069093A806A09385
:1047F000A906B093AA068091A7069091A806A09159
:10480000A906B091AA068F5D9340A040B04064F025
:104810008EED93E0A0E0B0E08093A7069093A80609
:10482000A093A906B093AA068DEA96E06DE0452D07
:104830000E94B8AC8091A7069091A8069C838B83B8
:10484000CE0103960E941B20BC018DEA96E00E94D7
:10485000DCB08CE294E01AC4F4018481882329F14D
:104860008DEA96E060E0462D0E94B8AC80E294E0CC
:104870000E947A228DEA96E06DE0462D0E94B8AC47
:104880006091FB087091FC088091FD089091FE08F2
:104890000E9411B37E836D83CE0105960E941B207A
:1048A000BC018DEA96E00E94DCB0F401808199277A
:1048B00087FD9095252D30E08217930711F00C9419
:1048C0002C2D8091A60682FF4BC0838591E089271D
:1048D0008387882399F06091FB087091FC08809190
:1048E000FD089091FE080E9411B36093A706709393
:1048F000A8068093A9069093AA0624C06091A706F3
:104900007091A8068091A9069091AA060E9444B3CE
:104910006093FB087093FC088093FD089093FE0859
:10492000F401808125E08202C0011124AA2797FDAD
:10493000A095BA2F8093A7069093A806A093A906E6
:10494000B093AA060E9422AE6C507E4F8F4F9F4FAD
:104950006093D6067093D7068093D8069093D906B5
:10496000F4018385882311F40C942C2D8091A706E3
:104970009091A806A091A906B091AA06181619064A
:104980001A061B0664F081E090E0A0E0B0E080939E
:10499000A7069093A806A093A906B093AA068091B3
:1049A000A7069091A806A091A906B091AA068F5DCE
:1049B0009340A040B04064F08EED93E0A0E0B0E002
:1049C0008093A7069093A806A093A906B093AA0681
:1049D0008DEA96E06DE0452D0E94B8AC8091A70667
:1049E0009091A80698878F83CE010796D7C0882319
:1049F000D9F18DEA96E060E0462D0E94B8AC89E1DD
:104A000094E00E947A2223E0421619F486E194E0B1
:104A100011C034E0431619F483E194E00BC045E083
:104A2000441619F480E194E005C056E0451621F4DF
:104A30008DE094E00E947A228DEA96E06DE0452DAB
:104A40000E94B8ACF10160817181828193810E94E2
:104A500011B37A876987CE0109960E941B20BC0199
:104A60008DEA96E00E94DCB0F4018081992787FDF1
:104A70009095252D30E08217930711F00C942C2D82
:104A80008091A60682FF45C0838591E089278387B0
:104A9000882381F0F10160817181828193810E947C
:104AA00011B36093A7067093A8068093A90690930C
:104AB000AA0621C06091A7067091A8068091A90658
:104AC0009091AA060E9444B3F101608371838283AE
:104AD0009383F401808125E08202C0011124AA277A
:104AE00097FDA095BA2F8093A7069093A806A09350
:104AF000A906B093AA060E9422AE6C507E4F8F4F3B
:104B00009F4F6093D6067093D7068093D8069093F4
:104B1000D906F4018385882309F49EC78091A706EE
:104B20009091A806A091A906B091AA061816190698
:104B30001A061B0664F081E090E0A0E0B0E08093EC
:104B4000A7069093A806A093A906B093AA06809101
:104B5000A7069091A806A091A906B091AA068F5D1C
:104B60009340A040B04064F08EED93E0A0E0B0E050
:104B70008093A7069093A806A093A906B093AA06CF
:104B80008DEA96E06DE0452D0E94B8AC8091A706B5
:104B90009091A8069C878B87CE010B960E941B20C4
:104BA00056C7F4018481882329F18DEA96E060E0FC
:104BB000462D0E94B8AC86E094E00E947A228DEAED
:104BC00096E06DE0462D0E94B8AC6091EF087091C0
:104BD000F0088091F1089091F2080E9411B37E874D
:104BE0006D87CE010D960E941B20BC018DEA96E0D8
:104BF0000E94DCB0F4018081992787FD9095252DD6
:104C000030E08217930709F027C78091A60682FF3C
:104C10004BC0838591E089278387882399F0609131
:104C2000EF087091F0088091F1089091F2080E94CD
:104C300011B36093A7067093A8068093A90690937A
:104C4000AA0624C06091A7067091A8068091A906C3
:104C50009091AA060E9444B36093EF087093F00805
:104C60008093F1089093F208F401808125E082029C
:104C7000C0011124AA2797FDA095BA2F8093A706FB
:104C80009093A806A093A906B093AA060E9422AE0C
:104C90006C507E4F8F4F9F4F6093D6067093D70610
:104CA0008093D8069093D906F4018385882309F46C
:104CB000D3C68091A7069091A806A091A906B091AD
:104CC000AA06B7FF08C01092A7061092A806109275
:104CD000A9061092AA068091A7069091A806A09115
:104CE000A906B091AA068F5D9340A040B04064F041
:104CF0008EED93E0A0E0B0E08093A7069093A80625
:104D0000A093A906B093AA068DEA96E06DE0452D22
:104D10000E94B8AC8091A7069091A806988B8F87C7
:104D2000CE010F963BCF882329F18DEA96E060E013
:104D3000462D0E94B8AC8AEF93E00E947A228DEA59
:104D400096E06DE0462D0E94B8AC60910709709125
:104D500008098091090990910A090E9411B37A8B80
:104D6000698BCE0141960E941B20BC018DEA96E022
:104D70000E94DCB0F4018081992787FD9095252D54
:104D800030E08217930709F067C68091A60682FF7C
:104D90004BC0838591E089278387882399F06091B0
:104DA0000709709108098091090990910A090E94E8
:104DB00011B36093A7067093A8068093A9069093F9
:104DC000AA0624C06091A7067091A8068091A90642
:104DD0009091AA060E9444B3609307097093080952
:104DE0008093090990930A09F401808125E08202E9
:104DF000C0011124AA2797FDA095BA2F8093A7067A
:104E00009093A806A093A906B093AA060E9422AE8A
:104E10006C507E4F8F4F9F4F6093D6067093D7068E
:104E20008093D8069093D906F4018385882309F4EA
:104E300013C68091A7069091A806A091A906B091EB
:104E4000AA06B7FF08C01092A7061092A8061092F3
:104E5000A9061092AA068091A7069091A806A09193
:104E6000A906B091AA068F5D9340A040B04064F0BF
:104E70008EED93E0A0E0B0E08093A7069093A806A3
:104E8000A093A906B093AA068DEA96E06DE0452DA1
:104E90000E94B8AC8091A7069091A8069C8B8B8B42
:104EA000CE0143967BCE882309F444C08DEA96E078
:104EB00060E0462D0E94B8AC83EF93E00E947A2216
:104EC00029E0421619F480EF93E011C03AE043164E
:104ED00019F48DEE93E00BC04BE0441619F48AEE02
:104EE00093E005C05CE0451621F487EE93E00E9454
:104EF0007A228DEA96E06DE0452D0E94B8ACEFA5D0
:104F0000F8A9608171818281938124E630E040E0DC
:104F100050E00E949AB63E8B2D8BCE0145960E94A2
:104F20001B20BC018DEA96E00E94DCB084EE93E089
:104F30000E947A22F4018081992787FD9095252D82
:104F400030E08217930709F087C58091A60682FF9B
:104F50004FC0838591E0892783878823A9F0EFA537
:104F6000F8A9608171818281938124E630E040E07C
:104F700050E00E94BCB62093A7063093A806409349
:104F8000A9065093AA0626C06091A7067091A806AC
:104F90008091A9069091AA0624E630E040E050E016
:104FA0000E9454B6EFA5F8A960837183828393832E
:104FB000F401808125E08202C0011124AA2797FD17
:104FC000A095BA2F8093A7069093A806A093A90650
:104FD000B093AA060E9422AE6C507E4F8F4F9F4F17
:104FE0006093D6067093D7068093D8069093D9061F
:104FF000F4018385882309F42FC58091A706909139
:10500000A806A091A906B091AA06181619061A06B4
:105010001B0664F081E090E0A0E0B0E08093A7067A
:105020009093A806A093A906B093AA068091A7061C
:105030009091A806A091A906B091AA068F5D934011
:10504000A040B04064F08EED93E0A0E0B0E080932B
:10505000A7069093A806A093A906B093AA068DEA86
:1050600096E06DE0452D0E94B8AC8091A706909126
:10507000A806988F8F8BCE0147960E941B20BC01FB
:105080008DEA96E00E94DCB081EE93E00E947A22E5
:10509000E3C4882379F18DEA96E060E0462D0E9412
:1050A000B8AC85ED93E00E947A228DEA96E06DE03F
:1050B000462D0E94B8AC6091F7087091F808809175
:1050C000F9089091FA0820E030E048EC52E40E94A0
:1050D000A9B26B8F7C8F8D8F9E8FCE014B960E94D5
:1050E000851FBC018DEA96E00E94DCB082ED93E062
:1050F0000E947A22F4018081992787FD9095252DC1
:1051000030E08217930709F0A7C48091A60682FFBA
:1051100057C0838591E0892783878823C9F06091F0
:10512000F7087091F8088091F9089091FA080E94A8
:1051300011B324E630E040E050E00E94BCB620937A
:10514000A7063093A8064093A9065093AA062AC042
:105150006091A7067091A8068091A9069091AA0671
:1051600024E630E040E050E00E9454B60E9444B390
:105170006093F7087093F8088093F9089093FA0801
:10518000F401808125E08202C0011124AA2797FD45
:10519000A095BA2F8093A7069093A806A093A9067E
:1051A000B093AA060E9422AE6C507E4F8F4F9F4F45
:1051B0006093D6067093D7068093D8069093D9064D
:1051C000F4018385882309F447C48091A706909150
:1051D000A806A091A906B091AA060A97A105B10553
:1051E00064F48AE090E0A0E0B0E08093A70690939A
:1051F000A806A093A906B093AA068091A70690914D
:10520000A806A091A906B091AA068F5D9340A04080
:10521000B04064F08EED93E0A0E0B0E08093A7068C
:105220009093A806A093A906B093AA068DEA96E0EB
:105230006DE0452D0E94B8AC8091A7069091A8061C
:105240009A8F898FCE0149960E941B20BC018DEA5E
:1052500096E00E94DCB08FEC93E018CFF4018481DB
:105260008823C9F08DEA96E060E0462D0E94B8AC34
:1052700083EC93E00E947A228DEA96E06BE0462D63
:105280000E94B8AC8FEC98E00E94DD20BC018DEA52
:1052900096E00E94DCB0F4018081992787FD90950B
:1052A000252D30E08217930709F0D6C38091A6061A
:1052B00082FF7FC0838591E0892783878823C9F097
:1052C0006091CF087091D0088091D1089091D20858
:1052D00020E030E048EC52E40E9482B50E9411B315
:1052E0006093A7067093A8068093A9069093AA06D8
:1052F00052C060911B0970911C0980911D09909109
:105300001E090E9444B35B016C016091A706709175
:10531000A8068091A9069091AA060E9444B320E0B5
:1053200030E048EC52E40E94A9B27B018C0120914C
:10533000CF083091D0084091D1085091D2080E94F6
:10534000A9B29B01AC01C601B5010E9482B50E94C1
:1053500052B560931B0970931C0980931D099093AB
:105360001E09E092CF08F092D0080093D108109364
:10537000D208F401808125E08202C0011124AA270D
:1053800097FDA095BA2F8093A7069093A806A093A7
:10539000A906B093AA060E9422AE6C507E4F8F4F92
:1053A0009F4F6093D6067093D7068093D80690934C
:1053B000D906F4018385882309F44EC38091A7069A
:1053C0009091A806A091A906B091AA060597A105FB
:1053D000B10564F485E090E0A0E0B0E08093A7061A
:1053E0009093A806A093A906B093AA068091A70659
:1053F0009091A806A091A906B091AA068054924463
:10540000AF40B04064F08FE392E4AFE0B0E080934F
:10541000A7069093A806A093A906B093AA068DEAC2
:1054200096E06BE0452D0E94B8AC6091A7067091A4
:10543000A8068091A9069091AA060E9444B320E094
:1054400030E048EC52E40E94A9B26F8F78A389A3A0
:105450009AA3CE014F96F9C2F40184818823C9F042
:105460008DEA96E060E0462D0E94B8AC87EB93E0B1
:105470000E947A228DEA96E06BE0462D0E94B8AC3D
:1054800083ED98E00E94DD20BC018DEA96E00E9449
:10549000DCB0F4018081992787FD9095252D30E0BF
:1054A0008217930709F0D8C28091A60682FF7FC0B9
:1054B000838591E0892783878823C9F06091D30889
:1054C0007091D4088091D5089091D60820E030E002
:1054D00048EC52E40E9482B50E9411B36093A70683
:1054E0007093A8068093A9069093AA0652C0609173
:1054F0001F097091200980912109909122090E9431
:1055000044B35B016C016091A7067091A80680917D
:10551000A9069091AA060E9444B320E030E048EC2E
:1055200052E40E94A9B27B018C012091D3083091F2
:10553000D4084091D5085091D6080E94A9B29B0189
:10554000AC01C601B5010E9482B50E9452B56093BC
:105550001F09709320098093210990932209E092FA
:10556000D308F092D4080093D5081093D608F4011C
:10557000808125E08202C0011124AA2797FDA09511
:10558000BA2F8093A7069093A806A093A906B0937C
:10559000AA060E9422AE6C507E4F8F4F9F4F6093A1
:1055A000D6067093D7068093D8069093D906F40157
:1055B0008385882309F450C28091A7069091A8069C
:1055C000A091A906B091AA060597A105B10564F4BA
:1055D00085E090E0A0E0B0E08093A7069093A80655
:1055E000A093A906B093AA068091A7069091A80659
:1055F000A091A906B091AA0680549244AF40B04051
:1056000064F08FE392E4AFE0B0E08093A70690935C
:10561000A806A093A906B093AA068DEA96E06BE0CF
:10562000452D0E94B8AC6091A7067091A8068091A4
:10563000A9069091AA060E9444B320E030E048EC0D
:1056400052E40E94A9B26BA37CA38DA39EA3CE01BA
:105650008396FBC1F40184818823C9F08DEA96E02A
:1056600060E0462D0E94B8AC8BEA93E00E947A225B
:105670008DEA96E06BE0462D0E94B8AC87ED98E08D
:105680000E94DD20BC018DEA96E00E94DCB0F401AE
:105690008081992787FD9095252D30E0821793070B
:1056A00009F0DAC18091A60682FF7FC0838591E070
:1056B000892783878823C9F06091D7087091D8081B
:1056C0008091D9089091DA0820E030E048EC52E46B
:1056D0000E9482B50E9411B36093A7067093A8063A
:1056E0008093A9069093AA0652C0609123097091F5
:1056F000240980912509909126090E9444B35B01F9
:105700006C016091A7067091A8068091A9069091FE
:10571000AA060E9444B320E030E048EC52E40E9424
:10572000A9B27B018C012091D7083091D808409113
:10573000D9085091DA080E94A9B29B01AC01C601B8
:10574000B5010E9482B50E9452B5609323097093FF
:1057500024098093250990932609E092D708F092B6
:10576000D8080093D9081093DA08F401808125E065
:105770008202C0011124AA2797FDA095BA2F809319
:10578000A7069093A806A093A906B093AA060E9424
:1057900022AE6C507E4F8F4F9F4F6093D606709312
:1057A000D7068093D8069093D906F4018385882381
:1057B00009F452C18091A7069091A806A091A9066C
:1057C000B091AA060597A105B10564F485E090E0C3
:1057D000A0E0B0E08093A7069093A806A093A90646
:1057E000B093AA068091A7069091A806A091A90659
:1057F000B091AA0680549244AF40B04064F08FE369
:1058000092E4AFE0B0E08093A7069093A806A0933F
:10581000A906B093AA068DEA96E06BE0452D0E949A
:10582000B8AC6091A7067091A8068091A9069091E6
:10583000AA060E9444B320E030E048EC52E40E9403
:10584000A9B26FA378A789A79AA7CE018796FDC0B2
:10585000F40184818823C9F08DEA96E060E0462D4A
:105860000E94B8AC8FE993E00E947A228DEA96E01C
:105870006BE0462D0E94B8AC8BED98E00E94DD20D5
:10588000BC018DEA96E00E94DCB0F401808199278A
:1058900087FD9095252D30E08217930709F0DCC035
:1058A0008091A60682FF7FC0838591E08927838748
:1058B0008823C9F06091DB087091DC088091DD08D5
:1058C0009091DE0820E030E048EC52E40E9482B57E
:1058D0000E9411B36093A7067093A8068093A9064F
:1058E0009093AA0652C0609127097091280980916F
:1058F000290990912A090E9444B35B016C016091CF
:10590000A7067091A8068091A9069091AA060E9408
:1059100044B320E030E048EC52E40E94A9B27B019D
:105920008C012091DB083091DC084091DD0850911A
:10593000DE080E94A9B29B01AC01C601B5010E941C
:1059400082B50E9452B5609327097093280980930D
:10595000290990932A09E092DB08F092DC08009371
:10596000DD081093DE08F401808125E08202C00189
:105970001124AA2797FDA095BA2F8093A70690938C
:10598000A806A093A906B093AA060E9422AE6C5066
:105990007E4F8F4F9F4F6093D6067093D7068093AC
:1059A000D8069093D906F4018385882309F454C05E
:1059B0008091A7069091A806A091A906B091AA0689
:1059C0000597A105B10564F485E090E0A0E0B0E0A2
:1059D0008093A7069093A806A093A906B093AA0661
:1059E0008091A7069091A806A091A906B091AA0659
:1059F00080549244AF40B04064F08FE392E4AFE053
:105A0000B0E08093A7069093A806A093A906B09350
:105A1000AA068DEA96E06BE0452D0E94B8AC609135
:105A2000A7067091A8068091A9069091AA060E94E7
:105A300044B320E030E048EC52E40E94A9B26BA7E6
:105A40007CA78DA79EA7CE018B960E94DD20BC016E
:105A50008DEA96E00E94DCB043940894611C711CAE
:105A60002FA538A92C5F3F4F38AB2FA744E050E05B
:105A7000240E351E562CF4014185842F992787FD6D
:105A80009095039629A93AA9260D371D82179307E9
:105A900014F00C94D7228385882309F0A1C0428793
:105AA000E090A706F090A8060091A9061091AA061A
:105AB000148285819681A781B085A8019701281B52
:105AC000390B4A0B5B0BDA01C9010496A11DB11D0C
:105AD0000997A105B10508F083C08DEA96E060E062
